{
  "_format": "hh-sol-artifact-1",
  "contractName": "Lottery",
  "sourceName": "contracts/Lottery.sol",
  "abi": [
    {
      "inputs": [
        {
          "internalType": "address",
          "name": "_vrfCoordinatorV2",
          "type": "address"
        },
        {
          "internalType": "uint64",
          "name": "_vrfSubscriptionId",
          "type": "uint64"
        },
        {
          "internalType": "bytes32",
          "name": "_vrfGasLane",
          "type": "bytes32"
        },
        {
          "internalType": "uint32",
          "name": "_vrfCallbackGasLimit",
          "type": "uint32"
        }
      ],
      "stateMutability": "nonpayable",
      "type": "constructor"
    },
    {
      "inputs": [
        {
          "internalType": "address",
          "name": "have",
          "type": "address"
        },
        {
          "internalType": "address",
          "name": "want",
          "type": "address"
        }
      ],
      "name": "OnlyCoordinatorCanFulfill",
      "type": "error"
    },
    {
      "anonymous": false,
      "inputs": [
        {
          "indexed": false,
          "internalType": "address",
          "name": "player",
          "type": "address"
        },
        {
          "indexed": false,
          "internalType": "uint256",
          "name": "lotteryBalance",
          "type": "uint256"
        }
      ],
      "name": "BuyTicket",
      "type": "event"
    },
    {
      "anonymous": false,
      "inputs": [
        {
          "indexed": false,
          "internalType": "uint256",
          "name": "lotteryId",
          "type": "uint256"
        }
      ],
      "name": "EndLotteryEvent",
      "type": "event"
    },
    {
      "anonymous": false,
      "inputs": [
        {
          "indexed": true,
          "internalType": "address",
          "name": "previousOwner",
          "type": "address"
        },
        {
          "indexed": true,
          "internalType": "address",
          "name": "newOwner",
          "type": "address"
        }
      ],
      "name": "OwnershipTransferred",
      "type": "event"
    },
    {
      "anonymous": false,
      "inputs": [
        {
          "indexed": false,
          "internalType": "uint256",
          "name": "requestId",
          "type": "uint256"
        }
      ],
      "name": "PendingLotteriesWordsRequested",
      "type": "event"
    },
    {
      "anonymous": false,
      "inputs": [
        {
          "indexed": false,
          "internalType": "address",
          "name": "nftOwner",
          "type": "address"
        },
        {
          "indexed": false,
          "internalType": "uint256",
          "name": "nftTokenId",
          "type": "uint256"
        },
        {
          "indexed": false,
          "internalType": "address",
          "name": "nftContractAddress",
          "type": "address"
        },
        {
          "indexed": false,
          "internalType": "uint256",
          "name": "bettingPrice",
          "type": "uint256"
        },
        {
          "indexed": false,
          "internalType": "bool",
          "name": "activeLottery",
          "type": "bool"
        },
        {
          "indexed": false,
          "internalType": "address",
          "name": "beneficiaryAddress",
          "type": "address"
        },
        {
          "indexed": false,
          "internalType": "uint256",
          "name": "endDate",
          "type": "uint256"
        }
      ],
      "name": "SingleLottery",
      "type": "event"
    },
    {
      "inputs": [],
      "name": "CONTRACT_FEE",
      "outputs": [
        {
          "internalType": "uint256",
          "name": "",
          "type": "uint256"
        }
      ],
      "stateMutability": "view",
      "type": "function"
    },
    {
      "inputs": [
        {
          "internalType": "uint256",
          "name": "_lotteryId",
          "type": "uint256"
        }
      ],
      "name": "buyTicket",
      "outputs": [],
      "stateMutability": "payable",
      "type": "function"
    },
    {
      "inputs": [
        {
          "internalType": "bytes",
          "name": "checkdata",
          "type": "bytes"
        }
      ],
      "name": "checkUpkeep",
      "outputs": [
        {
          "internalType": "bool",
          "name": "upkeepNeeded",
          "type": "bool"
        },
        {
          "internalType": "bytes",
          "name": "performData",
          "type": "bytes"
        }
      ],
      "stateMutability": "view",
      "type": "function"
    },
    {
      "inputs": [],
      "name": "contractFeeBalance",
      "outputs": [
        {
          "internalType": "uint256",
          "name": "",
          "type": "uint256"
        }
      ],
      "stateMutability": "view",
      "type": "function"
    },
    {
      "inputs": [],
      "name": "getContractFeeBalance",
      "outputs": [
        {
          "internalType": "uint256",
          "name": "",
          "type": "uint256"
        }
      ],
      "stateMutability": "view",
      "type": "function"
    },
    {
      "inputs": [
        {
          "internalType": "uint256",
          "name": "_lotteryId",
          "type": "uint256"
        }
      ],
      "name": "getLottery",
      "outputs": [
        {
          "components": [
            {
              "internalType": "address",
              "name": "nftOwner",
              "type": "address"
            },
            {
              "internalType": "address",
              "name": "nftContractAddress",
              "type": "address"
            },
            {
              "internalType": "uint256",
              "name": "bettingPrice",
              "type": "uint256"
            },
            {
              "internalType": "bool",
              "name": "activeLottery",
              "type": "bool"
            },
            {
              "internalType": "address[]",
              "name": "players",
              "type": "address[]"
            },
            {
              "internalType": "uint256",
              "name": "lotteryBalance",
              "type": "uint256"
            },
            {
              "internalType": "address",
              "name": "beneficiaryAddress",
              "type": "address"
            },
            {
              "internalType": "address",
              "name": "lotteryWinner",
              "type": "address"
            },
            {
              "internalType": "uint256",
              "name": "endDate",
              "type": "uint256"
            },
            {
              "internalType": "uint256",
              "name": "nftTokenId",
              "type": "uint256"
            }
          ],
          "internalType": "struct Lottery.singleLottery",
          "name": "",
          "type": "tuple"
        }
      ],
      "stateMutability": "view",
      "type": "function"
    },
    {
      "inputs": [],
      "name": "getLotteryCount",
      "outputs": [
        {
          "internalType": "uint256",
          "name": "",
          "type": "uint256"
        }
      ],
      "stateMutability": "view",
      "type": "function"
    },
    {
      "inputs": [
        {
          "internalType": "address",
          "name": "",
          "type": "address"
        },
        {
          "internalType": "address",
          "name": "",
          "type": "address"
        },
        {
          "internalType": "uint256",
          "name": "",
          "type": "uint256"
        },
        {
          "internalType": "bytes",
          "name": "",
          "type": "bytes"
        }
      ],
      "name": "onERC721Received",
      "outputs": [
        {
          "internalType": "bytes4",
          "name": "",
          "type": "bytes4"
        }
      ],
      "stateMutability": "nonpayable",
      "type": "function"
    },
    {
      "inputs": [],
      "name": "owner",
      "outputs": [
        {
          "internalType": "address",
          "name": "",
          "type": "address"
        }
      ],
      "stateMutability": "view",
      "type": "function"
    },
    {
      "inputs": [
        {
          "internalType": "bytes",
          "name": "",
          "type": "bytes"
        }
      ],
      "name": "performUpkeep",
      "outputs": [],
      "stateMutability": "nonpayable",
      "type": "function"
    },
    {
      "inputs": [
        {
          "internalType": "uint256",
          "name": "requestId",
          "type": "uint256"
        },
        {
          "internalType": "uint256[]",
          "name": "randomWords",
          "type": "uint256[]"
        }
      ],
      "name": "rawFulfillRandomWords",
      "outputs": [],
      "stateMutability": "nonpayable",
      "type": "function"
    },
    {
      "inputs": [],
      "name": "renounceOwnership",
      "outputs": [],
      "stateMutability": "nonpayable",
      "type": "function"
    },
    {
      "inputs": [],
      "name": "requestWordsPendingLotteries",
      "outputs": [
        {
          "internalType": "uint256",
          "name": "s_requestId",
          "type": "uint256"
        }
      ],
      "stateMutability": "nonpayable",
      "type": "function"
    },
    {
      "inputs": [],
      "name": "s_pendingLotteryEnd",
      "outputs": [
        {
          "internalType": "bool",
          "name": "",
          "type": "bool"
        }
      ],
      "stateMutability": "view",
      "type": "function"
    },
    {
      "inputs": [
        {
          "internalType": "uint256",
          "name": "_tokenId",
          "type": "uint256"
        },
        {
          "internalType": "address",
          "name": "_nftContractAddress",
          "type": "address"
        },
        {
          "internalType": "uint256",
          "name": "_bettingPrice",
          "type": "uint256"
        },
        {
          "internalType": "address",
          "name": "_beneficiaryAddress",
          "type": "address"
        },
        {
          "internalType": "uint256",
          "name": "_endDate",
          "type": "uint256"
        }
      ],
      "name": "startLottery",
      "outputs": [
        {
          "internalType": "bytes4",
          "name": "",
          "type": "bytes4"
        }
      ],
      "stateMutability": "nonpayable",
      "type": "function"
    },
    {
      "inputs": [
        {
          "internalType": "address",
          "name": "newOwner",
          "type": "address"
        }
      ],
      "name": "transferOwnership",
      "outputs": [],
      "stateMutability": "nonpayable",
      "type": "function"
    },
    {
      "inputs": [],
      "name": "withdrawContractFeeGains",
      "outputs": [],
      "stateMutability": "nonpayable",
      "type": "function"
    }
  ],
  "bytecode": "0x61012060405260006001553480156200001757600080fd5b5060405162002ed838038062002ed883398181016040528101906200003d919062000301565b836200005e620000526200010a60201b60201c565b6200011260201b60201c565b8073ffffffffffffffffffffffffffffffffffffffff1660808173ffffffffffffffffffffffffffffffffffffffff1681525050508373ffffffffffffffffffffffffffffffffffffffff1660a08173ffffffffffffffffffffffffffffffffffffffff16815250508267ffffffffffffffff1660c08167ffffffffffffffff16815250508160e081815250508063ffffffff166101008163ffffffff16815250505050505062000373565b600033905090565b60008060009054906101000a900473ffffffffffffffffffffffffffffffffffffffff169050816000806101000a81548173ffffffffffffffffffffffffffffffffffffffff021916908373ffffffffffffffffffffffffffffffffffffffff1602179055508173ffffffffffffffffffffffffffffffffffffffff168173ffffffffffffffffffffffffffffffffffffffff167f8be0079c531659141344cd1fd0a4f28419497f9722a3daafe3b4186f6b6457e060405160405180910390a35050565b600080fd5b600073ffffffffffffffffffffffffffffffffffffffff82169050919050565b60006200020882620001db565b9050919050565b6200021a81620001fb565b81146200022657600080fd5b50565b6000815190506200023a816200020f565b92915050565b600067ffffffffffffffff82169050919050565b6200025f8162000240565b81146200026b57600080fd5b50565b6000815190506200027f8162000254565b92915050565b6000819050919050565b6200029a8162000285565b8114620002a657600080fd5b50565b600081519050620002ba816200028f565b92915050565b600063ffffffff82169050919050565b620002db81620002c0565b8114620002e757600080fd5b50565b600081519050620002fb81620002d0565b92915050565b600080600080608085870312156200031e576200031d620001d6565b5b60006200032e8782880162000229565b945050602062000341878288016200026e565b93505060406200035487828801620002a9565b92505060606200036787828801620002ea565b91505092959194509250565b60805160a05160c05160e05161010051612b19620003bf6000396000610ecf01526000610e8b01526000610eac01526000610e4f01526000818161040a015261045e0152612b196000f3fe6080604052600436106100fe5760003560e01c8063715018a611610095578063b160f9cc11610064578063b160f9cc14610315578063c5a4605a14610340578063c89663ed1461036b578063f2fde38b14610396578063f70d3746146103bf576100fe565b8063715018a61461025957806379f0c3df146102705780638da5cb5b146102ad57806392e845f6146102d8576100fe565b80634585e33b116100d15780634585e33b146101bf5780634c7c0151146101e857806367dd74ca146101ff5780636e04ff0d1461021b576100fe565b8063087c228814610103578063150b7a021461012e5780631fe543e31461016b5780632f9aa1fe14610194575b600080fd5b34801561010f57600080fd5b506101186103ea565b6040516101259190611794565b60405180910390f35b34801561013a57600080fd5b5061015560048036038101906101509190611993565b6103f4565b6040516101629190611a51565b60405180910390f35b34801561017757600080fd5b50610192600480360381019061018d9190611b34565b610408565b005b3480156101a057600080fd5b506101a96104c8565b6040516101b69190611794565b60405180910390f35b3480156101cb57600080fd5b506101e660048036038101906101e19190611beb565b6104d9565b005b3480156101f457600080fd5b506101fd6104e6565b005b61021960048036038101906102149190611c38565b6105a7565b005b34801561022757600080fd5b50610242600480360381019061023d9190611beb565b610762565b604051610250929190611d08565b60405180910390f35b34801561026557600080fd5b5061026e610808565b005b34801561027c57600080fd5b5061029760048036038101906102929190611d38565b61081c565b6040516102a49190611a51565b60405180910390f35b3480156102b957600080fd5b506102c2610aa4565b6040516102cf9190611dc2565b60405180910390f35b3480156102e457600080fd5b506102ff60048036038101906102fa9190611c38565b610acd565b60405161030c9190611f93565b60405180910390f35b34801561032157600080fd5b5061032a610d75565b6040516103379190611794565b60405180910390f35b34801561034c57600080fd5b50610355610d7b565b6040516103629190611794565b60405180910390f35b34801561037757600080fd5b50610380610fba565b60405161038d9190611fb5565b60405180910390f35b3480156103a257600080fd5b506103bd60048036038101906103b89190611fd0565b610fcd565b005b3480156103cb57600080fd5b506103d4611051565b6040516103e19190611794565b60405180910390f35b6000600154905090565b600063150b7a0260e01b9050949350505050565b7f000000000000000000000000000000000000000000000000000000000000000073ffffffffffffffffffffffffffffffffffffffff163373ffffffffffffffffffffffffffffffffffffffff16146104ba57337f00000000000000000000000000000000000000000000000000000000000000006040517f1cf993f40000000000000000000000000000000000000000000000000000000081526004016104b1929190611ffd565b60405180910390fd5b6104c48282611056565b5050565b60006104d4600361116e565b905090565b6104e1610d7b565b505050565b6104ee61117c565b60003373ffffffffffffffffffffffffffffffffffffffff1660015460405161051690612057565b60006040518083038185875af1925050503d8060008114610553576040519150601f19603f3d011682016040523d82523d6000602084013e610558565b606091505b505090508061059c576040517f08c379a0000000000000000000000000000000000000000000000000000000008152600401610593906120c9565b60405180910390fd5b600060018190555050565b6105b1600361116e565b81106105f2576040517f08c379a00000000000000000000000000000000000000000000000000000000081526004016105e99061215b565b60405180910390fd5b60006004600083815260200190815260200160002090508060030160009054906101000a900460ff1661065a576040517f08c379a000000000000000000000000000000000000000000000000000000000815260040161065190612213565b60405180910390fd5b806002015434146106a0576040517f08c379a0000000000000000000000000000000000000000000000000000000008152600401610697906122a5565b60405180910390fd5b80600401339080600181540180825580915050600190039060005260206000200160009091909190916101000a81548173ffffffffffffffffffffffffffffffffffffffff021916908373ffffffffffffffffffffffffffffffffffffffff1602179055508060020154816005015461071991906122f4565b81600501819055507f2a3164428cba5dad15f5ffe47e10cbefdcbbe9e269fd482753982ee8b2648c3e33826005015460405161075692919061234a565b60405180910390a15050565b60006060600260009054906101000a900460ff166107ba5760005b610787600361116e565b8110156107b857610797816111fa565b156107a557600192506107b8565b80806107b090612373565b91505061077d565b505b83838080601f016020809104026020016040519081016040528093929190818152602001838380828437600081840152601f19601f8201169050808301925050505050505090509250929050565b61081061117c565b61081a600061125e565b565b6000808411610860576040517f08c379a00000000000000000000000000000000000000000000000000000000081526004016108579061242e565b60405180910390fd5b4282116108a2576040517f08c379a0000000000000000000000000000000000000000000000000000000008152600401610899906124c0565b60405180910390fd5b60008590508073ffffffffffffffffffffffffffffffffffffffff166342842e0e33308a6040518463ffffffff1660e01b81526004016108e4939291906124e0565b600060405180830381600087803b1580156108fe57600080fd5b505af1158015610912573d6000803e3d6000fd5b50505050600060046000610926600361116e565b81526020019081526020016000209050338160000160006101000a81548173ffffffffffffffffffffffffffffffffffffffff021916908373ffffffffffffffffffffffffffffffffffffffff160217905550878160090181905550868160010160006101000a81548173ffffffffffffffffffffffffffffffffffffffff021916908373ffffffffffffffffffffffffffffffffffffffff16021790555085816002018190555060018160030160006101000a81548160ff02191690831515021790555060008160050181905550848160060160006101000a81548173ffffffffffffffffffffffffffffffffffffffff021916908373ffffffffffffffffffffffffffffffffffffffff1602179055508381600801819055507f8f091eb0e0cdf901a8325af719fb5bffee6be7ce8c77a252855ca32be8c4c2f53389898960018a8a604051610a7d9796959493929190612517565b60405180910390a1610a8f6003611322565b63150b7a0260e01b9250505095945050505050565b60008060009054906101000a900473ffffffffffffffffffffffffffffffffffffffff16905090565b610ad56116ce565b610adf600361116e565b8210610b20576040517f08c379a0000000000000000000000000000000000000000000000000000000008152600401610b179061215b565b60405180910390fd5b600060046000848152602001908152602001600020905080604051806101400160405290816000820160009054906101000a900473ffffffffffffffffffffffffffffffffffffffff1673ffffffffffffffffffffffffffffffffffffffff1673ffffffffffffffffffffffffffffffffffffffff1681526020016001820160009054906101000a900473ffffffffffffffffffffffffffffffffffffffff1673ffffffffffffffffffffffffffffffffffffffff1673ffffffffffffffffffffffffffffffffffffffff168152602001600282015481526020016003820160009054906101000a900460ff1615151515815260200160048201805480602002602001604051908101604052809291908181526020018280548015610c9a57602002820191906000526020600020905b8160009054906101000a900473ffffffffffffffffffffffffffffffffffffffff1673ffffffffffffffffffffffffffffffffffffffff1681526020019060010190808311610c50575b50505050508152602001600582015481526020016006820160009054906101000a900473ffffffffffffffffffffffffffffffffffffffff1673ffffffffffffffffffffffffffffffffffffffff1673ffffffffffffffffffffffffffffffffffffffff1681526020016007820160009054906101000a900473ffffffffffffffffffffffffffffffffffffffff1673ffffffffffffffffffffffffffffffffffffffff1673ffffffffffffffffffffffffffffffffffffffff16815260200160088201548152602001600982015481525050915050919050565b60015481565b6000803073ffffffffffffffffffffffffffffffffffffffff16636e04ff0d6040518163ffffffff1660e01b8152600401610db5906125a9565b60006040518083038186803b158015610dcd57600080fd5b505afa158015610de1573d6000803e3d6000fd5b505050506040513d6000823e3d601f19601f82011682018060405250810190610e0a9190612665565b50905080610e4d576040517f08c379a0000000000000000000000000000000000000000000000000000000008152600401610e4490612733565b60405180910390fd5b7f000000000000000000000000000000000000000000000000000000000000000073ffffffffffffffffffffffffffffffffffffffff16635d3b1d307f00000000000000000000000000000000000000000000000000000000000000007f000000000000000000000000000000000000000000000000000000000000000060037f000000000000000000000000000000000000000000000000000000000000000060016040518663ffffffff1660e01b8152600401610f109594939291906127cb565b602060405180830381600087803b158015610f2a57600080fd5b505af1158015610f3e573d6000803e3d6000fd5b505050506040513d601f19601f82011682018060405250810190610f629190612833565b91506001600260006101000a81548160ff0219169083151502179055507f4086bd1a4642868b523b32dd30da50e47fa52139cffe27b6b9dba005a3381cb982604051610fae9190611794565b60405180910390a15090565b600260009054906101000a900460ff1681565b610fd561117c565b600073ffffffffffffffffffffffffffffffffffffffff168173ffffffffffffffffffffffffffffffffffffffff161415611045576040517f08c379a000000000000000000000000000000000000000000000000000000000815260040161103c906128d2565b60405180910390fd5b61104e8161125e565b50565b600581565b6000600260006101000a81548160ff02191690831515021790555060005b61107e600361116e565b8110156111695761108e816111fa565b1561115657611155816004600084815260200190815260200160002060040180549050846000815181106110c5576110c46128f2565b5b602002602001015160046000868152602001908152602001600020600901546004600087815260200190815260200160002060010160009054906101000a900473ffffffffffffffffffffffffffffffffffffffff1660405160200161112d93929190612921565b6040516020818303038152906040528051906020012060001c6111509190612987565b611338565b5b808061116190612373565b915050611074565b505050565b600081600001549050919050565b6111846116c6565b73ffffffffffffffffffffffffffffffffffffffff166111a2610aa4565b73ffffffffffffffffffffffffffffffffffffffff16146111f8576040517f08c379a00000000000000000000000000000000000000000000000000000000081526004016111ef90612a04565b60405180910390fd5b565b60006004600083815260200190815260200160002060030160009054906101000a900460ff1661122d5760009050611259565b42600460008481526020019081526020016000206008015411156112545760009050611259565b600190505b919050565b60008060009054906101000a900473ffffffffffffffffffffffffffffffffffffffff169050816000806101000a81548173ffffffffffffffffffffffffffffffffffffffff021916908373ffffffffffffffffffffffffffffffffffffffff1602179055508173ffffffffffffffffffffffffffffffffffffffff168173ffffffffffffffffffffffffffffffffffffffff167f8be0079c531659141344cd1fd0a4f28419497f9722a3daafe3b4186f6b6457e060405160405180910390a35050565b6001816000016000828254019250508190555050565b611342600361116e565b8210611383576040517f08c379a000000000000000000000000000000000000000000000000000000000815260040161137a9061215b565b60405180910390fd5b60006004600084815260200190815260200160002090508060030160009054906101000a900460ff166113eb576040517f08c379a00000000000000000000000000000000000000000000000000000000081526004016113e290612213565b60405180910390fd5b806004018281548110611401576114006128f2565b5b9060005260206000200160009054906101000a900473ffffffffffffffffffffffffffffffffffffffff168160070160006101000a81548173ffffffffffffffffffffffffffffffffffffffff021916908373ffffffffffffffffffffffffffffffffffffffff16021790555060006064600560646114809190612a24565b836005015461148f9190612a58565b6114999190612ab2565b905060008260060160009054906101000a900473ffffffffffffffffffffffffffffffffffffffff1673ffffffffffffffffffffffffffffffffffffffff16826040516114e590612057565b60006040518083038185875af1925050503d8060008114611522576040519150601f19603f3d011682016040523d82523d6000602084013e611527565b606091505b505090508061156b576040517f08c379a0000000000000000000000000000000000000000000000000000000008152600401611562906120c9565b60405180910390fd5b60646005846005015461157e9190612a58565b6115889190612ab2565b6001600082825461159991906122f4565b9250508190555060008360030160006101000a81548160ff021916908315150217905550600083600501819055507f3056e6a2c5f046f7a52808a2d667aa237021e443f84237f476e8ea63f7c3ba01856040516115f69190611794565b60405180910390a160008360010160009054906101000a900473ffffffffffffffffffffffffffffffffffffffff1690508073ffffffffffffffffffffffffffffffffffffffff166342842e0e308660070160009054906101000a900473ffffffffffffffffffffffffffffffffffffffff1687600901546040518463ffffffff1660e01b815260040161168c939291906124e0565b600060405180830381600087803b1580156116a657600080fd5b505af11580156116ba573d6000803e3d6000fd5b50505050505050505050565b600033905090565b604051806101400160405280600073ffffffffffffffffffffffffffffffffffffffff168152602001600073ffffffffffffffffffffffffffffffffffffffff168152602001600081526020016000151581526020016060815260200160008152602001600073ffffffffffffffffffffffffffffffffffffffff168152602001600073ffffffffffffffffffffffffffffffffffffffff16815260200160008152602001600081525090565b6000819050919050565b61178e8161177b565b82525050565b60006020820190506117a96000830184611785565b92915050565b6000604051905090565b600080fd5b600080fd5b600073ffffffffffffffffffffffffffffffffffffffff82169050919050565b60006117ee826117c3565b9050919050565b6117fe816117e3565b811461180957600080fd5b50565b60008135905061181b816117f5565b92915050565b61182a8161177b565b811461183557600080fd5b50565b60008135905061184781611821565b92915050565b600080fd5b600080fd5b6000601f19601f8301169050919050565b7f4e487b7100000000000000000000000000000000000000000000000000000000600052604160045260246000fd5b6118a082611857565b810181811067ffffffffffffffff821117156118bf576118be611868565b5b80604052505050565b60006118d26117af565b90506118de8282611897565b919050565b600067ffffffffffffffff8211156118fe576118fd611868565b5b61190782611857565b9050602081019050919050565b82818337600083830152505050565b6000611936611931846118e3565b6118c8565b90508281526020810184848401111561195257611951611852565b5b61195d848285611914565b509392505050565b600082601f83011261197a5761197961184d565b5b813561198a848260208601611923565b91505092915050565b600080600080608085870312156119ad576119ac6117b9565b5b60006119bb8782880161180c565b94505060206119cc8782880161180c565b93505060406119dd87828801611838565b925050606085013567ffffffffffffffff8111156119fe576119fd6117be565b5b611a0a87828801611965565b91505092959194509250565b60007fffffffff0000000000000000000000000000000000000000000000000000000082169050919050565b611a4b81611a16565b82525050565b6000602082019050611a666000830184611a42565b92915050565b600067ffffffffffffffff821115611a8757611a86611868565b5b602082029050602081019050919050565b600080fd5b6000611ab0611aab84611a6c565b6118c8565b90508083825260208201905060208402830185811115611ad357611ad2611a98565b5b835b81811015611afc5780611ae88882611838565b845260208401935050602081019050611ad5565b5050509392505050565b600082601f830112611b1b57611b1a61184d565b5b8135611b2b848260208601611a9d565b91505092915050565b60008060408385031215611b4b57611b4a6117b9565b5b6000611b5985828601611838565b925050602083013567ffffffffffffffff811115611b7a57611b796117be565b5b611b8685828601611b06565b9150509250929050565b600080fd5b60008083601f840112611bab57611baa61184d565b5b8235905067ffffffffffffffff811115611bc857611bc7611b90565b5b602083019150836001820283011115611be457611be3611a98565b5b9250929050565b60008060208385031215611c0257611c016117b9565b5b600083013567ffffffffffffffff811115611c2057611c1f6117be565b5b611c2c85828601611b95565b92509250509250929050565b600060208284031215611c4e57611c4d6117b9565b5b6000611c5c84828501611838565b91505092915050565b60008115159050919050565b611c7a81611c65565b82525050565b600081519050919050565b600082825260208201905092915050565b60005b83811015611cba578082015181840152602081019050611c9f565b83811115611cc9576000848401525b50505050565b6000611cda82611c80565b611ce48185611c8b565b9350611cf4818560208601611c9c565b611cfd81611857565b840191505092915050565b6000604082019050611d1d6000830185611c71565b8181036020830152611d2f8184611ccf565b90509392505050565b600080600080600060a08688031215611d5457611d536117b9565b5b6000611d6288828901611838565b9550506020611d738882890161180c565b9450506040611d8488828901611838565b9350506060611d958882890161180c565b9250506080611da688828901611838565b9150509295509295909350565b611dbc816117e3565b82525050565b6000602082019050611dd76000830184611db3565b92915050565b611de6816117e3565b82525050565b611df58161177b565b82525050565b611e0481611c65565b82525050565b600081519050919050565b600082825260208201905092915050565b6000819050602082019050919050565b6000611e428383611ddd565b60208301905092915050565b6000602082019050919050565b6000611e6682611e0a565b611e708185611e15565b9350611e7b83611e26565b8060005b83811015611eac578151611e938882611e36565b9750611e9e83611e4e565b925050600181019050611e7f565b5085935050505092915050565b600061014083016000830151611ed26000860182611ddd565b506020830151611ee56020860182611ddd565b506040830151611ef86040860182611dec565b506060830151611f0b6060860182611dfb565b5060808301518482036080860152611f238282611e5b565b91505060a0830151611f3860a0860182611dec565b5060c0830151611f4b60c0860182611ddd565b5060e0830151611f5e60e0860182611ddd565b50610100830151611f73610100860182611dec565b50610120830151611f88610120860182611dec565b508091505092915050565b60006020820190508181036000830152611fad8184611eb9565b905092915050565b6000602082019050611fca6000830184611c71565b92915050565b600060208284031215611fe657611fe56117b9565b5b6000611ff48482850161180c565b91505092915050565b60006040820190506120126000830185611db3565b61201f6020830184611db3565b9392505050565b600081905092915050565b50565b6000612041600083612026565b915061204c82612031565b600082019050919050565b600061206282612034565b9150819050919050565b600082825260208201905092915050565b7f5472616e73616374696f6e204661696c65640000000000000000000000000000600082015250565b60006120b360128361206c565b91506120be8261207d565b602082019050919050565b600060208201905081810360008301526120e2816120a6565b9050919050565b7f546865206c6f747465727920496420676976656e20646f6573206e6f7420636f60008201527f72726573706f6e6420746f20616e206578697374696e67206c6f74746572792e602082015250565b600061214560408361206c565b9150612150826120e9565b604082019050919050565b6000602082019050818103600083015261217481612138565b9050919050565b7f546865206c6f747465727920496420676976656e20636f72726573706f6e647360008201527f20746f2061206c6f747465727920746861742068617320616c7265616479206560208201527f6e6465642e000000000000000000000000000000000000000000000000000000604082015250565b60006121fd60458361206c565b91506122088261217b565b606082019050919050565b6000602082019050818103600083015261222c816121f0565b9050919050565b7f546f2070617274696369706174652c20706c656173652061646420746865207260008201527f6571756972656420616d6f756e742e0000000000000000000000000000000000602082015250565b600061228f602f8361206c565b915061229a82612233565b604082019050919050565b600060208201905081810360008301526122be81612282565b9050919050565b7f4e487b7100000000000000000000000000000000000000000000000000000000600052601160045260246000fd5b60006122ff8261177b565b915061230a8361177b565b9250827fffffffffffffffffffffffffffffffffffffffffffffffffffffffffffffffff0382111561233f5761233e6122c5565b5b828201905092915050565b600060408201905061235f6000830185611db3565b61236c6020830184611785565b9392505050565b600061237e8261177b565b91507fffffffffffffffffffffffffffffffffffffffffffffffffffffffffffffffff8214156123b1576123b06122c5565b5b600182019050919050565b7f42657474696e672070726963652073686f756c6420626520677265617465722060008201527f7468616e207a65726f2e00000000000000000000000000000000000000000000602082015250565b6000612418602a8361206c565b9150612423826123bc565b604082019050919050565b600060208201905081810360008301526124478161240b565b9050919050565b7f456e6420646174652073686f756c64206265206c61746572207468616e20746860008201527f652063757272656e742074696d657374616d7000000000000000000000000000602082015250565b60006124aa60338361206c565b91506124b58261244e565b604082019050919050565b600060208201905081810360008301526124d98161249d565b9050919050565b60006060820190506124f56000830186611db3565b6125026020830185611db3565b61250f6040830184611785565b949350505050565b600060e08201905061252c600083018a611db3565b6125396020830189611785565b6125466040830188611db3565b6125536060830187611785565b6125606080830186611c71565b61256d60a0830185611db3565b61257a60c0830184611785565b98975050505050505050565b6000612593600083611c8b565b915061259e82612031565b600082019050919050565b600060208201905081810360008301526125c281612586565b9050919050565b6125d281611c65565b81146125dd57600080fd5b50565b6000815190506125ef816125c9565b92915050565b6000612608612603846118e3565b6118c8565b90508281526020810184848401111561262457612623611852565b5b61262f848285611c9c565b509392505050565b600082601f83011261264c5761264b61184d565b5b815161265c8482602086016125f5565b91505092915050565b6000806040838503121561267c5761267b6117b9565b5b600061268a858286016125e0565b925050602083015167ffffffffffffffff8111156126ab576126aa6117be565b5b6126b785828601612637565b9150509250929050565b7f546865726520617265206e6f206c6f747465726965732070656e64696e67207460008201527f6f20626520656e64656400000000000000000000000000000000000000000000602082015250565b600061271d602a8361206c565b9150612728826126c1565b604082019050919050565b6000602082019050818103600083015261274c81612710565b9050919050565b6000819050919050565b61276681612753565b82525050565b600067ffffffffffffffff82169050919050565b6127898161276c565b82525050565b600061ffff82169050919050565b6127a68161278f565b82525050565b600063ffffffff82169050919050565b6127c5816127ac565b82525050565b600060a0820190506127e0600083018861275d565b6127ed6020830187612780565b6127fa604083018661279d565b61280760608301856127bc565b61281460808301846127bc565b9695505050505050565b60008151905061282d81611821565b92915050565b600060208284031215612849576128486117b9565b5b60006128578482850161281e565b91505092915050565b7f4f776e61626c653a206e6577206f776e657220697320746865207a65726f206160008201527f6464726573730000000000000000000000000000000000000000000000000000602082015250565b60006128bc60268361206c565b91506128c782612860565b604082019050919050565b600060208201905081810360008301526128eb816128af565b9050919050565b7f4e487b7100000000000000000000000000000000000000000000000000000000600052603260045260246000fd5b60006060820190506129366000830186611785565b6129436020830185611785565b6129506040830184611db3565b949350505050565b7f4e487b7100000000000000000000000000000000000000000000000000000000600052601260045260246000fd5b60006129928261177b565b915061299d8361177b565b9250826129ad576129ac612958565b5b828206905092915050565b7f4f776e61626c653a2063616c6c6572206973206e6f7420746865206f776e6572600082015250565b60006129ee60208361206c565b91506129f9826129b8565b602082019050919050565b60006020820190508181036000830152612a1d816129e1565b9050919050565b6000612a2f8261177b565b9150612a3a8361177b565b925082821015612a4d57612a4c6122c5565b5b828203905092915050565b6000612a638261177b565b9150612a6e8361177b565b9250817fffffffffffffffffffffffffffffffffffffffffffffffffffffffffffffffff0483118215151615612aa757612aa66122c5565b5b828202905092915050565b6000612abd8261177b565b9150612ac88361177b565b925082612ad857612ad7612958565b5b82820490509291505056fea26469706673582212204d611429fe3f637884745336faca6cdacc88ec6b0b2a78ded326d156791a47c864736f6c63430008090033",
  "linkReferences": {},
  "deployedLinkReferences": {}
}