{
  "_format": "hh-sol-artifact-1",
  "contractName": "Lottery",
  "sourceName": "contracts/Lottery.sol",
  "abi": [
    {
      "inputs": [
        {
          "internalType": "uint64",
          "name": "subscriptionId",
          "type": "uint64"
        }
      ],
      "stateMutability": "nonpayable",
      "type": "constructor"
    },
    {
      "inputs": [
        {
          "internalType": "address",
          "name": "have",
          "type": "address"
        },
        {
          "internalType": "address",
          "name": "want",
          "type": "address"
        }
      ],
      "name": "OnlyCoordinatorCanFulfill",
      "type": "error"
    },
    {
      "anonymous": false,
      "inputs": [
        {
          "indexed": false,
          "internalType": "address",
          "name": "player",
          "type": "address"
        },
        {
          "indexed": false,
          "internalType": "uint256",
          "name": "lotteryBalance",
          "type": "uint256"
        }
      ],
      "name": "BuyTicket",
      "type": "event"
    },
    {
      "anonymous": false,
      "inputs": [
        {
          "indexed": true,
          "internalType": "address",
          "name": "previousOwner",
          "type": "address"
        },
        {
          "indexed": true,
          "internalType": "address",
          "name": "newOwner",
          "type": "address"
        }
      ],
      "name": "OwnershipTransferred",
      "type": "event"
    },
    {
      "anonymous": false,
      "inputs": [
        {
          "indexed": false,
          "internalType": "address",
          "name": "currentWinner",
          "type": "address"
        },
        {
          "indexed": false,
          "internalType": "bool",
          "name": "activeLottery",
          "type": "bool"
        },
        {
          "indexed": false,
          "internalType": "address",
          "name": "nftContractAddress",
          "type": "address"
        },
        {
          "indexed": false,
          "internalType": "uint256",
          "name": "awardBalance",
          "type": "uint256"
        }
      ],
      "name": "PickTheWinner",
      "type": "event"
    },
    {
      "anonymous": false,
      "inputs": [
        {
          "indexed": false,
          "internalType": "address",
          "name": "nftOwner",
          "type": "address"
        },
        {
          "indexed": false,
          "internalType": "uint256",
          "name": "nftTokenId",
          "type": "uint256"
        },
        {
          "indexed": false,
          "internalType": "address",
          "name": "nftContractAddress",
          "type": "address"
        },
        {
          "indexed": false,
          "internalType": "uint256",
          "name": "bettingPrice",
          "type": "uint256"
        },
        {
          "indexed": false,
          "internalType": "bool",
          "name": "activeLottery",
          "type": "bool"
        },
        {
          "indexed": false,
          "internalType": "address",
          "name": "beneficiaryAddress",
          "type": "address"
        },
        {
          "indexed": false,
          "internalType": "uint256",
          "name": "startDate",
          "type": "uint256"
        }
      ],
      "name": "SingleLottery",
      "type": "event"
    },
    {
      "inputs": [
        {
          "internalType": "uint256",
          "name": "_lotteryId",
          "type": "uint256"
        }
      ],
      "name": "buyTicket",
      "outputs": [],
      "stateMutability": "payable",
      "type": "function"
    },
    {
      "inputs": [],
      "name": "getContractBalance",
      "outputs": [
        {
          "internalType": "uint256",
          "name": "",
          "type": "uint256"
        }
      ],
      "stateMutability": "view",
      "type": "function"
    },
    {
      "inputs": [
        {
          "internalType": "uint256",
          "name": "_lotteryId",
          "type": "uint256"
        }
      ],
      "name": "getLottery",
      "outputs": [
        {
          "internalType": "address",
          "name": "",
          "type": "address"
        },
        {
          "internalType": "address",
          "name": "",
          "type": "address"
        },
        {
          "internalType": "uint256",
          "name": "",
          "type": "uint256"
        },
        {
          "internalType": "bool",
          "name": "",
          "type": "bool"
        },
        {
          "internalType": "address[]",
          "name": "",
          "type": "address[]"
        },
        {
          "internalType": "uint256",
          "name": "",
          "type": "uint256"
        },
        {
          "internalType": "address",
          "name": "",
          "type": "address"
        },
        {
          "internalType": "uint256",
          "name": "",
          "type": "uint256"
        }
      ],
      "stateMutability": "view",
      "type": "function"
    },
    {
      "inputs": [
        {
          "internalType": "address",
          "name": "",
          "type": "address"
        },
        {
          "internalType": "address",
          "name": "",
          "type": "address"
        },
        {
          "internalType": "uint256",
          "name": "",
          "type": "uint256"
        },
        {
          "internalType": "bytes",
          "name": "",
          "type": "bytes"
        }
      ],
      "name": "onERC721Received",
      "outputs": [
        {
          "internalType": "bytes4",
          "name": "",
          "type": "bytes4"
        }
      ],
      "stateMutability": "nonpayable",
      "type": "function"
    },
    {
      "inputs": [],
      "name": "owner",
      "outputs": [
        {
          "internalType": "address",
          "name": "",
          "type": "address"
        }
      ],
      "stateMutability": "view",
      "type": "function"
    },
    {
      "inputs": [
        {
          "internalType": "uint256",
          "name": "_lotteryId",
          "type": "uint256"
        }
      ],
      "name": "pickTheWinner",
      "outputs": [],
      "stateMutability": "nonpayable",
      "type": "function"
    },
    {
      "inputs": [
        {
          "internalType": "uint256",
          "name": "requestId",
          "type": "uint256"
        },
        {
          "internalType": "uint256[]",
          "name": "randomWords",
          "type": "uint256[]"
        }
      ],
      "name": "rawFulfillRandomWords",
      "outputs": [],
      "stateMutability": "nonpayable",
      "type": "function"
    },
    {
      "inputs": [],
      "name": "renounceOwnership",
      "outputs": [],
      "stateMutability": "nonpayable",
      "type": "function"
    },
    {
      "inputs": [],
      "name": "requestRandomWords",
      "outputs": [],
      "stateMutability": "nonpayable",
      "type": "function"
    },
    {
      "inputs": [
        {
          "internalType": "uint256",
          "name": "",
          "type": "uint256"
        }
      ],
      "name": "s_randomWords",
      "outputs": [
        {
          "internalType": "uint256",
          "name": "",
          "type": "uint256"
        }
      ],
      "stateMutability": "view",
      "type": "function"
    },
    {
      "inputs": [],
      "name": "s_requestId",
      "outputs": [
        {
          "internalType": "uint256",
          "name": "",
          "type": "uint256"
        }
      ],
      "stateMutability": "view",
      "type": "function"
    },
    {
      "inputs": [
        {
          "internalType": "uint256",
          "name": "_tokenId",
          "type": "uint256"
        },
        {
          "internalType": "address",
          "name": "_nftContractAddress",
          "type": "address"
        },
        {
          "internalType": "uint256",
          "name": "_bettingPrice",
          "type": "uint256"
        },
        {
          "internalType": "address",
          "name": "_beneficiaryAddress",
          "type": "address"
        }
      ],
      "name": "startLottery",
      "outputs": [
        {
          "internalType": "bytes4",
          "name": "",
          "type": "bytes4"
        }
      ],
      "stateMutability": "nonpayable",
      "type": "function"
    },
    {
      "inputs": [
        {
          "internalType": "address",
          "name": "newOwner",
          "type": "address"
        }
      ],
      "name": "transferOwnership",
      "outputs": [],
      "stateMutability": "nonpayable",
      "type": "function"
    }
  ],
  "bytecode": "0x60a0604052732ca8e0c643bde4c2e08ab1fa0da3401adad7734d600260006101000a81548173ffffffffffffffffffffffffffffffffffffffff021916908373ffffffffffffffffffffffffffffffffffffffff1602179055507f79d3d8832d904592c0bf9818b621522c988bb8b0c05cdc3b15aea1b6e8db0c1560001b600355620186a0600460006101000a81548163ffffffff021916908363ffffffff16021790555060036004806101000a81548161ffff021916908361ffff1602179055506002600460066101000a81548163ffffffff021916908363ffffffff160217905550348015620000f057600080fd5b506040516200239138038062002391833981810160405281019062000116919062000337565b600260009054906101000a900473ffffffffffffffffffffffffffffffffffffffff16620001596200014d6200022160201b60201c565b6200022960201b60201c565b8073ffffffffffffffffffffffffffffffffffffffff1660808173ffffffffffffffffffffffffffffffffffffffff168152505050600260009054906101000a900473ffffffffffffffffffffffffffffffffffffffff16600160006101000a81548173ffffffffffffffffffffffffffffffffffffffff021916908373ffffffffffffffffffffffffffffffffffffffff16021790555080600160146101000a81548167ffffffffffffffff021916908367ffffffffffffffff1602179055505062000369565b600033905090565b60008060009054906101000a900473ffffffffffffffffffffffffffffffffffffffff169050816000806101000a81548173ffffffffffffffffffffffffffffffffffffffff021916908373ffffffffffffffffffffffffffffffffffffffff1602179055508173ffffffffffffffffffffffffffffffffffffffff168173ffffffffffffffffffffffffffffffffffffffff167f8be0079c531659141344cd1fd0a4f28419497f9722a3daafe3b4186f6b6457e060405160405180910390a35050565b600080fd5b600067ffffffffffffffff82169050919050565b6200031181620002f2565b81146200031d57600080fd5b50565b600081519050620003318162000306565b92915050565b60006020828403121562000350576200034f620002ed565b5b6000620003608482850162000320565b91505092915050565b6080516120056200038c6000396000818161056201526105b601526120056000f3fe6080604052600436106100c15760003560e01c806382db4f191161007f578063e0c8628911610059578063e0c862891461025f578063e89e106a14610276578063f2fde38b146102a1578063f6eaffc8146102ca576100c1565b806382db4f19146101c75780638da5cb5b146101f057806392e845f61461021b576100c1565b806248dc11146100c6578063150b7a02146101035780631fe543e31461014057806367dd74ca146101695780636f9fb98a14610185578063715018a6146101b0575b600080fd5b3480156100d257600080fd5b506100ed60048036038101906100e89190611201565b610307565b6040516100fa91906112a3565b60405180910390f35b34801561010f57600080fd5b5061012a60048036038101906101259190611404565b61054c565b60405161013791906112a3565b60405180910390f35b34801561014c57600080fd5b506101676004803603810190610162919061154f565b610560565b005b610183600480360381019061017e91906115ab565b610620565b005b34801561019157600080fd5b5061019a6107db565b6040516101a791906115e7565b60405180910390f35b3480156101bc57600080fd5b506101c56107e3565b005b3480156101d357600080fd5b506101ee60048036038101906101e991906115ab565b6107f7565b005b3480156101fc57600080fd5b50610205610bd9565b6040516102129190611611565b60405180910390f35b34801561022757600080fd5b50610242600480360381019061023d91906115ab565b610c02565b604051610256989796959493929190611705565b60405180910390f35b34801561026b57600080fd5b50610274610da9565b005b34801561028257600080fd5b5061028b610eb8565b60405161029891906115e7565b60405180910390f35b3480156102ad57600080fd5b506102c860048036038101906102c3919061178a565b610ebe565b005b3480156102d657600080fd5b506102f160048036038101906102ec91906115ab565b610f42565b6040516102fe91906115e7565b60405180910390f35b600080831161034b576040517f08c379a00000000000000000000000000000000000000000000000000000000081526004016103429061183a565b60405180910390fd5b60008490508073ffffffffffffffffffffffffffffffffffffffff166342842e0e3330896040518463ffffffff1660e01b815260040161038d9392919061185a565b600060405180830381600087803b1580156103a757600080fd5b505af11580156103bb573d6000803e3d6000fd5b505050506000600860006103cf6007610f66565b81526020019081526020016000209050338160000160006101000a81548173ffffffffffffffffffffffffffffffffffffffff021916908373ffffffffffffffffffffffffffffffffffffffff160217905550868160010181905550858160020160006101000a81548173ffffffffffffffffffffffffffffffffffffffff021916908373ffffffffffffffffffffffffffffffffffffffff16021790555084816003018190555060018160040160006101000a81548160ff02191690831515021790555060008160060181905550838160070160006101000a81548173ffffffffffffffffffffffffffffffffffffffff021916908373ffffffffffffffffffffffffffffffffffffffff1602179055504281600901819055507f8f091eb0e0cdf901a8325af719fb5bffee6be7ce8c77a252855ca32be8c4c2f533888888600189426040516105269796959493929190611891565b60405180910390a16105386007610f74565b63150b7a0260e01b92505050949350505050565b600063150b7a0260e01b9050949350505050565b7f000000000000000000000000000000000000000000000000000000000000000073ffffffffffffffffffffffffffffffffffffffff163373ffffffffffffffffffffffffffffffffffffffff161461061257337f00000000000000000000000000000000000000000000000000000000000000006040517f1cf993f4000000000000000000000000000000000000000000000000000000008152600401610609929190611900565b60405180910390fd5b61061c8282610f8a565b5050565b61062a6007610f66565b811061066b576040517f08c379a00000000000000000000000000000000000000000000000000000000081526004016106629061199b565b60405180910390fd5b60006008600083815260200190815260200160002090508060040160009054906101000a900460ff166106d3576040517f08c379a00000000000000000000000000000000000000000000000000000000081526004016106ca90611a53565b60405180910390fd5b80600301543414610719576040517f08c379a000000000000000000000000000000000000000000000000000000000815260040161071090611ae5565b60405180910390fd5b80600501339080600181540180825580915050600190039060005260206000200160009091909190916101000a81548173ffffffffffffffffffffffffffffffffffffffff021916908373ffffffffffffffffffffffffffffffffffffffff160217905550806003015481600601546107929190611b34565b81600601819055507f2a3164428cba5dad15f5ffe47e10cbefdcbbe9e269fd482753982ee8b2648c3e3382600601546040516107cf929190611b8a565b60405180910390a15050565b600047905090565b6107eb610fa5565b6107f56000611023565b565b6108016007610f66565b8110610842576040517f08c379a00000000000000000000000000000000000000000000000000000000081526004016108399061199b565b60405180910390fd5b60006008600083815260200190815260200160002090508060040160009054906101000a900460ff166108aa576040517f08c379a00000000000000000000000000000000000000000000000000000000081526004016108a190611a53565b60405180910390fd5b6000816005018054905060056000815481106108c9576108c8611bb3565b5b90600052602060002001546108de9190611c11565b90508160050181815481106108f6576108f5611bb3565b5b9060005260206000200160009054906101000a900473ffffffffffffffffffffffffffffffffffffffff168260080160006101000a81548173ffffffffffffffffffffffffffffffffffffffff021916908373ffffffffffffffffffffffffffffffffffffffff16021790555060006064605084600601546109789190611c42565b6109829190611c9c565b905060008360080160009054906101000a900473ffffffffffffffffffffffffffffffffffffffff1673ffffffffffffffffffffffffffffffffffffffff16826040516109ce90611cfe565b60006040518083038185875af1925050503d8060008114610a0b576040519150601f19603f3d011682016040523d82523d6000602084013e610a10565b606091505b5050905080610a54576040517f08c379a0000000000000000000000000000000000000000000000000000000008152600401610a4b90611d5f565b60405180910390fd5b60008460020160009054906101000a900473ffffffffffffffffffffffffffffffffffffffff1690508073ffffffffffffffffffffffffffffffffffffffff166342842e0e308760080160009054906101000a900473ffffffffffffffffffffffffffffffffffffffff1688600101546040518463ffffffff1660e01b8152600401610ae29392919061185a565b600060405180830381600087803b158015610afc57600080fd5b505af1158015610b10573d6000803e3d6000fd5b5050505060008560040160006101000a81548160ff021916908315150217905550600085600601819055507ffac10e0739a467d8ae8f83bd7449aaf94a4d1b2076220adb6c493bde41875c7d8560080160009054906101000a900473ffffffffffffffffffffffffffffffffffffffff168660040160009054906101000a900460ff168760020160009054906101000a900473ffffffffffffffffffffffffffffffffffffffff1686604051610bc99493929190611d7f565b60405180910390a1505050505050565b60008060009054906101000a900473ffffffffffffffffffffffffffffffffffffffff16905090565b60008060008060606000806000610c196007610f66565b8910610c5a576040517f08c379a0000000000000000000000000000000000000000000000000000000008152600401610c519061199b565b60405180910390fd5b6000600860008b815260200190815260200160002090508060000160009054906101000a900473ffffffffffffffffffffffffffffffffffffffff168160020160009054906101000a900473ffffffffffffffffffffffffffffffffffffffff1682600301548360040160009054906101000a900460ff168460050185600601548660080160009054906101000a900473ffffffffffffffffffffffffffffffffffffffff16876009015483805480602002602001604051908101604052809291908181526020018280548015610d8657602002820191906000526020600020905b8160009054906101000a900473ffffffffffffffffffffffffffffffffffffffff1673ffffffffffffffffffffffffffffffffffffffff1681526020019060010190808311610d3c575b505050505093509850985098509850985098509850985050919395975091939597565b610db1610fa5565b600160009054906101000a900473ffffffffffffffffffffffffffffffffffffffff1673ffffffffffffffffffffffffffffffffffffffff16635d3b1d30600354600160149054906101000a900467ffffffffffffffff1660048054906101000a900461ffff16600460009054906101000a900463ffffffff16600460069054906101000a900463ffffffff166040518663ffffffff1660e01b8152600401610e5e959493929190611e3c565b602060405180830381600087803b158015610e7857600080fd5b505af1158015610e8c573d6000803e3d6000fd5b505050506040513d601f19601f82011682018060405250810190610eb09190611ea4565b600681905550565b60065481565b610ec6610fa5565b600073ffffffffffffffffffffffffffffffffffffffff168173ffffffffffffffffffffffffffffffffffffffff161415610f36576040517f08c379a0000000000000000000000000000000000000000000000000000000008152600401610f2d90611f43565b60405180910390fd5b610f3f81611023565b50565b60058181548110610f5257600080fd5b906000526020600020016000915090505481565b600081600001549050919050565b6001816000016000828254019250508190555050565b8060059080519060200190610fa09291906110ef565b505050565b610fad6110e7565b73ffffffffffffffffffffffffffffffffffffffff16610fcb610bd9565b73ffffffffffffffffffffffffffffffffffffffff1614611021576040517f08c379a000000000000000000000000000000000000000000000000000000000815260040161101890611faf565b60405180910390fd5b565b60008060009054906101000a900473ffffffffffffffffffffffffffffffffffffffff169050816000806101000a81548173ffffffffffffffffffffffffffffffffffffffff021916908373ffffffffffffffffffffffffffffffffffffffff1602179055508173ffffffffffffffffffffffffffffffffffffffff168173ffffffffffffffffffffffffffffffffffffffff167f8be0079c531659141344cd1fd0a4f28419497f9722a3daafe3b4186f6b6457e060405160405180910390a35050565b600033905090565b82805482825590600052602060002090810192821561112b579160200282015b8281111561112a57825182559160200191906001019061110f565b5b509050611138919061113c565b5090565b5b8082111561115557600081600090555060010161113d565b5090565b6000604051905090565b600080fd5b600080fd5b6000819050919050565b6111808161116d565b811461118b57600080fd5b50565b60008135905061119d81611177565b92915050565b600073ffffffffffffffffffffffffffffffffffffffff82169050919050565b60006111ce826111a3565b9050919050565b6111de816111c3565b81146111e957600080fd5b50565b6000813590506111fb816111d5565b92915050565b6000806000806080858703121561121b5761121a611163565b5b60006112298782880161118e565b945050602061123a878288016111ec565b935050604061124b8782880161118e565b925050606061125c878288016111ec565b91505092959194509250565b60007fffffffff0000000000000000000000000000000000000000000000000000000082169050919050565b61129d81611268565b82525050565b60006020820190506112b86000830184611294565b92915050565b600080fd5b600080fd5b6000601f19601f8301169050919050565b7f4e487b7100000000000000000000000000000000000000000000000000000000600052604160045260246000fd5b611311826112c8565b810181811067ffffffffffffffff821117156113305761132f6112d9565b5b80604052505050565b6000611343611159565b905061134f8282611308565b919050565b600067ffffffffffffffff82111561136f5761136e6112d9565b5b611378826112c8565b9050602081019050919050565b82818337600083830152505050565b60006113a76113a284611354565b611339565b9050828152602081018484840111156113c3576113c26112c3565b5b6113ce848285611385565b509392505050565b600082601f8301126113eb576113ea6112be565b5b81356113fb848260208601611394565b91505092915050565b6000806000806080858703121561141e5761141d611163565b5b600061142c878288016111ec565b945050602061143d878288016111ec565b935050604061144e8782880161118e565b925050606085013567ffffffffffffffff81111561146f5761146e611168565b5b61147b878288016113d6565b91505092959194509250565b600067ffffffffffffffff8211156114a2576114a16112d9565b5b602082029050602081019050919050565b600080fd5b60006114cb6114c684611487565b611339565b905080838252602082019050602084028301858111156114ee576114ed6114b3565b5b835b818110156115175780611503888261118e565b8452602084019350506020810190506114f0565b5050509392505050565b600082601f830112611536576115356112be565b5b81356115468482602086016114b8565b91505092915050565b6000806040838503121561156657611565611163565b5b60006115748582860161118e565b925050602083013567ffffffffffffffff81111561159557611594611168565b5b6115a185828601611521565b9150509250929050565b6000602082840312156115c1576115c0611163565b5b60006115cf8482850161118e565b91505092915050565b6115e18161116d565b82525050565b60006020820190506115fc60008301846115d8565b92915050565b61160b816111c3565b82525050565b60006020820190506116266000830184611602565b92915050565b60008115159050919050565b6116418161162c565b82525050565b600081519050919050565b600082825260208201905092915050565b6000819050602082019050919050565b61167c816111c3565b82525050565b600061168e8383611673565b60208301905092915050565b6000602082019050919050565b60006116b282611647565b6116bc8185611652565b93506116c783611663565b8060005b838110156116f85781516116df8882611682565b97506116ea8361169a565b9250506001810190506116cb565b5085935050505092915050565b60006101008201905061171b600083018b611602565b611728602083018a611602565b61173560408301896115d8565b6117426060830188611638565b818103608083015261175481876116a7565b905061176360a08301866115d8565b61177060c0830185611602565b61177d60e08301846115d8565b9998505050505050505050565b6000602082840312156117a05761179f611163565b5b60006117ae848285016111ec565b91505092915050565b600082825260208201905092915050565b7f42657474696e672070726963652073686f756c6420626520677265617465722060008201527f7468616e207a65726f2e00000000000000000000000000000000000000000000602082015250565b6000611824602a836117b7565b915061182f826117c8565b604082019050919050565b6000602082019050818103600083015261185381611817565b9050919050565b600060608201905061186f6000830186611602565b61187c6020830185611602565b61188960408301846115d8565b949350505050565b600060e0820190506118a6600083018a611602565b6118b360208301896115d8565b6118c06040830188611602565b6118cd60608301876115d8565b6118da6080830186611638565b6118e760a0830185611602565b6118f460c08301846115d8565b98975050505050505050565b60006040820190506119156000830185611602565b6119226020830184611602565b9392505050565b7f546865206c6f747465727920496420676976656e20646f6573206e6f7420636f60008201527f72726573706f6e6420746f20616e206578697374696e67206c6f74746572792e602082015250565b60006119856040836117b7565b915061199082611929565b604082019050919050565b600060208201905081810360008301526119b481611978565b9050919050565b7f546865206c6f747465727920496420676976656e20636f72726573706f6e647360008201527f20746f2061206c6f747465727920746861742068617320616c7265616479206560208201527f6e6465642e000000000000000000000000000000000000000000000000000000604082015250565b6000611a3d6045836117b7565b9150611a48826119bb565b606082019050919050565b60006020820190508181036000830152611a6c81611a30565b9050919050565b7f546f2070617274696369706174652c20706c656173652061646420746865207260008201527f6571756972656420616d6f756e742e0000000000000000000000000000000000602082015250565b6000611acf602f836117b7565b9150611ada82611a73565b604082019050919050565b60006020820190508181036000830152611afe81611ac2565b9050919050565b7f4e487b7100000000000000000000000000000000000000000000000000000000600052601160045260246000fd5b6000611b3f8261116d565b9150611b4a8361116d565b9250827fffffffffffffffffffffffffffffffffffffffffffffffffffffffffffffffff03821115611b7f57611b7e611b05565b5b828201905092915050565b6000604082019050611b9f6000830185611602565b611bac60208301846115d8565b9392505050565b7f4e487b7100000000000000000000000000000000000000000000000000000000600052603260045260246000fd5b7f4e487b7100000000000000000000000000000000000000000000000000000000600052601260045260246000fd5b6000611c1c8261116d565b9150611c278361116d565b925082611c3757611c36611be2565b5b828206905092915050565b6000611c4d8261116d565b9150611c588361116d565b9250817fffffffffffffffffffffffffffffffffffffffffffffffffffffffffffffffff0483118215151615611c9157611c90611b05565b5b828202905092915050565b6000611ca78261116d565b9150611cb28361116d565b925082611cc257611cc1611be2565b5b828204905092915050565b600081905092915050565b50565b6000611ce8600083611ccd565b9150611cf382611cd8565b600082019050919050565b6000611d0982611cdb565b9150819050919050565b7f6661696c65640000000000000000000000000000000000000000000000000000600082015250565b6000611d496006836117b7565b9150611d5482611d13565b602082019050919050565b60006020820190508181036000830152611d7881611d3c565b9050919050565b6000608082019050611d946000830187611602565b611da16020830186611638565b611dae6040830185611602565b611dbb60608301846115d8565b95945050505050565b6000819050919050565b611dd781611dc4565b82525050565b600067ffffffffffffffff82169050919050565b611dfa81611ddd565b82525050565b600061ffff82169050919050565b611e1781611e00565b82525050565b600063ffffffff82169050919050565b611e3681611e1d565b82525050565b600060a082019050611e516000830188611dce565b611e5e6020830187611df1565b611e6b6040830186611e0e565b611e786060830185611e2d565b611e856080830184611e2d565b9695505050505050565b600081519050611e9e81611177565b92915050565b600060208284031215611eba57611eb9611163565b5b6000611ec884828501611e8f565b91505092915050565b7f4f776e61626c653a206e6577206f776e657220697320746865207a65726f206160008201527f6464726573730000000000000000000000000000000000000000000000000000602082015250565b6000611f2d6026836117b7565b9150611f3882611ed1565b604082019050919050565b60006020820190508181036000830152611f5c81611f20565b9050919050565b7f4f776e61626c653a2063616c6c6572206973206e6f7420746865206f776e6572600082015250565b6000611f996020836117b7565b9150611fa482611f63565b602082019050919050565b60006020820190508181036000830152611fc881611f8c565b905091905056fea2646970667358221220504457a9ff905905474b3fc6757ef5ad88b6b3cf4a92c00a822dd5a1a39e435f64736f6c63430008090033",
  "linkReferences": {},
  "deployedLinkReferences": {}
}