{
  "_format": "hh-sol-artifact-1",
  "contractName": "Lottery",
  "sourceName": "contracts/Lottery.sol",
  "abi": [
    {
      "inputs": [
        {
          "internalType": "uint64",
          "name": "subscriptionId",
          "type": "uint64"
        }
      ],
      "stateMutability": "nonpayable",
      "type": "constructor"
    },
    {
      "inputs": [
        {
          "internalType": "address",
          "name": "have",
          "type": "address"
        },
        {
          "internalType": "address",
          "name": "want",
          "type": "address"
        }
      ],
      "name": "OnlyCoordinatorCanFulfill",
      "type": "error"
    },
    {
      "anonymous": false,
      "inputs": [
        {
          "indexed": false,
          "internalType": "address",
          "name": "player",
          "type": "address"
        },
        {
          "indexed": false,
          "internalType": "uint256",
          "name": "lotteryBalance",
          "type": "uint256"
        }
      ],
      "name": "BuyTicket",
      "type": "event"
    },
    {
      "anonymous": false,
      "inputs": [
        {
          "indexed": true,
          "internalType": "address",
          "name": "previousOwner",
          "type": "address"
        },
        {
          "indexed": true,
          "internalType": "address",
          "name": "newOwner",
          "type": "address"
        }
      ],
      "name": "OwnershipTransferred",
      "type": "event"
    },
    {
      "anonymous": false,
      "inputs": [
        {
          "indexed": false,
          "internalType": "address",
          "name": "currentWinner",
          "type": "address"
        },
        {
          "indexed": false,
          "internalType": "uint256",
          "name": "awardBalance",
          "type": "uint256"
        }
      ],
      "name": "PickTheWinner",
      "type": "event"
    },
    {
      "inputs": [],
      "name": "buyTicket",
      "outputs": [],
      "stateMutability": "payable",
      "type": "function"
    },
    {
      "inputs": [],
      "name": "getContractBalance",
      "outputs": [
        {
          "internalType": "uint256",
          "name": "",
          "type": "uint256"
        }
      ],
      "stateMutability": "view",
      "type": "function"
    },
    {
      "inputs": [],
      "name": "getCurrentWinner",
      "outputs": [
        {
          "internalType": "address",
          "name": "",
          "type": "address"
        }
      ],
      "stateMutability": "view",
      "type": "function"
    },
    {
      "inputs": [
        {
          "internalType": "uint256",
          "name": "_lotteryId",
          "type": "uint256"
        }
      ],
      "name": "getHistoryWinner",
      "outputs": [
        {
          "internalType": "address",
          "name": "",
          "type": "address"
        }
      ],
      "stateMutability": "view",
      "type": "function"
    },
    {
      "inputs": [],
      "name": "getLotteryBalance",
      "outputs": [
        {
          "internalType": "uint256",
          "name": "",
          "type": "uint256"
        }
      ],
      "stateMutability": "view",
      "type": "function"
    },
    {
      "inputs": [
        {
          "internalType": "address",
          "name": "",
          "type": "address"
        },
        {
          "internalType": "address",
          "name": "",
          "type": "address"
        },
        {
          "internalType": "uint256",
          "name": "",
          "type": "uint256"
        },
        {
          "internalType": "bytes",
          "name": "",
          "type": "bytes"
        }
      ],
      "name": "onERC721Received",
      "outputs": [
        {
          "internalType": "bytes4",
          "name": "",
          "type": "bytes4"
        }
      ],
      "stateMutability": "nonpayable",
      "type": "function"
    },
    {
      "inputs": [],
      "name": "owner",
      "outputs": [
        {
          "internalType": "address",
          "name": "",
          "type": "address"
        }
      ],
      "stateMutability": "view",
      "type": "function"
    },
    {
      "inputs": [],
      "name": "pickTheWinner",
      "outputs": [],
      "stateMutability": "nonpayable",
      "type": "function"
    },
    {
      "inputs": [
        {
          "internalType": "uint256",
          "name": "",
          "type": "uint256"
        }
      ],
      "name": "players",
      "outputs": [
        {
          "internalType": "address payable",
          "name": "",
          "type": "address"
        }
      ],
      "stateMutability": "view",
      "type": "function"
    },
    {
      "inputs": [
        {
          "internalType": "uint256",
          "name": "requestId",
          "type": "uint256"
        },
        {
          "internalType": "uint256[]",
          "name": "randomWords",
          "type": "uint256[]"
        }
      ],
      "name": "rawFulfillRandomWords",
      "outputs": [],
      "stateMutability": "nonpayable",
      "type": "function"
    },
    {
      "inputs": [],
      "name": "renounceOwnership",
      "outputs": [],
      "stateMutability": "nonpayable",
      "type": "function"
    },
    {
      "inputs": [],
      "name": "requestRandomWords",
      "outputs": [],
      "stateMutability": "nonpayable",
      "type": "function"
    },
    {
      "inputs": [
        {
          "internalType": "uint256",
          "name": "",
          "type": "uint256"
        }
      ],
      "name": "s_randomWords",
      "outputs": [
        {
          "internalType": "uint256",
          "name": "",
          "type": "uint256"
        }
      ],
      "stateMutability": "view",
      "type": "function"
    },
    {
      "inputs": [],
      "name": "s_requestId",
      "outputs": [
        {
          "internalType": "uint256",
          "name": "",
          "type": "uint256"
        }
      ],
      "stateMutability": "view",
      "type": "function"
    },
    {
      "inputs": [
        {
          "internalType": "uint256",
          "name": "_tokenId",
          "type": "uint256"
        },
        {
          "internalType": "address",
          "name": "_nftContractAddress",
          "type": "address"
        }
      ],
      "name": "startLottery",
      "outputs": [
        {
          "internalType": "bytes4",
          "name": "",
          "type": "bytes4"
        }
      ],
      "stateMutability": "nonpayable",
      "type": "function"
    },
    {
      "inputs": [
        {
          "internalType": "address",
          "name": "newOwner",
          "type": "address"
        }
      ],
      "name": "transferOwnership",
      "outputs": [],
      "stateMutability": "nonpayable",
      "type": "function"
    }
  ],
  "bytecode": "0x60a0604052732ca8e0c643bde4c2e08ab1fa0da3401adad7734d600260006101000a81548173ffffffffffffffffffffffffffffffffffffffff021916908373ffffffffffffffffffffffffffffffffffffffff1602179055507f79d3d8832d904592c0bf9818b621522c988bb8b0c05cdc3b15aea1b6e8db0c1560001b600355620186a0600460006101000a81548163ffffffff021916908363ffffffff16021790555060036004806101000a81548161ffff021916908361ffff1602179055506002600460066101000a81548163ffffffff021916908363ffffffff160217905550348015620000f057600080fd5b5060405162001db738038062001db783398181016040528101906200011691906200034e565b600260009054906101000a900473ffffffffffffffffffffffffffffffffffffffff16620001596200014d6200023860201b60201c565b6200024060201b60201c565b8073ffffffffffffffffffffffffffffffffffffffff1660808173ffffffffffffffffffffffffffffffffffffffff168152505050600260009054906101000a900473ffffffffffffffffffffffffffffffffffffffff16600160006101000a81548173ffffffffffffffffffffffffffffffffffffffff021916908373ffffffffffffffffffffffffffffffffffffffff16021790555080600160146101000a81548167ffffffffffffffff021916908367ffffffffffffffff160217905550600060098190555067016345785d8a00006008819055505062000380565b600033905090565b60008060009054906101000a900473ffffffffffffffffffffffffffffffffffffffff169050816000806101000a81548173ffffffffffffffffffffffffffffffffffffffff021916908373ffffffffffffffffffffffffffffffffffffffff1602179055508173ffffffffffffffffffffffffffffffffffffffff168173ffffffffffffffffffffffffffffffffffffffff167f8be0079c531659141344cd1fd0a4f28419497f9722a3daafe3b4186f6b6457e060405160405180910390a35050565b600080fd5b600067ffffffffffffffff82169050919050565b620003288162000309565b81146200033457600080fd5b50565b60008151905062000348816200031d565b92915050565b60006020828403121562000367576200036662000304565b5b6000620003778482850162000337565b91505092915050565b608051611a14620003a3600039600081816103b7015261040b0152611a146000f3fe6080604052600436106100f35760003560e01c8063bc3ce0d61161008a578063f2fde38b11610059578063f2fde38b146102e7578063f6eaffc814610310578063f71d96cb1461034d578063f7defe8c1461038a576100f3565b8063bc3ce0d61461025e578063e0c862891461029b578063e89e106a146102b2578063edca914c146102dd576100f3565b80636f9fb98a116100c65780636f9fb98a146101b4578063711cfaa3146101df578063715018a61461021c5780638da5cb5b14610233576100f3565b8063150b7a02146100f85780631fe543e314610135578063329bfc331461015e57806360654e4714610189575b600080fd5b34801561010457600080fd5b5061011f600480360381019061011a9190611081565b6103a1565b60405161012c919061113f565b60405180910390f35b34801561014157600080fd5b5061015c60048036038101906101579190611222565b6103b5565b005b34801561016a57600080fd5b50610173610475565b604051610180919061128d565b60405180910390f35b34801561019557600080fd5b5061019e61049f565b6040516101ab91906112b7565b60405180910390f35b3480156101c057600080fd5b506101c96104a9565b6040516101d691906112b7565b60405180910390f35b3480156101eb57600080fd5b50610206600480360381019061020191906112d2565b6104b1565b604051610213919061128d565b60405180910390f35b34801561022857600080fd5b506102316104ee565b005b34801561023f57600080fd5b50610248610502565b604051610255919061128d565b60405180910390f35b34801561026a57600080fd5b50610285600480360381019061028091906112ff565b61052b565b604051610292919061113f565b60405180910390f35b3480156102a757600080fd5b506102b06105bb565b005b3480156102be57600080fd5b506102c76106ca565b6040516102d491906112b7565b60405180910390f35b6102e56106d0565b005b3480156102f357600080fd5b5061030e6004803603810190610309919061133f565b6107ca565b005b34801561031c57600080fd5b50610337600480360381019061033291906112d2565b61084e565b60405161034491906112b7565b60405180910390f35b34801561035957600080fd5b50610374600480360381019061036f91906112d2565b610872565b604051610381919061138d565b60405180910390f35b34801561039657600080fd5b5061039f6108b1565b005b600063150b7a0260e01b9050949350505050565b7f000000000000000000000000000000000000000000000000000000000000000073ffffffffffffffffffffffffffffffffffffffff163373ffffffffffffffffffffffffffffffffffffffff161461046757337f00000000000000000000000000000000000000000000000000000000000000006040517f1cf993f400000000000000000000000000000000000000000000000000000000815260040161045e9291906113a8565b60405180910390fd5b6104718282610b62565b5050565b6000600a60009054906101000a900473ffffffffffffffffffffffffffffffffffffffff16905090565b6000600954905090565b600047905090565b6000600d600083815260200190815260200160002060009054906101000a900473ffffffffffffffffffffffffffffffffffffffff169050919050565b6104f6610b7d565b6105006000610bfb565b565b60008060009054906101000a900473ffffffffffffffffffffffffffffffffffffffff16905090565b6000808290508073ffffffffffffffffffffffffffffffffffffffff166342842e0e3330876040518463ffffffff1660e01b815260040161056e939291906113d1565b600060405180830381600087803b15801561058857600080fd5b505af115801561059c573d6000803e3d6000fd5b505050506105aa600c610cbf565b63150b7a0260e01b91505092915050565b6105c3610b7d565b600160009054906101000a900473ffffffffffffffffffffffffffffffffffffffff1673ffffffffffffffffffffffffffffffffffffffff16635d3b1d30600354600160149054906101000a900467ffffffffffffffff1660048054906101000a900461ffff16600460009054906101000a900463ffffffff16600460069054906101000a900463ffffffff166040518663ffffffff1660e01b8152600401610670959493929190611480565b602060405180830381600087803b15801561068a57600080fd5b505af115801561069e573d6000803e3d6000fd5b505050506040513d601f19601f820116820180604052508101906106c291906114e8565b600681905550565b60065481565b6008543414610714576040517f08c379a000000000000000000000000000000000000000000000000000000000815260040161070b906115be565b60405180910390fd5b6007339080600181540180825580915050600190039060005260206000200160009091909190916101000a81548173ffffffffffffffffffffffffffffffffffffffff021916908373ffffffffffffffffffffffffffffffffffffffff160217905550600854600954610787919061160d565b6009819055507f2a3164428cba5dad15f5ffe47e10cbefdcbbe9e269fd482753982ee8b2648c3e336009546040516107c0929190611663565b60405180910390a1565b6107d2610b7d565b600073ffffffffffffffffffffffffffffffffffffffff168173ffffffffffffffffffffffffffffffffffffffff161415610842576040517f08c379a0000000000000000000000000000000000000000000000000000000008152600401610839906116fe565b60405180910390fd5b61084b81610bfb565b50565b6005818154811061085e57600080fd5b906000526020600020016000915090505481565b6007818154811061088257600080fd5b906000526020600020016000915054906101000a900473ffffffffffffffffffffffffffffffffffffffff1681565b6108b9610b7d565b600060078054905060056000815481106108d6576108d561171e565b5b90600052602060002001546108eb919061177c565b90506108f681610cd5565b6007818154811061090a5761090961171e565b5b9060005260206000200160009054906101000a900473ffffffffffffffffffffffffffffffffffffffff16600a60006101000a81548173ffffffffffffffffffffffffffffffffffffffff021916908373ffffffffffffffffffffffffffffffffffffffff16021790555060006064605060095461098891906117ad565b6109929190611807565b90506000600783815481106109aa576109a961171e565b5b9060005260206000200160009054906101000a900473ffffffffffffffffffffffffffffffffffffffff1673ffffffffffffffffffffffffffffffffffffffff16826040516109f890611869565b60006040518083038185875af1925050503d8060008114610a35576040519150601f19603f3d011682016040523d82523d6000602084013e610a3a565b606091505b5050905080610a7e576040517f08c379a0000000000000000000000000000000000000000000000000000000008152600401610a75906118ca565b60405180910390fd5b7fd5763bfc7bc321b84083b20a86d88a7e25850ff47f056c77a2caee43e729fd9860078481548110610ab357610ab261171e565b5b9060005260206000200160009054906101000a900473ffffffffffffffffffffffffffffffffffffffff1683604051610aed929190611949565b60405180910390a16000600981905550600067ffffffffffffffff811115610b1857610b17610f56565b5b604051908082528060200260200182016040528015610b465781602001602082028036833780820191505090505b5060079080519060200190610b5c929190610d9f565b50505050565b8060059080519060200190610b78929190610e29565b505050565b610b85610d6e565b73ffffffffffffffffffffffffffffffffffffffff16610ba3610502565b73ffffffffffffffffffffffffffffffffffffffff1614610bf9576040517f08c379a0000000000000000000000000000000000000000000000000000000008152600401610bf0906119be565b60405180910390fd5b565b60008060009054906101000a900473ffffffffffffffffffffffffffffffffffffffff169050816000806101000a81548173ffffffffffffffffffffffffffffffffffffffff021916908373ffffffffffffffffffffffffffffffffffffffff1602179055508173ffffffffffffffffffffffffffffffffffffffff168173ffffffffffffffffffffffffffffffffffffffff167f8be0079c531659141344cd1fd0a4f28419497f9722a3daafe3b4186f6b6457e060405160405180910390a35050565b6001816000016000828254019250508190555050565b610d6b81604051602401610ce991906112b7565b6040516020818303038152906040527ff82c50f1000000000000000000000000000000000000000000000000000000007bffffffffffffffffffffffffffffffffffffffffffffffffffffffff19166020820180517bffffffffffffffffffffffffffffffffffffffffffffffffffffffff8381831617835250505050610d76565b50565b600033905090565b60008151905060006a636f6e736f6c652e6c6f679050602083016000808483855afa5050505050565b828054828255906000526020600020908101928215610e18579160200282015b82811115610e175782518260006101000a81548173ffffffffffffffffffffffffffffffffffffffff021916908373ffffffffffffffffffffffffffffffffffffffff16021790555091602001919060010190610dbf565b5b509050610e259190610e76565b5090565b828054828255906000526020600020908101928215610e65579160200282015b82811115610e64578251825591602001919060010190610e49565b5b509050610e729190610e76565b5090565b5b80821115610e8f576000816000905550600101610e77565b5090565b6000604051905090565b600080fd5b600080fd5b600073ffffffffffffffffffffffffffffffffffffffff82169050919050565b6000610ed282610ea7565b9050919050565b610ee281610ec7565b8114610eed57600080fd5b50565b600081359050610eff81610ed9565b92915050565b6000819050919050565b610f1881610f05565b8114610f2357600080fd5b50565b600081359050610f3581610f0f565b92915050565b600080fd5b600080fd5b6000601f19601f8301169050919050565b7f4e487b7100000000000000000000000000000000000000000000000000000000600052604160045260246000fd5b610f8e82610f45565b810181811067ffffffffffffffff82111715610fad57610fac610f56565b5b80604052505050565b6000610fc0610e93565b9050610fcc8282610f85565b919050565b600067ffffffffffffffff821115610fec57610feb610f56565b5b610ff582610f45565b9050602081019050919050565b82818337600083830152505050565b600061102461101f84610fd1565b610fb6565b9050828152602081018484840111156110405761103f610f40565b5b61104b848285611002565b509392505050565b600082601f83011261106857611067610f3b565b5b8135611078848260208601611011565b91505092915050565b6000806000806080858703121561109b5761109a610e9d565b5b60006110a987828801610ef0565b94505060206110ba87828801610ef0565b93505060406110cb87828801610f26565b925050606085013567ffffffffffffffff8111156110ec576110eb610ea2565b5b6110f887828801611053565b91505092959194509250565b60007fffffffff0000000000000000000000000000000000000000000000000000000082169050919050565b61113981611104565b82525050565b60006020820190506111546000830184611130565b92915050565b600067ffffffffffffffff82111561117557611174610f56565b5b602082029050602081019050919050565b600080fd5b600061119e6111998461115a565b610fb6565b905080838252602082019050602084028301858111156111c1576111c0611186565b5b835b818110156111ea57806111d68882610f26565b8452602084019350506020810190506111c3565b5050509392505050565b600082601f83011261120957611208610f3b565b5b813561121984826020860161118b565b91505092915050565b6000806040838503121561123957611238610e9d565b5b600061124785828601610f26565b925050602083013567ffffffffffffffff81111561126857611267610ea2565b5b611274858286016111f4565b9150509250929050565b61128781610ec7565b82525050565b60006020820190506112a2600083018461127e565b92915050565b6112b181610f05565b82525050565b60006020820190506112cc60008301846112a8565b92915050565b6000602082840312156112e8576112e7610e9d565b5b60006112f684828501610f26565b91505092915050565b6000806040838503121561131657611315610e9d565b5b600061132485828601610f26565b925050602061133585828601610ef0565b9150509250929050565b60006020828403121561135557611354610e9d565b5b600061136384828501610ef0565b91505092915050565b600061137782610ea7565b9050919050565b6113878161136c565b82525050565b60006020820190506113a2600083018461137e565b92915050565b60006040820190506113bd600083018561127e565b6113ca602083018461127e565b9392505050565b60006060820190506113e6600083018661127e565b6113f3602083018561127e565b61140060408301846112a8565b949350505050565b6000819050919050565b61141b81611408565b82525050565b600067ffffffffffffffff82169050919050565b61143e81611421565b82525050565b600061ffff82169050919050565b61145b81611444565b82525050565b600063ffffffff82169050919050565b61147a81611461565b82525050565b600060a0820190506114956000830188611412565b6114a26020830187611435565b6114af6040830186611452565b6114bc6060830185611471565b6114c96080830184611471565b9695505050505050565b6000815190506114e281610f0f565b92915050565b6000602082840312156114fe576114fd610e9d565b5b600061150c848285016114d3565b91505092915050565b600082825260208201905092915050565b7f546f2070617274696369706174652c20706c656173652066756e64207468652060008201527f61646472657373207769746820656e6f75676820657468657220746f2062757960208201527f20746865207469636b65742e0000000000000000000000000000000000000000604082015250565b60006115a8604c83611515565b91506115b382611526565b606082019050919050565b600060208201905081810360008301526115d78161159b565b9050919050565b7f4e487b7100000000000000000000000000000000000000000000000000000000600052601160045260246000fd5b600061161882610f05565b915061162383610f05565b9250827fffffffffffffffffffffffffffffffffffffffffffffffffffffffffffffffff03821115611658576116576115de565b5b828201905092915050565b6000604082019050611678600083018561127e565b61168560208301846112a8565b9392505050565b7f4f776e61626c653a206e6577206f776e657220697320746865207a65726f206160008201527f6464726573730000000000000000000000000000000000000000000000000000602082015250565b60006116e8602683611515565b91506116f38261168c565b604082019050919050565b60006020820190508181036000830152611717816116db565b9050919050565b7f4e487b7100000000000000000000000000000000000000000000000000000000600052603260045260246000fd5b7f4e487b7100000000000000000000000000000000000000000000000000000000600052601260045260246000fd5b600061178782610f05565b915061179283610f05565b9250826117a2576117a161174d565b5b828206905092915050565b60006117b882610f05565b91506117c383610f05565b9250817fffffffffffffffffffffffffffffffffffffffffffffffffffffffffffffffff04831182151516156117fc576117fb6115de565b5b828202905092915050565b600061181282610f05565b915061181d83610f05565b92508261182d5761182c61174d565b5b828204905092915050565b600081905092915050565b50565b6000611853600083611838565b915061185e82611843565b600082019050919050565b600061187482611846565b9150819050919050565b7f6661696c65640000000000000000000000000000000000000000000000000000600082015250565b60006118b4600683611515565b91506118bf8261187e565b602082019050919050565b600060208201905081810360008301526118e3816118a7565b9050919050565b6000819050919050565b600061190f61190a61190584610ea7565b6118ea565b610ea7565b9050919050565b6000611921826118f4565b9050919050565b600061193382611916565b9050919050565b61194381611928565b82525050565b600060408201905061195e600083018561193a565b61196b60208301846112a8565b9392505050565b7f4f776e61626c653a2063616c6c6572206973206e6f7420746865206f776e6572600082015250565b60006119a8602083611515565b91506119b382611972565b602082019050919050565b600060208201905081810360008301526119d78161199b565b905091905056fea264697066735822122079ad5c4200ac621055a52166456e512a296bf098eecf20925d7f09efd7884dcc64736f6c63430008090033",
  "linkReferences": {},
  "deployedLinkReferences": {}
}