{
  "_format": "hh-sol-artifact-1",
  "contractName": "Lottery",
  "sourceName": "contracts/Lottery.sol",
  "abi": [
    {
      "inputs": [
        {
          "internalType": "uint64",
          "name": "subscriptionId",
          "type": "uint64"
        }
      ],
      "stateMutability": "nonpayable",
      "type": "constructor"
    },
    {
      "inputs": [
        {
          "internalType": "address",
          "name": "have",
          "type": "address"
        },
        {
          "internalType": "address",
          "name": "want",
          "type": "address"
        }
      ],
      "name": "OnlyCoordinatorCanFulfill",
      "type": "error"
    },
    {
      "anonymous": false,
      "inputs": [
        {
          "indexed": false,
          "internalType": "address",
          "name": "player",
          "type": "address"
        },
        {
          "indexed": false,
          "internalType": "uint256",
          "name": "lotteryBalance",
          "type": "uint256"
        }
      ],
      "name": "BuyTicket",
      "type": "event"
    },
    {
      "anonymous": false,
      "inputs": [
        {
          "indexed": false,
          "internalType": "uint256",
          "name": "lotteryId",
          "type": "uint256"
        }
      ],
      "name": "EndLotteryEvent",
      "type": "event"
    },
    {
      "anonymous": false,
      "inputs": [
        {
          "indexed": true,
          "internalType": "address",
          "name": "previousOwner",
          "type": "address"
        },
        {
          "indexed": true,
          "internalType": "address",
          "name": "newOwner",
          "type": "address"
        }
      ],
      "name": "OwnershipTransferred",
      "type": "event"
    },
    {
      "anonymous": false,
      "inputs": [
        {
          "indexed": false,
          "internalType": "uint256",
          "name": "requestId",
          "type": "uint256"
        }
      ],
      "name": "PendingLotteriesWordsRequested",
      "type": "event"
    },
    {
      "anonymous": false,
      "inputs": [
        {
          "indexed": false,
          "internalType": "address",
          "name": "currentWinner",
          "type": "address"
        },
        {
          "indexed": false,
          "internalType": "bool",
          "name": "activeLottery",
          "type": "bool"
        },
        {
          "indexed": false,
          "internalType": "address",
          "name": "nftContractAddress",
          "type": "address"
        },
        {
          "indexed": false,
          "internalType": "uint256",
          "name": "awardBalance",
          "type": "uint256"
        }
      ],
      "name": "PickTheWinner",
      "type": "event"
    },
    {
      "anonymous": false,
      "inputs": [
        {
          "indexed": false,
          "internalType": "address",
          "name": "nftOwner",
          "type": "address"
        },
        {
          "indexed": false,
          "internalType": "uint256",
          "name": "nftTokenId",
          "type": "uint256"
        },
        {
          "indexed": false,
          "internalType": "address",
          "name": "nftContractAddress",
          "type": "address"
        },
        {
          "indexed": false,
          "internalType": "uint256",
          "name": "bettingPrice",
          "type": "uint256"
        },
        {
          "indexed": false,
          "internalType": "bool",
          "name": "activeLottery",
          "type": "bool"
        },
        {
          "indexed": false,
          "internalType": "address",
          "name": "beneficiaryAddress",
          "type": "address"
        },
        {
          "indexed": false,
          "internalType": "uint256",
          "name": "endDate",
          "type": "uint256"
        }
      ],
      "name": "SingleLottery",
      "type": "event"
    },
    {
      "inputs": [
        {
          "internalType": "uint256",
          "name": "_lotteryId",
          "type": "uint256"
        }
      ],
      "name": "buyTicket",
      "outputs": [],
      "stateMutability": "payable",
      "type": "function"
    },
    {
      "inputs": [
        {
          "internalType": "bytes",
          "name": "checkdata",
          "type": "bytes"
        }
      ],
      "name": "checkUpkeep",
      "outputs": [
        {
          "internalType": "bool",
          "name": "upkeepNeeded",
          "type": "bool"
        },
        {
          "internalType": "bytes",
          "name": "performData",
          "type": "bytes"
        }
      ],
      "stateMutability": "view",
      "type": "function"
    },
    {
      "inputs": [
        {
          "internalType": "uint256",
          "name": "_lotteryId",
          "type": "uint256"
        },
        {
          "internalType": "uint256",
          "name": "_winnerIndex",
          "type": "uint256"
        }
      ],
      "name": "endLottery",
      "outputs": [],
      "stateMutability": "nonpayable",
      "type": "function"
    },
    {
      "inputs": [],
      "name": "getContractBalance",
      "outputs": [
        {
          "internalType": "uint256",
          "name": "",
          "type": "uint256"
        }
      ],
      "stateMutability": "view",
      "type": "function"
    },
    {
      "inputs": [
        {
          "internalType": "uint256",
          "name": "_lotteryId",
          "type": "uint256"
        }
      ],
      "name": "getLottery",
      "outputs": [
        {
          "internalType": "address",
          "name": "",
          "type": "address"
        },
        {
          "internalType": "address",
          "name": "",
          "type": "address"
        },
        {
          "internalType": "uint256",
          "name": "",
          "type": "uint256"
        },
        {
          "internalType": "bool",
          "name": "",
          "type": "bool"
        },
        {
          "internalType": "address[]",
          "name": "",
          "type": "address[]"
        },
        {
          "internalType": "uint256",
          "name": "",
          "type": "uint256"
        },
        {
          "internalType": "address",
          "name": "",
          "type": "address"
        },
        {
          "internalType": "uint256",
          "name": "",
          "type": "uint256"
        }
      ],
      "stateMutability": "view",
      "type": "function"
    },
    {
      "inputs": [
        {
          "internalType": "address",
          "name": "",
          "type": "address"
        },
        {
          "internalType": "address",
          "name": "",
          "type": "address"
        },
        {
          "internalType": "uint256",
          "name": "",
          "type": "uint256"
        },
        {
          "internalType": "bytes",
          "name": "",
          "type": "bytes"
        }
      ],
      "name": "onERC721Received",
      "outputs": [
        {
          "internalType": "bytes4",
          "name": "",
          "type": "bytes4"
        }
      ],
      "stateMutability": "nonpayable",
      "type": "function"
    },
    {
      "inputs": [],
      "name": "owner",
      "outputs": [
        {
          "internalType": "address",
          "name": "",
          "type": "address"
        }
      ],
      "stateMutability": "view",
      "type": "function"
    },
    {
      "inputs": [
        {
          "internalType": "bytes",
          "name": "",
          "type": "bytes"
        }
      ],
      "name": "performUpkeep",
      "outputs": [],
      "stateMutability": "nonpayable",
      "type": "function"
    },
    {
      "inputs": [
        {
          "internalType": "uint256",
          "name": "requestId",
          "type": "uint256"
        },
        {
          "internalType": "uint256[]",
          "name": "randomWords",
          "type": "uint256[]"
        }
      ],
      "name": "rawFulfillRandomWords",
      "outputs": [],
      "stateMutability": "nonpayable",
      "type": "function"
    },
    {
      "inputs": [],
      "name": "renounceOwnership",
      "outputs": [],
      "stateMutability": "nonpayable",
      "type": "function"
    },
    {
      "inputs": [],
      "name": "requestWordsPendingLotteries",
      "outputs": [
        {
          "internalType": "uint256",
          "name": "s_requestId",
          "type": "uint256"
        }
      ],
      "stateMutability": "nonpayable",
      "type": "function"
    },
    {
      "inputs": [],
      "name": "s_pendingLotteryEnd",
      "outputs": [
        {
          "internalType": "bool",
          "name": "",
          "type": "bool"
        }
      ],
      "stateMutability": "view",
      "type": "function"
    },
    {
      "inputs": [
        {
          "internalType": "uint256",
          "name": "",
          "type": "uint256"
        }
      ],
      "name": "s_randomWords",
      "outputs": [
        {
          "internalType": "uint256",
          "name": "",
          "type": "uint256"
        }
      ],
      "stateMutability": "view",
      "type": "function"
    },
    {
      "inputs": [
        {
          "internalType": "uint256",
          "name": "_tokenId",
          "type": "uint256"
        },
        {
          "internalType": "address",
          "name": "_nftContractAddress",
          "type": "address"
        },
        {
          "internalType": "uint256",
          "name": "_bettingPrice",
          "type": "uint256"
        },
        {
          "internalType": "address",
          "name": "_beneficiaryAddress",
          "type": "address"
        },
        {
          "internalType": "uint256",
          "name": "_endDate",
          "type": "uint256"
        }
      ],
      "name": "startLottery",
      "outputs": [
        {
          "internalType": "bytes4",
          "name": "",
          "type": "bytes4"
        }
      ],
      "stateMutability": "nonpayable",
      "type": "function"
    },
    {
      "inputs": [
        {
          "internalType": "address",
          "name": "newOwner",
          "type": "address"
        }
      ],
      "name": "transferOwnership",
      "outputs": [],
      "stateMutability": "nonpayable",
      "type": "function"
    }
  ],
  "bytecode": "0x60c06040523480156200001157600080fd5b50604051620027853803806200278583398181016040528101906200003791906200022f565b732ca8e0c643bde4c2e08ab1fa0da3401adad7734d6200006c620000606200011960201b60201c565b6200012160201b60201c565b8073ffffffffffffffffffffffffffffffffffffffff1660808173ffffffffffffffffffffffffffffffffffffffff168152505050732ca8e0c643bde4c2e08ab1fa0da3401adad7734d600160006101000a81548173ffffffffffffffffffffffffffffffffffffffff021916908373ffffffffffffffffffffffffffffffffffffffff1602179055508067ffffffffffffffff1660a08167ffffffffffffffff16815250505062000261565b600033905090565b60008060009054906101000a900473ffffffffffffffffffffffffffffffffffffffff169050816000806101000a81548173ffffffffffffffffffffffffffffffffffffffff021916908373ffffffffffffffffffffffffffffffffffffffff1602179055508173ffffffffffffffffffffffffffffffffffffffff168173ffffffffffffffffffffffffffffffffffffffff167f8be0079c531659141344cd1fd0a4f28419497f9722a3daafe3b4186f6b6457e060405160405180910390a35050565b600080fd5b600067ffffffffffffffff82169050919050565b6200020981620001ea565b81146200021557600080fd5b50565b6000815190506200022981620001fe565b92915050565b600060208284031215620002485762000247620001e5565b5b6000620002588482850162000218565b91505092915050565b60805160a0516124f76200028e6000396000610bb00152600081816103bf015261041301526124f76000f3fe6080604052600436106100e85760003560e01c806379f0c3df1161008a578063c89663ed11610059578063c89663ed146102ef578063e730d3361461031a578063f2fde38b14610343578063f6eaffc81461036c576100e8565b806379f0c3df146102185780638da5cb5b1461025557806392e845f614610280578063c5a4605a146102c4576100e8565b806367dd74ca116100c657806367dd74ca1461017c5780636e04ff0d146101985780636f9fb98a146101d6578063715018a614610201576100e8565b8063150b7a02146100ed5780631fe543e31461012a5780634585e33b14610153575b600080fd5b3480156100f957600080fd5b50610114600480360381019061010f919061159d565b6103a9565b604051610121919061165b565b60405180910390f35b34801561013657600080fd5b50610151600480360381019061014c919061173e565b6103bd565b005b34801561015f57600080fd5b5061017a600480360381019061017591906117f5565b61047d565b005b61019660048036038101906101919190611842565b61048a565b005b3480156101a457600080fd5b506101bf60048036038101906101ba91906117f5565b610645565b6040516101cd929190611912565b60405180910390f35b3480156101e257600080fd5b506101eb6106d6565b6040516101f89190611951565b60405180910390f35b34801561020d57600080fd5b506102166106de565b005b34801561022457600080fd5b5061023f600480360381019061023a919061196c565b6106f2565b60405161024c919061165b565b60405180910390f35b34801561026157600080fd5b5061026a61097a565b60405161027791906119f6565b60405180910390f35b34801561028c57600080fd5b506102a760048036038101906102a29190611842565b6109a3565b6040516102bb989796959493929190611acf565b60405180910390f35b3480156102d057600080fd5b506102d9610b4a565b6040516102e69190611951565b60405180910390f35b3480156102fb57600080fd5b50610304610ca0565b6040516103119190611b54565b60405180910390f35b34801561032657600080fd5b50610341600480360381019061033c9190611b6f565b610cb3565b005b34801561034f57600080fd5b5061036a60048036038101906103659190611baf565b611000565b005b34801561037857600080fd5b50610393600480360381019061038e9190611842565b611084565b6040516103a09190611951565b60405180910390f35b600063150b7a0260e01b9050949350505050565b7f000000000000000000000000000000000000000000000000000000000000000073ffffffffffffffffffffffffffffffffffffffff163373ffffffffffffffffffffffffffffffffffffffff161461046f57337f00000000000000000000000000000000000000000000000000000000000000006040517f1cf993f4000000000000000000000000000000000000000000000000000000008152600401610466929190611bdc565b60405180910390fd5b61047982826110a8565b5050565b610485610b4a565b505050565b61049460036111c0565b81106104d5576040517f08c379a00000000000000000000000000000000000000000000000000000000081526004016104cc90611c88565b60405180910390fd5b60006004600083815260200190815260200160002090508060040160009054906101000a900460ff1661053d576040517f08c379a000000000000000000000000000000000000000000000000000000000815260040161053490611d40565b60405180910390fd5b80600301543414610583576040517f08c379a000000000000000000000000000000000000000000000000000000000815260040161057a90611dd2565b60405180910390fd5b80600501339080600181540180825580915050600190039060005260206000200160009091909190916101000a81548173ffffffffffffffffffffffffffffffffffffffff021916908373ffffffffffffffffffffffffffffffffffffffff160217905550806003015481600601546105fc9190611e21565b81600601819055507f2a3164428cba5dad15f5ffe47e10cbefdcbbe9e269fd482753982ee8b2648c3e338260060154604051610639929190611e77565b60405180910390a15050565b6000606060005b61065660036111c0565b81101561068757610666816111ce565b156106745760019250610687565b808061067f90611ea0565b91505061064c565b5083838080601f016020809104026020016040519081016040528093929190818152602001838380828437600081840152601f19601f8201169050808301925050505050505090509250929050565b600047905090565b6106e661124f565b6106f060006112cd565b565b6000808411610736576040517f08c379a000000000000000000000000000000000000000000000000000000000815260040161072d90611f5b565b60405180910390fd5b428211610778576040517f08c379a000000000000000000000000000000000000000000000000000000000815260040161076f90611fed565b60405180910390fd5b60008590508073ffffffffffffffffffffffffffffffffffffffff166342842e0e33308a6040518463ffffffff1660e01b81526004016107ba9392919061200d565b600060405180830381600087803b1580156107d457600080fd5b505af11580156107e8573d6000803e3d6000fd5b505050506000600460006107fc60036111c0565b81526020019081526020016000209050338160000160006101000a81548173ffffffffffffffffffffffffffffffffffffffff021916908373ffffffffffffffffffffffffffffffffffffffff160217905550878160010181905550868160020160006101000a81548173ffffffffffffffffffffffffffffffffffffffff021916908373ffffffffffffffffffffffffffffffffffffffff16021790555085816003018190555060018160040160006101000a81548160ff02191690831515021790555060008160060181905550848160070160006101000a81548173ffffffffffffffffffffffffffffffffffffffff021916908373ffffffffffffffffffffffffffffffffffffffff1602179055508381600901819055507f8f091eb0e0cdf901a8325af719fb5bffee6be7ce8c77a252855ca32be8c4c2f53389898960018a8a6040516109539796959493929190612044565b60405180910390a16109656003611391565b63150b7a0260e01b9250505095945050505050565b60008060009054906101000a900473ffffffffffffffffffffffffffffffffffffffff16905090565b600080600080606060008060006109ba60036111c0565b89106109fb576040517f08c379a00000000000000000000000000000000000000000000000000000000081526004016109f290611c88565b60405180910390fd5b6000600460008b815260200190815260200160002090508060000160009054906101000a900473ffffffffffffffffffffffffffffffffffffffff168160020160009054906101000a900473ffffffffffffffffffffffffffffffffffffffff1682600301548360040160009054906101000a900460ff168460050185600601548660080160009054906101000a900473ffffffffffffffffffffffffffffffffffffffff16876009015483805480602002602001604051908101604052809291908181526020018280548015610b2757602002820191906000526020600020905b8160009054906101000a900473ffffffffffffffffffffffffffffffffffffffff1673ffffffffffffffffffffffffffffffffffffffff1681526020019060010190808311610add575b505050505093509850985098509850985098509850985050919395975091939597565b6000600160009054906101000a900473ffffffffffffffffffffffffffffffffffffffff1673ffffffffffffffffffffffffffffffffffffffff16635d3b1d307f79d3d8832d904592c0bf9818b621522c988bb8b0c05cdc3b15aea1b6e8db0c1560001b7f00000000000000000000000000000000000000000000000000000000000000006003620186a060016040518663ffffffff1660e01b8152600401610bf795949392919061212b565b602060405180830381600087803b158015610c1157600080fd5b505af1158015610c25573d6000803e3d6000fd5b505050506040513d601f19601f82011682018060405250810190610c499190612193565b90506001600060146101000a81548160ff0219169083151502179055507f4086bd1a4642868b523b32dd30da50e47fa52139cffe27b6b9dba005a3381cb981604051610c959190611951565b60405180910390a190565b600060149054906101000a900460ff1681565b610cbd60036111c0565b8210610cfe576040517f08c379a0000000000000000000000000000000000000000000000000000000008152600401610cf590611c88565b60405180910390fd5b60006004600084815260200190815260200160002090508060040160009054906101000a900460ff16610d66576040517f08c379a0000000000000000000000000000000000000000000000000000000008152600401610d5d90611d40565b60405180910390fd5b806005018281548110610d7c57610d7b6121c0565b5b9060005260206000200160009054906101000a900473ffffffffffffffffffffffffffffffffffffffff168160080160006101000a81548173ffffffffffffffffffffffffffffffffffffffff021916908373ffffffffffffffffffffffffffffffffffffffff1602179055506000606460508360060154610dfe91906121ef565b610e089190612278565b905060008260080160009054906101000a900473ffffffffffffffffffffffffffffffffffffffff1673ffffffffffffffffffffffffffffffffffffffff1682604051610e54906122da565b60006040518083038185875af1925050503d8060008114610e91576040519150601f19603f3d011682016040523d82523d6000602084013e610e96565b606091505b5050905080610eda576040517f08c379a0000000000000000000000000000000000000000000000000000000008152600401610ed19061233b565b60405180910390fd5b60008360020160009054906101000a900473ffffffffffffffffffffffffffffffffffffffff1690508073ffffffffffffffffffffffffffffffffffffffff166342842e0e308660080160009054906101000a900473ffffffffffffffffffffffffffffffffffffffff1687600101546040518463ffffffff1660e01b8152600401610f689392919061200d565b600060405180830381600087803b158015610f8257600080fd5b505af1158015610f96573d6000803e3d6000fd5b5050505060008460040160006101000a81548160ff021916908315150217905550600084600601819055507f3056e6a2c5f046f7a52808a2d667aa237021e443f84237f476e8ea63f7c3ba0186604051610ff09190611951565b60405180910390a1505050505050565b61100861124f565b600073ffffffffffffffffffffffffffffffffffffffff168173ffffffffffffffffffffffffffffffffffffffff161415611078576040517f08c379a000000000000000000000000000000000000000000000000000000000815260040161106f906123cd565b60405180910390fd5b611081816112cd565b50565b6002818154811061109457600080fd5b906000526020600020016000915090505481565b60005b6110b560036111c0565b8110156111a0576110c5816111ce565b1561118d5761118c816004600084815260200190815260200160002060050180549050846000815181106110fc576110fb6121c0565b5b602002602001015160046000868152602001908152602001600020600101546004600087815260200190815260200160002060020160009054906101000a900473ffffffffffffffffffffffffffffffffffffffff16604051602001611164939291906123ed565b6040516020818303038152906040528051906020012060001c6111879190612424565b610cb3565b5b808061119890611ea0565b9150506110ab565b506001600060146101000a81548160ff0219169083151502179055505050565b600081600001549050919050565b60008060149054906101000a900460ff16156111ed576000905061124a565b6004600083815260200190815260200160002060040160009054906101000a900460ff1661121e576000905061124a565b4260046000848152602001908152602001600020600901541115611245576000905061124a565b600190505b919050565b6112576113a7565b73ffffffffffffffffffffffffffffffffffffffff1661127561097a565b73ffffffffffffffffffffffffffffffffffffffff16146112cb576040517f08c379a00000000000000000000000000000000000000000000000000000000081526004016112c2906124a1565b60405180910390fd5b565b60008060009054906101000a900473ffffffffffffffffffffffffffffffffffffffff169050816000806101000a81548173ffffffffffffffffffffffffffffffffffffffff021916908373ffffffffffffffffffffffffffffffffffffffff1602179055508173ffffffffffffffffffffffffffffffffffffffff168173ffffffffffffffffffffffffffffffffffffffff167f8be0079c531659141344cd1fd0a4f28419497f9722a3daafe3b4186f6b6457e060405160405180910390a35050565b6001816000016000828254019250508190555050565b600033905090565b6000604051905090565b600080fd5b600080fd5b600073ffffffffffffffffffffffffffffffffffffffff82169050919050565b60006113ee826113c3565b9050919050565b6113fe816113e3565b811461140957600080fd5b50565b60008135905061141b816113f5565b92915050565b6000819050919050565b61143481611421565b811461143f57600080fd5b50565b6000813590506114518161142b565b92915050565b600080fd5b600080fd5b6000601f19601f8301169050919050565b7f4e487b7100000000000000000000000000000000000000000000000000000000600052604160045260246000fd5b6114aa82611461565b810181811067ffffffffffffffff821117156114c9576114c8611472565b5b80604052505050565b60006114dc6113af565b90506114e882826114a1565b919050565b600067ffffffffffffffff82111561150857611507611472565b5b61151182611461565b9050602081019050919050565b82818337600083830152505050565b600061154061153b846114ed565b6114d2565b90508281526020810184848401111561155c5761155b61145c565b5b61156784828561151e565b509392505050565b600082601f83011261158457611583611457565b5b813561159484826020860161152d565b91505092915050565b600080600080608085870312156115b7576115b66113b9565b5b60006115c58782880161140c565b94505060206115d68782880161140c565b93505060406115e787828801611442565b925050606085013567ffffffffffffffff811115611608576116076113be565b5b6116148782880161156f565b91505092959194509250565b60007fffffffff0000000000000000000000000000000000000000000000000000000082169050919050565b61165581611620565b82525050565b6000602082019050611670600083018461164c565b92915050565b600067ffffffffffffffff82111561169157611690611472565b5b602082029050602081019050919050565b600080fd5b60006116ba6116b584611676565b6114d2565b905080838252602082019050602084028301858111156116dd576116dc6116a2565b5b835b8181101561170657806116f28882611442565b8452602084019350506020810190506116df565b5050509392505050565b600082601f83011261172557611724611457565b5b81356117358482602086016116a7565b91505092915050565b60008060408385031215611755576117546113b9565b5b600061176385828601611442565b925050602083013567ffffffffffffffff811115611784576117836113be565b5b61179085828601611710565b9150509250929050565b600080fd5b60008083601f8401126117b5576117b4611457565b5b8235905067ffffffffffffffff8111156117d2576117d161179a565b5b6020830191508360018202830111156117ee576117ed6116a2565b5b9250929050565b6000806020838503121561180c5761180b6113b9565b5b600083013567ffffffffffffffff81111561182a576118296113be565b5b6118368582860161179f565b92509250509250929050565b600060208284031215611858576118576113b9565b5b600061186684828501611442565b91505092915050565b60008115159050919050565b6118848161186f565b82525050565b600081519050919050565b600082825260208201905092915050565b60005b838110156118c45780820151818401526020810190506118a9565b838111156118d3576000848401525b50505050565b60006118e48261188a565b6118ee8185611895565b93506118fe8185602086016118a6565b61190781611461565b840191505092915050565b6000604082019050611927600083018561187b565b818103602083015261193981846118d9565b90509392505050565b61194b81611421565b82525050565b60006020820190506119666000830184611942565b92915050565b600080600080600060a08688031215611988576119876113b9565b5b600061199688828901611442565b95505060206119a78882890161140c565b94505060406119b888828901611442565b93505060606119c98882890161140c565b92505060806119da88828901611442565b9150509295509295909350565b6119f0816113e3565b82525050565b6000602082019050611a0b60008301846119e7565b92915050565b600081519050919050565b600082825260208201905092915050565b6000819050602082019050919050565b611a46816113e3565b82525050565b6000611a588383611a3d565b60208301905092915050565b6000602082019050919050565b6000611a7c82611a11565b611a868185611a1c565b9350611a9183611a2d565b8060005b83811015611ac2578151611aa98882611a4c565b9750611ab483611a64565b925050600181019050611a95565b5085935050505092915050565b600061010082019050611ae5600083018b6119e7565b611af2602083018a6119e7565b611aff6040830189611942565b611b0c606083018861187b565b8181036080830152611b1e8187611a71565b9050611b2d60a0830186611942565b611b3a60c08301856119e7565b611b4760e0830184611942565b9998505050505050505050565b6000602082019050611b69600083018461187b565b92915050565b60008060408385031215611b8657611b856113b9565b5b6000611b9485828601611442565b9250506020611ba585828601611442565b9150509250929050565b600060208284031215611bc557611bc46113b9565b5b6000611bd38482850161140c565b91505092915050565b6000604082019050611bf160008301856119e7565b611bfe60208301846119e7565b9392505050565b600082825260208201905092915050565b7f546865206c6f747465727920496420676976656e20646f6573206e6f7420636f60008201527f72726573706f6e6420746f20616e206578697374696e67206c6f74746572792e602082015250565b6000611c72604083611c05565b9150611c7d82611c16565b604082019050919050565b60006020820190508181036000830152611ca181611c65565b9050919050565b7f546865206c6f747465727920496420676976656e20636f72726573706f6e647360008201527f20746f2061206c6f747465727920746861742068617320616c7265616479206560208201527f6e6465642e000000000000000000000000000000000000000000000000000000604082015250565b6000611d2a604583611c05565b9150611d3582611ca8565b606082019050919050565b60006020820190508181036000830152611d5981611d1d565b9050919050565b7f546f2070617274696369706174652c20706c656173652061646420746865207260008201527f6571756972656420616d6f756e742e0000000000000000000000000000000000602082015250565b6000611dbc602f83611c05565b9150611dc782611d60565b604082019050919050565b60006020820190508181036000830152611deb81611daf565b9050919050565b7f4e487b7100000000000000000000000000000000000000000000000000000000600052601160045260246000fd5b6000611e2c82611421565b9150611e3783611421565b9250827fffffffffffffffffffffffffffffffffffffffffffffffffffffffffffffffff03821115611e6c57611e6b611df2565b5b828201905092915050565b6000604082019050611e8c60008301856119e7565b611e996020830184611942565b9392505050565b6000611eab82611421565b91507fffffffffffffffffffffffffffffffffffffffffffffffffffffffffffffffff821415611ede57611edd611df2565b5b600182019050919050565b7f42657474696e672070726963652073686f756c6420626520677265617465722060008201527f7468616e207a65726f2e00000000000000000000000000000000000000000000602082015250565b6000611f45602a83611c05565b9150611f5082611ee9565b604082019050919050565b60006020820190508181036000830152611f7481611f38565b9050919050565b7f456e6420646174652073686f756c64206265206c61746572207468616e20746860008201527f652063757272656e742074696d657374616d7000000000000000000000000000602082015250565b6000611fd7603383611c05565b9150611fe282611f7b565b604082019050919050565b6000602082019050818103600083015261200681611fca565b9050919050565b600060608201905061202260008301866119e7565b61202f60208301856119e7565b61203c6040830184611942565b949350505050565b600060e082019050612059600083018a6119e7565b6120666020830189611942565b61207360408301886119e7565b6120806060830187611942565b61208d608083018661187b565b61209a60a08301856119e7565b6120a760c0830184611942565b98975050505050505050565b6000819050919050565b6120c6816120b3565b82525050565b600067ffffffffffffffff82169050919050565b6120e9816120cc565b82525050565b600061ffff82169050919050565b612106816120ef565b82525050565b600063ffffffff82169050919050565b6121258161210c565b82525050565b600060a08201905061214060008301886120bd565b61214d60208301876120e0565b61215a60408301866120fd565b612167606083018561211c565b612174608083018461211c565b9695505050505050565b60008151905061218d8161142b565b92915050565b6000602082840312156121a9576121a86113b9565b5b60006121b78482850161217e565b91505092915050565b7f4e487b7100000000000000000000000000000000000000000000000000000000600052603260045260246000fd5b60006121fa82611421565b915061220583611421565b9250817fffffffffffffffffffffffffffffffffffffffffffffffffffffffffffffffff048311821515161561223e5761223d611df2565b5b828202905092915050565b7f4e487b7100000000000000000000000000000000000000000000000000000000600052601260045260246000fd5b600061228382611421565b915061228e83611421565b92508261229e5761229d612249565b5b828204905092915050565b600081905092915050565b50565b60006122c46000836122a9565b91506122cf826122b4565b600082019050919050565b60006122e5826122b7565b9150819050919050565b7f5472616e73616374696f6e204661696c65640000000000000000000000000000600082015250565b6000612325601283611c05565b9150612330826122ef565b602082019050919050565b6000602082019050818103600083015261235481612318565b9050919050565b7f4f776e61626c653a206e6577206f776e657220697320746865207a65726f206160008201527f6464726573730000000000000000000000000000000000000000000000000000602082015250565b60006123b7602683611c05565b91506123c28261235b565b604082019050919050565b600060208201905081810360008301526123e6816123aa565b9050919050565b60006060820190506124026000830186611942565b61240f6020830185611942565b61241c60408301846119e7565b949350505050565b600061242f82611421565b915061243a83611421565b92508261244a57612449612249565b5b828206905092915050565b7f4f776e61626c653a2063616c6c6572206973206e6f7420746865206f776e6572600082015250565b600061248b602083611c05565b915061249682612455565b602082019050919050565b600060208201905081810360008301526124ba8161247e565b905091905056fea264697066735822122031c57de12b72a8d17e3a9364261112e8a45fada906282464470a6e447f2e9acd64736f6c63430008090033",
  "linkReferences": {},
  "deployedLinkReferences": {}
}