{
  "_format": "hh-sol-artifact-1",
  "contractName": "Lottery",
  "sourceName": "contracts/Lottery.sol",
  "abi": [
    {
      "inputs": [
        {
          "internalType": "address",
          "name": "_vrfCoordinatorV2",
          "type": "address"
        },
        {
          "internalType": "uint64",
          "name": "_vrfSubscriptionId",
          "type": "uint64"
        },
        {
          "internalType": "bytes32",
          "name": "_vrfGasLane",
          "type": "bytes32"
        },
        {
          "internalType": "uint32",
          "name": "_vrfCallbackGasLimit",
          "type": "uint32"
        }
      ],
      "stateMutability": "nonpayable",
      "type": "constructor"
    },
    {
      "inputs": [
        {
          "internalType": "address",
          "name": "have",
          "type": "address"
        },
        {
          "internalType": "address",
          "name": "want",
          "type": "address"
        }
      ],
      "name": "OnlyCoordinatorCanFulfill",
      "type": "error"
    },
    {
      "anonymous": false,
      "inputs": [
        {
          "indexed": false,
          "internalType": "address",
          "name": "player",
          "type": "address"
        },
        {
          "indexed": false,
          "internalType": "uint256",
          "name": "lotteryBalance",
          "type": "uint256"
        }
      ],
      "name": "BuyTicket",
      "type": "event"
    },
    {
      "anonymous": false,
      "inputs": [
        {
          "indexed": false,
          "internalType": "uint256",
          "name": "lotteryId",
          "type": "uint256"
        }
      ],
      "name": "EndLotteryEvent",
      "type": "event"
    },
    {
      "anonymous": false,
      "inputs": [
        {
          "indexed": true,
          "internalType": "address",
          "name": "previousOwner",
          "type": "address"
        },
        {
          "indexed": true,
          "internalType": "address",
          "name": "newOwner",
          "type": "address"
        }
      ],
      "name": "OwnershipTransferred",
      "type": "event"
    },
    {
      "anonymous": false,
      "inputs": [
        {
          "indexed": false,
          "internalType": "uint256",
          "name": "requestId",
          "type": "uint256"
        }
      ],
      "name": "PendingLotteriesWordsRequested",
      "type": "event"
    },
    {
      "anonymous": false,
      "inputs": [
        {
          "indexed": false,
          "internalType": "address",
          "name": "currentWinner",
          "type": "address"
        },
        {
          "indexed": false,
          "internalType": "bool",
          "name": "activeLottery",
          "type": "bool"
        },
        {
          "indexed": false,
          "internalType": "address",
          "name": "nftContractAddress",
          "type": "address"
        },
        {
          "indexed": false,
          "internalType": "uint256",
          "name": "awardBalance",
          "type": "uint256"
        }
      ],
      "name": "PickTheWinner",
      "type": "event"
    },
    {
      "anonymous": false,
      "inputs": [
        {
          "indexed": false,
          "internalType": "address",
          "name": "nftOwner",
          "type": "address"
        },
        {
          "indexed": false,
          "internalType": "uint256",
          "name": "nftTokenId",
          "type": "uint256"
        },
        {
          "indexed": false,
          "internalType": "address",
          "name": "nftContractAddress",
          "type": "address"
        },
        {
          "indexed": false,
          "internalType": "uint256",
          "name": "bettingPrice",
          "type": "uint256"
        },
        {
          "indexed": false,
          "internalType": "bool",
          "name": "activeLottery",
          "type": "bool"
        },
        {
          "indexed": false,
          "internalType": "address",
          "name": "beneficiaryAddress",
          "type": "address"
        },
        {
          "indexed": false,
          "internalType": "uint256",
          "name": "endDate",
          "type": "uint256"
        }
      ],
      "name": "SingleLottery",
      "type": "event"
    },
    {
      "inputs": [],
      "name": "CONTRACT_FEE",
      "outputs": [
        {
          "internalType": "uint256",
          "name": "",
          "type": "uint256"
        }
      ],
      "stateMutability": "view",
      "type": "function"
    },
    {
      "inputs": [
        {
          "internalType": "uint256",
          "name": "_lotteryId",
          "type": "uint256"
        }
      ],
      "name": "buyTicket",
      "outputs": [],
      "stateMutability": "payable",
      "type": "function"
    },
    {
      "inputs": [
        {
          "internalType": "bytes",
          "name": "checkdata",
          "type": "bytes"
        }
      ],
      "name": "checkUpkeep",
      "outputs": [
        {
          "internalType": "bool",
          "name": "upkeepNeeded",
          "type": "bool"
        },
        {
          "internalType": "bytes",
          "name": "performData",
          "type": "bytes"
        }
      ],
      "stateMutability": "view",
      "type": "function"
    },
    {
      "inputs": [],
      "name": "getContractBalance",
      "outputs": [
        {
          "internalType": "uint256",
          "name": "",
          "type": "uint256"
        }
      ],
      "stateMutability": "view",
      "type": "function"
    },
    {
      "inputs": [
        {
          "internalType": "uint256",
          "name": "_lotteryId",
          "type": "uint256"
        }
      ],
      "name": "getLottery",
      "outputs": [
        {
          "internalType": "address",
          "name": "",
          "type": "address"
        },
        {
          "internalType": "address",
          "name": "",
          "type": "address"
        },
        {
          "internalType": "uint256",
          "name": "",
          "type": "uint256"
        },
        {
          "internalType": "bool",
          "name": "",
          "type": "bool"
        },
        {
          "internalType": "address[]",
          "name": "",
          "type": "address[]"
        },
        {
          "internalType": "uint256",
          "name": "",
          "type": "uint256"
        },
        {
          "internalType": "address",
          "name": "",
          "type": "address"
        },
        {
          "internalType": "uint256",
          "name": "",
          "type": "uint256"
        },
        {
          "internalType": "address",
          "name": "",
          "type": "address"
        }
      ],
      "stateMutability": "view",
      "type": "function"
    },
    {
      "inputs": [],
      "name": "getLotteryCount",
      "outputs": [
        {
          "internalType": "uint256",
          "name": "",
          "type": "uint256"
        }
      ],
      "stateMutability": "view",
      "type": "function"
    },
    {
      "inputs": [
        {
          "internalType": "address",
          "name": "",
          "type": "address"
        },
        {
          "internalType": "address",
          "name": "",
          "type": "address"
        },
        {
          "internalType": "uint256",
          "name": "",
          "type": "uint256"
        },
        {
          "internalType": "bytes",
          "name": "",
          "type": "bytes"
        }
      ],
      "name": "onERC721Received",
      "outputs": [
        {
          "internalType": "bytes4",
          "name": "",
          "type": "bytes4"
        }
      ],
      "stateMutability": "nonpayable",
      "type": "function"
    },
    {
      "inputs": [],
      "name": "owner",
      "outputs": [
        {
          "internalType": "address",
          "name": "",
          "type": "address"
        }
      ],
      "stateMutability": "view",
      "type": "function"
    },
    {
      "inputs": [
        {
          "internalType": "bytes",
          "name": "",
          "type": "bytes"
        }
      ],
      "name": "performUpkeep",
      "outputs": [],
      "stateMutability": "nonpayable",
      "type": "function"
    },
    {
      "inputs": [
        {
          "internalType": "uint256",
          "name": "requestId",
          "type": "uint256"
        },
        {
          "internalType": "uint256[]",
          "name": "randomWords",
          "type": "uint256[]"
        }
      ],
      "name": "rawFulfillRandomWords",
      "outputs": [],
      "stateMutability": "nonpayable",
      "type": "function"
    },
    {
      "inputs": [],
      "name": "renounceOwnership",
      "outputs": [],
      "stateMutability": "nonpayable",
      "type": "function"
    },
    {
      "inputs": [],
      "name": "requestWordsPendingLotteries",
      "outputs": [
        {
          "internalType": "uint256",
          "name": "s_requestId",
          "type": "uint256"
        }
      ],
      "stateMutability": "nonpayable",
      "type": "function"
    },
    {
      "inputs": [],
      "name": "s_pendingLotteryEnd",
      "outputs": [
        {
          "internalType": "bool",
          "name": "",
          "type": "bool"
        }
      ],
      "stateMutability": "view",
      "type": "function"
    },
    {
      "inputs": [
        {
          "internalType": "uint256",
          "name": "_tokenId",
          "type": "uint256"
        },
        {
          "internalType": "address",
          "name": "_nftContractAddress",
          "type": "address"
        },
        {
          "internalType": "uint256",
          "name": "_bettingPrice",
          "type": "uint256"
        },
        {
          "internalType": "address",
          "name": "_beneficiaryAddress",
          "type": "address"
        },
        {
          "internalType": "uint256",
          "name": "_endDate",
          "type": "uint256"
        }
      ],
      "name": "startLottery",
      "outputs": [
        {
          "internalType": "bytes4",
          "name": "",
          "type": "bytes4"
        }
      ],
      "stateMutability": "nonpayable",
      "type": "function"
    },
    {
      "inputs": [
        {
          "internalType": "address",
          "name": "newOwner",
          "type": "address"
        }
      ],
      "name": "transferOwnership",
      "outputs": [],
      "stateMutability": "nonpayable",
      "type": "function"
    }
  ],
  "bytecode": "0x6101206040523480156200001257600080fd5b50604051620028e4380380620028e48339818101604052810190620000389190620002fc565b83620000596200004d6200010560201b60201c565b6200010d60201b60201c565b8073ffffffffffffffffffffffffffffffffffffffff1660808173ffffffffffffffffffffffffffffffffffffffff1681525050508373ffffffffffffffffffffffffffffffffffffffff1660a08173ffffffffffffffffffffffffffffffffffffffff16815250508267ffffffffffffffff1660c08167ffffffffffffffff16815250508160e081815250508063ffffffff166101008163ffffffff1681525050505050506200036e565b600033905090565b60008060009054906101000a900473ffffffffffffffffffffffffffffffffffffffff169050816000806101000a81548173ffffffffffffffffffffffffffffffffffffffff021916908373ffffffffffffffffffffffffffffffffffffffff1602179055508173ffffffffffffffffffffffffffffffffffffffff168173ffffffffffffffffffffffffffffffffffffffff167f8be0079c531659141344cd1fd0a4f28419497f9722a3daafe3b4186f6b6457e060405160405180910390a35050565b600080fd5b600073ffffffffffffffffffffffffffffffffffffffff82169050919050565b60006200020382620001d6565b9050919050565b6200021581620001f6565b81146200022157600080fd5b50565b60008151905062000235816200020a565b92915050565b600067ffffffffffffffff82169050919050565b6200025a816200023b565b81146200026657600080fd5b50565b6000815190506200027a816200024f565b92915050565b6000819050919050565b620002958162000280565b8114620002a157600080fd5b50565b600081519050620002b5816200028a565b92915050565b600063ffffffff82169050919050565b620002d681620002bb565b8114620002e257600080fd5b50565b600081519050620002f681620002cb565b92915050565b60008060008060808587031215620003195762000318620001d1565b5b6000620003298782880162000224565b94505060206200033c8782880162000269565b93505060406200034f87828801620002a4565b92505060606200036287828801620002e5565b91505092959194509250565b60805160a05160c05160e0516101005161252a620003ba6000396000610bfa01526000610bb601526000610bd701526000610b7a0152600081816103b00152610404015261252a6000f3fe6080604052600436106100e85760003560e01c8063715018a61161008a578063c5a4605a11610059578063c5a4605a146102f0578063c89663ed1461031b578063f2fde38b14610346578063f70d37461461036f576100e8565b8063715018a61461022c57806379f0c3df146102435780638da5cb5b1461028057806392e845f6146102ab576100e8565b80634585e33b116100c65780634585e33b1461017e57806367dd74ca146101a75780636e04ff0d146101c35780636f9fb98a14610201576100e8565b8063150b7a02146100ed5780631fe543e31461012a5780632f9aa1fe14610153575b600080fd5b3480156100f957600080fd5b50610114600480360381019061010f91906115cd565b61039a565b604051610121919061168b565b60405180910390f35b34801561013657600080fd5b50610151600480360381019061014c919061176e565b6103ae565b005b34801561015f57600080fd5b5061016861046e565b60405161017591906117d9565b60405180910390f35b34801561018a57600080fd5b506101a560048036038101906101a0919061184f565b61047f565b005b6101c160048036038101906101bc919061189c565b61048c565b005b3480156101cf57600080fd5b506101ea60048036038101906101e5919061184f565b610647565b6040516101f892919061196c565b60405180910390f35b34801561020d57600080fd5b506102166106d8565b60405161022391906117d9565b60405180910390f35b34801561023857600080fd5b506102416106e0565b005b34801561024f57600080fd5b5061026a6004803603810190610265919061199c565b6106f4565b604051610277919061168b565b60405180910390f35b34801561028c57600080fd5b5061029561097c565b6040516102a29190611a26565b60405180910390f35b3480156102b757600080fd5b506102d260048036038101906102cd919061189c565b6109a5565b6040516102e799989796959493929190611aff565b60405180910390f35b3480156102fc57600080fd5b50610305610b76565b60405161031291906117d9565b60405180910390f35b34801561032757600080fd5b50610330610ce4565b60405161033d9190611b93565b60405180910390f35b34801561035257600080fd5b5061036d60048036038101906103689190611bae565b610cf7565b005b34801561037b57600080fd5b50610384610d7b565b60405161039191906117d9565b60405180910390f35b600063150b7a0260e01b9050949350505050565b7f000000000000000000000000000000000000000000000000000000000000000073ffffffffffffffffffffffffffffffffffffffff163373ffffffffffffffffffffffffffffffffffffffff161461046057337f00000000000000000000000000000000000000000000000000000000000000006040517f1cf993f4000000000000000000000000000000000000000000000000000000008152600401610457929190611bdb565b60405180910390fd5b61046a8282610d80565b5050565b600061047a6001610e97565b905090565b610487610b76565b505050565b6104966001610e97565b81106104d7576040517f08c379a00000000000000000000000000000000000000000000000000000000081526004016104ce90611c87565b60405180910390fd5b60006002600083815260200190815260200160002090508060040160009054906101000a900460ff1661053f576040517f08c379a000000000000000000000000000000000000000000000000000000000815260040161053690611d3f565b60405180910390fd5b80600301543414610585576040517f08c379a000000000000000000000000000000000000000000000000000000000815260040161057c90611dd1565b60405180910390fd5b80600501339080600181540180825580915050600190039060005260206000200160009091909190916101000a81548173ffffffffffffffffffffffffffffffffffffffff021916908373ffffffffffffffffffffffffffffffffffffffff160217905550806003015481600601546105fe9190611e20565b81600601819055507f2a3164428cba5dad15f5ffe47e10cbefdcbbe9e269fd482753982ee8b2648c3e33826006015460405161063b929190611e76565b60405180910390a15050565b6000606060005b6106586001610e97565b8110156106895761066881610ea5565b156106765760019250610689565b808061068190611e9f565b91505061064e565b5083838080601f016020809104026020016040519081016040528093929190818152602001838380828437600081840152601f19601f8201169050808301925050505050505090509250929050565b600047905090565b6106e8610f26565b6106f26000610fa4565b565b6000808411610738576040517f08c379a000000000000000000000000000000000000000000000000000000000815260040161072f90611f5a565b60405180910390fd5b42821161077a576040517f08c379a000000000000000000000000000000000000000000000000000000000815260040161077190611fec565b60405180910390fd5b60008590508073ffffffffffffffffffffffffffffffffffffffff166342842e0e33308a6040518463ffffffff1660e01b81526004016107bc9392919061200c565b600060405180830381600087803b1580156107d657600080fd5b505af11580156107ea573d6000803e3d6000fd5b505050506000600260006107fe6001610e97565b81526020019081526020016000209050338160000160006101000a81548173ffffffffffffffffffffffffffffffffffffffff021916908373ffffffffffffffffffffffffffffffffffffffff160217905550878160010181905550868160020160006101000a81548173ffffffffffffffffffffffffffffffffffffffff021916908373ffffffffffffffffffffffffffffffffffffffff16021790555085816003018190555060018160040160006101000a81548160ff02191690831515021790555060008160060181905550848160070160006101000a81548173ffffffffffffffffffffffffffffffffffffffff021916908373ffffffffffffffffffffffffffffffffffffffff1602179055508381600901819055507f8f091eb0e0cdf901a8325af719fb5bffee6be7ce8c77a252855ca32be8c4c2f53389898960018a8a6040516109559796959493929190612043565b60405180910390a16109676001611068565b63150b7a0260e01b9250505095945050505050565b60008060009054906101000a900473ffffffffffffffffffffffffffffffffffffffff16905090565b60008060008060606000806000806109bd6001610e97565b8a106109fe576040517f08c379a00000000000000000000000000000000000000000000000000000000081526004016109f590611c87565b60405180910390fd5b6000600260008c815260200190815260200160002090508060000160009054906101000a900473ffffffffffffffffffffffffffffffffffffffff168160020160009054906101000a900473ffffffffffffffffffffffffffffffffffffffff1682600301548360040160009054906101000a900460ff168460050185600601548660080160009054906101000a900473ffffffffffffffffffffffffffffffffffffffff1687600901548860070160009054906101000a900473ffffffffffffffffffffffffffffffffffffffff1684805480602002602001604051908101604052809291908181526020018280548015610b4f57602002820191906000526020600020905b8160009054906101000a900473ffffffffffffffffffffffffffffffffffffffff1673ffffffffffffffffffffffffffffffffffffffff1681526020019060010190808311610b05575b50505050509450995099509950995099509950995099509950509193959799909294969850565b60007f000000000000000000000000000000000000000000000000000000000000000073ffffffffffffffffffffffffffffffffffffffff16635d3b1d307f00000000000000000000000000000000000000000000000000000000000000007f000000000000000000000000000000000000000000000000000000000000000060037f000000000000000000000000000000000000000000000000000000000000000060016040518663ffffffff1660e01b8152600401610c3b95949392919061212a565b602060405180830381600087803b158015610c5557600080fd5b505af1158015610c69573d6000803e3d6000fd5b505050506040513d601f19601f82011682018060405250810190610c8d9190612192565b90506001600060146101000a81548160ff0219169083151502179055507f4086bd1a4642868b523b32dd30da50e47fa52139cffe27b6b9dba005a3381cb981604051610cd991906117d9565b60405180910390a190565b600060149054906101000a900460ff1681565b610cff610f26565b600073ffffffffffffffffffffffffffffffffffffffff168173ffffffffffffffffffffffffffffffffffffffff161415610d6f576040517f08c379a0000000000000000000000000000000000000000000000000000000008152600401610d6690612231565b60405180910390fd5b610d7881610fa4565b50565b600581565b60008060146101000a81548160ff02191690831515021790555060005b610da76001610e97565b811015610e9257610db781610ea5565b15610e7f57610e7e81600260008481526020019081526020016000206005018054905084600081518110610dee57610ded612251565b5b602002602001015160026000868152602001908152602001600020600101546002600087815260200190815260200160002060020160009054906101000a900473ffffffffffffffffffffffffffffffffffffffff16604051602001610e5693929190612280565b6040516020818303038152906040528051906020012060001c610e7991906122e6565b61107e565b5b8080610e8a90611e9f565b915050610d9d565b505050565b600081600001549050919050565b60008060149054906101000a900460ff1615610ec45760009050610f21565b6002600083815260200190815260200160002060040160009054906101000a900460ff16610ef55760009050610f21565b4260026000848152602001908152602001600020600901541115610f1c5760009050610f21565b600190505b919050565b610f2e6113d7565b73ffffffffffffffffffffffffffffffffffffffff16610f4c61097c565b73ffffffffffffffffffffffffffffffffffffffff1614610fa2576040517f08c379a0000000000000000000000000000000000000000000000000000000008152600401610f9990612363565b60405180910390fd5b565b60008060009054906101000a900473ffffffffffffffffffffffffffffffffffffffff169050816000806101000a81548173ffffffffffffffffffffffffffffffffffffffff021916908373ffffffffffffffffffffffffffffffffffffffff1602179055508173ffffffffffffffffffffffffffffffffffffffff168173ffffffffffffffffffffffffffffffffffffffff167f8be0079c531659141344cd1fd0a4f28419497f9722a3daafe3b4186f6b6457e060405160405180910390a35050565b6001816000016000828254019250508190555050565b6110886001610e97565b82106110c9576040517f08c379a00000000000000000000000000000000000000000000000000000000081526004016110c090611c87565b60405180910390fd5b60006002600084815260200190815260200160002090508060040160009054906101000a900460ff16611131576040517f08c379a000000000000000000000000000000000000000000000000000000000815260040161112890611d3f565b60405180910390fd5b80600501828154811061114757611146612251565b5b9060005260206000200160009054906101000a900473ffffffffffffffffffffffffffffffffffffffff168160080160006101000a81548173ffffffffffffffffffffffffffffffffffffffff021916908373ffffffffffffffffffffffffffffffffffffffff16021790555060006064600560646111c69190612383565b83600601546111d591906123b7565b6111df9190612411565b905060008260070160009054906101000a900473ffffffffffffffffffffffffffffffffffffffff1673ffffffffffffffffffffffffffffffffffffffff168260405161122b90612473565b60006040518083038185875af1925050503d8060008114611268576040519150601f19603f3d011682016040523d82523d6000602084013e61126d565b606091505b50509050806112b1576040517f08c379a00000000000000000000000000000000000000000000000000000000081526004016112a8906124d4565b60405180910390fd5b60008360040160006101000a81548160ff021916908315150217905550600083600601819055507f3056e6a2c5f046f7a52808a2d667aa237021e443f84237f476e8ea63f7c3ba018560405161130791906117d9565b60405180910390a160008360020160009054906101000a900473ffffffffffffffffffffffffffffffffffffffff1690508073ffffffffffffffffffffffffffffffffffffffff166342842e0e308660080160009054906101000a900473ffffffffffffffffffffffffffffffffffffffff1687600101546040518463ffffffff1660e01b815260040161139d9392919061200c565b600060405180830381600087803b1580156113b757600080fd5b505af11580156113cb573d6000803e3d6000fd5b50505050505050505050565b600033905090565b6000604051905090565b600080fd5b600080fd5b600073ffffffffffffffffffffffffffffffffffffffff82169050919050565b600061141e826113f3565b9050919050565b61142e81611413565b811461143957600080fd5b50565b60008135905061144b81611425565b92915050565b6000819050919050565b61146481611451565b811461146f57600080fd5b50565b6000813590506114818161145b565b92915050565b600080fd5b600080fd5b6000601f19601f8301169050919050565b7f4e487b7100000000000000000000000000000000000000000000000000000000600052604160045260246000fd5b6114da82611491565b810181811067ffffffffffffffff821117156114f9576114f86114a2565b5b80604052505050565b600061150c6113df565b905061151882826114d1565b919050565b600067ffffffffffffffff821115611538576115376114a2565b5b61154182611491565b9050602081019050919050565b82818337600083830152505050565b600061157061156b8461151d565b611502565b90508281526020810184848401111561158c5761158b61148c565b5b61159784828561154e565b509392505050565b600082601f8301126115b4576115b3611487565b5b81356115c484826020860161155d565b91505092915050565b600080600080608085870312156115e7576115e66113e9565b5b60006115f58782880161143c565b94505060206116068782880161143c565b935050604061161787828801611472565b925050606085013567ffffffffffffffff811115611638576116376113ee565b5b6116448782880161159f565b91505092959194509250565b60007fffffffff0000000000000000000000000000000000000000000000000000000082169050919050565b61168581611650565b82525050565b60006020820190506116a0600083018461167c565b92915050565b600067ffffffffffffffff8211156116c1576116c06114a2565b5b602082029050602081019050919050565b600080fd5b60006116ea6116e5846116a6565b611502565b9050808382526020820190506020840283018581111561170d5761170c6116d2565b5b835b8181101561173657806117228882611472565b84526020840193505060208101905061170f565b5050509392505050565b600082601f83011261175557611754611487565b5b81356117658482602086016116d7565b91505092915050565b60008060408385031215611785576117846113e9565b5b600061179385828601611472565b925050602083013567ffffffffffffffff8111156117b4576117b36113ee565b5b6117c085828601611740565b9150509250929050565b6117d381611451565b82525050565b60006020820190506117ee60008301846117ca565b92915050565b600080fd5b60008083601f84011261180f5761180e611487565b5b8235905067ffffffffffffffff81111561182c5761182b6117f4565b5b602083019150836001820283011115611848576118476116d2565b5b9250929050565b60008060208385031215611866576118656113e9565b5b600083013567ffffffffffffffff811115611884576118836113ee565b5b611890858286016117f9565b92509250509250929050565b6000602082840312156118b2576118b16113e9565b5b60006118c084828501611472565b91505092915050565b60008115159050919050565b6118de816118c9565b82525050565b600081519050919050565b600082825260208201905092915050565b60005b8381101561191e578082015181840152602081019050611903565b8381111561192d576000848401525b50505050565b600061193e826118e4565b61194881856118ef565b9350611958818560208601611900565b61196181611491565b840191505092915050565b600060408201905061198160008301856118d5565b81810360208301526119938184611933565b90509392505050565b600080600080600060a086880312156119b8576119b76113e9565b5b60006119c688828901611472565b95505060206119d78882890161143c565b94505060406119e888828901611472565b93505060606119f98882890161143c565b9250506080611a0a88828901611472565b9150509295509295909350565b611a2081611413565b82525050565b6000602082019050611a3b6000830184611a17565b92915050565b600081519050919050565b600082825260208201905092915050565b6000819050602082019050919050565b611a7681611413565b82525050565b6000611a888383611a6d565b60208301905092915050565b6000602082019050919050565b6000611aac82611a41565b611ab68185611a4c565b9350611ac183611a5d565b8060005b83811015611af2578151611ad98882611a7c565b9750611ae483611a94565b925050600181019050611ac5565b5085935050505092915050565b600061012082019050611b15600083018c611a17565b611b22602083018b611a17565b611b2f604083018a6117ca565b611b3c60608301896118d5565b8181036080830152611b4e8188611aa1565b9050611b5d60a08301876117ca565b611b6a60c0830186611a17565b611b7760e08301856117ca565b611b85610100830184611a17565b9a9950505050505050505050565b6000602082019050611ba860008301846118d5565b92915050565b600060208284031215611bc457611bc36113e9565b5b6000611bd28482850161143c565b91505092915050565b6000604082019050611bf06000830185611a17565b611bfd6020830184611a17565b9392505050565b600082825260208201905092915050565b7f546865206c6f747465727920496420676976656e20646f6573206e6f7420636f60008201527f72726573706f6e6420746f20616e206578697374696e67206c6f74746572792e602082015250565b6000611c71604083611c04565b9150611c7c82611c15565b604082019050919050565b60006020820190508181036000830152611ca081611c64565b9050919050565b7f546865206c6f747465727920496420676976656e20636f72726573706f6e647360008201527f20746f2061206c6f747465727920746861742068617320616c7265616479206560208201527f6e6465642e000000000000000000000000000000000000000000000000000000604082015250565b6000611d29604583611c04565b9150611d3482611ca7565b606082019050919050565b60006020820190508181036000830152611d5881611d1c565b9050919050565b7f546f2070617274696369706174652c20706c656173652061646420746865207260008201527f6571756972656420616d6f756e742e0000000000000000000000000000000000602082015250565b6000611dbb602f83611c04565b9150611dc682611d5f565b604082019050919050565b60006020820190508181036000830152611dea81611dae565b9050919050565b7f4e487b7100000000000000000000000000000000000000000000000000000000600052601160045260246000fd5b6000611e2b82611451565b9150611e3683611451565b9250827fffffffffffffffffffffffffffffffffffffffffffffffffffffffffffffffff03821115611e6b57611e6a611df1565b5b828201905092915050565b6000604082019050611e8b6000830185611a17565b611e9860208301846117ca565b9392505050565b6000611eaa82611451565b91507fffffffffffffffffffffffffffffffffffffffffffffffffffffffffffffffff821415611edd57611edc611df1565b5b600182019050919050565b7f42657474696e672070726963652073686f756c6420626520677265617465722060008201527f7468616e207a65726f2e00000000000000000000000000000000000000000000602082015250565b6000611f44602a83611c04565b9150611f4f82611ee8565b604082019050919050565b60006020820190508181036000830152611f7381611f37565b9050919050565b7f456e6420646174652073686f756c64206265206c61746572207468616e20746860008201527f652063757272656e742074696d657374616d7000000000000000000000000000602082015250565b6000611fd6603383611c04565b9150611fe182611f7a565b604082019050919050565b6000602082019050818103600083015261200581611fc9565b9050919050565b60006060820190506120216000830186611a17565b61202e6020830185611a17565b61203b60408301846117ca565b949350505050565b600060e082019050612058600083018a611a17565b61206560208301896117ca565b6120726040830188611a17565b61207f60608301876117ca565b61208c60808301866118d5565b61209960a0830185611a17565b6120a660c08301846117ca565b98975050505050505050565b6000819050919050565b6120c5816120b2565b82525050565b600067ffffffffffffffff82169050919050565b6120e8816120cb565b82525050565b600061ffff82169050919050565b612105816120ee565b82525050565b600063ffffffff82169050919050565b6121248161210b565b82525050565b600060a08201905061213f60008301886120bc565b61214c60208301876120df565b61215960408301866120fc565b612166606083018561211b565b612173608083018461211b565b9695505050505050565b60008151905061218c8161145b565b92915050565b6000602082840312156121a8576121a76113e9565b5b60006121b68482850161217d565b91505092915050565b7f4f776e61626c653a206e6577206f776e657220697320746865207a65726f206160008201527f6464726573730000000000000000000000000000000000000000000000000000602082015250565b600061221b602683611c04565b9150612226826121bf565b604082019050919050565b6000602082019050818103600083015261224a8161220e565b9050919050565b7f4e487b7100000000000000000000000000000000000000000000000000000000600052603260045260246000fd5b600060608201905061229560008301866117ca565b6122a260208301856117ca565b6122af6040830184611a17565b949350505050565b7f4e487b7100000000000000000000000000000000000000000000000000000000600052601260045260246000fd5b60006122f182611451565b91506122fc83611451565b92508261230c5761230b6122b7565b5b828206905092915050565b7f4f776e61626c653a2063616c6c6572206973206e6f7420746865206f776e6572600082015250565b600061234d602083611c04565b915061235882612317565b602082019050919050565b6000602082019050818103600083015261237c81612340565b9050919050565b600061238e82611451565b915061239983611451565b9250828210156123ac576123ab611df1565b5b828203905092915050565b60006123c282611451565b91506123cd83611451565b9250817fffffffffffffffffffffffffffffffffffffffffffffffffffffffffffffffff048311821515161561240657612405611df1565b5b828202905092915050565b600061241c82611451565b915061242783611451565b925082612437576124366122b7565b5b828204905092915050565b600081905092915050565b50565b600061245d600083612442565b91506124688261244d565b600082019050919050565b600061247e82612450565b9150819050919050565b7f5472616e73616374696f6e204661696c65640000000000000000000000000000600082015250565b60006124be601283611c04565b91506124c982612488565b602082019050919050565b600060208201905081810360008301526124ed816124b1565b905091905056fea2646970667358221220cf35419f3cf19191b73896e4f9e36f400bfd08f1066134d81f45326ead325a0864736f6c63430008090033",
  "linkReferences": {},
  "deployedLinkReferences": {}
}