{
  "_format": "hh-sol-artifact-1",
  "contractName": "Lottery",
  "sourceName": "contracts/Lottery.sol",
  "abi": [
    {
      "inputs": [
        {
          "internalType": "uint64",
          "name": "subscriptionId",
          "type": "uint64"
        }
      ],
      "stateMutability": "nonpayable",
      "type": "constructor"
    },
    {
      "inputs": [
        {
          "internalType": "address",
          "name": "have",
          "type": "address"
        },
        {
          "internalType": "address",
          "name": "want",
          "type": "address"
        }
      ],
      "name": "OnlyCoordinatorCanFulfill",
      "type": "error"
    },
    {
      "anonymous": false,
      "inputs": [
        {
          "indexed": false,
          "internalType": "address",
          "name": "player",
          "type": "address"
        },
        {
          "indexed": false,
          "internalType": "uint256",
          "name": "lotteryBalance",
          "type": "uint256"
        }
      ],
      "name": "BuyTicket",
      "type": "event"
    },
    {
      "anonymous": false,
      "inputs": [
        {
          "indexed": true,
          "internalType": "address",
          "name": "previousOwner",
          "type": "address"
        },
        {
          "indexed": true,
          "internalType": "address",
          "name": "newOwner",
          "type": "address"
        }
      ],
      "name": "OwnershipTransferred",
      "type": "event"
    },
    {
      "anonymous": false,
      "inputs": [
        {
          "indexed": false,
          "internalType": "address",
          "name": "currentWinner",
          "type": "address"
        },
        {
          "indexed": false,
          "internalType": "bool",
          "name": "activeLottery",
          "type": "bool"
        },
        {
          "indexed": false,
          "internalType": "address",
          "name": "nftContractAddress",
          "type": "address"
        },
        {
          "indexed": false,
          "internalType": "uint256",
          "name": "awardBalance",
          "type": "uint256"
        }
      ],
      "name": "PickTheWinner",
      "type": "event"
    },
    {
      "anonymous": false,
      "inputs": [
        {
          "indexed": false,
          "internalType": "address",
          "name": "nftOwner",
          "type": "address"
        },
        {
          "indexed": false,
          "internalType": "uint256",
          "name": "nftTokenId",
          "type": "uint256"
        },
        {
          "indexed": false,
          "internalType": "address",
          "name": "nftContractAddress",
          "type": "address"
        },
        {
          "indexed": false,
          "internalType": "uint256",
          "name": "bettingPrice",
          "type": "uint256"
        },
        {
          "indexed": false,
          "internalType": "bool",
          "name": "activeLottery",
          "type": "bool"
        },
        {
          "indexed": false,
          "internalType": "address",
          "name": "beneficiaryAddress",
          "type": "address"
        },
        {
          "indexed": false,
          "internalType": "uint256",
          "name": "startDate",
          "type": "uint256"
        }
      ],
      "name": "SingleLottery",
      "type": "event"
    },
    {
      "inputs": [
        {
          "internalType": "uint256",
          "name": "_lotteryId",
          "type": "uint256"
        }
      ],
      "name": "buyTicket",
      "outputs": [],
      "stateMutability": "payable",
      "type": "function"
    },
    {
      "inputs": [],
      "name": "getContractBalance",
      "outputs": [
        {
          "internalType": "uint256",
          "name": "",
          "type": "uint256"
        }
      ],
      "stateMutability": "view",
      "type": "function"
    },
    {
      "inputs": [
        {
          "internalType": "uint256",
          "name": "_lotteryId",
          "type": "uint256"
        }
      ],
      "name": "getLottery",
      "outputs": [
        {
          "internalType": "address",
          "name": "",
          "type": "address"
        },
        {
          "internalType": "address",
          "name": "",
          "type": "address"
        },
        {
          "internalType": "uint256",
          "name": "",
          "type": "uint256"
        },
        {
          "internalType": "bool",
          "name": "",
          "type": "bool"
        },
        {
          "internalType": "address[]",
          "name": "",
          "type": "address[]"
        },
        {
          "internalType": "uint256",
          "name": "",
          "type": "uint256"
        },
        {
          "internalType": "address",
          "name": "",
          "type": "address"
        },
        {
          "internalType": "uint256",
          "name": "",
          "type": "uint256"
        }
      ],
      "stateMutability": "view",
      "type": "function"
    },
    {
      "inputs": [
        {
          "internalType": "address",
          "name": "",
          "type": "address"
        },
        {
          "internalType": "address",
          "name": "",
          "type": "address"
        },
        {
          "internalType": "uint256",
          "name": "",
          "type": "uint256"
        },
        {
          "internalType": "bytes",
          "name": "",
          "type": "bytes"
        }
      ],
      "name": "onERC721Received",
      "outputs": [
        {
          "internalType": "bytes4",
          "name": "",
          "type": "bytes4"
        }
      ],
      "stateMutability": "nonpayable",
      "type": "function"
    },
    {
      "inputs": [],
      "name": "owner",
      "outputs": [
        {
          "internalType": "address",
          "name": "",
          "type": "address"
        }
      ],
      "stateMutability": "view",
      "type": "function"
    },
    {
      "inputs": [
        {
          "internalType": "uint256",
          "name": "_lotteryId",
          "type": "uint256"
        }
      ],
      "name": "pickTheWinner",
      "outputs": [],
      "stateMutability": "nonpayable",
      "type": "function"
    },
    {
      "inputs": [
        {
          "internalType": "uint256",
          "name": "requestId",
          "type": "uint256"
        },
        {
          "internalType": "uint256[]",
          "name": "randomWords",
          "type": "uint256[]"
        }
      ],
      "name": "rawFulfillRandomWords",
      "outputs": [],
      "stateMutability": "nonpayable",
      "type": "function"
    },
    {
      "inputs": [],
      "name": "renounceOwnership",
      "outputs": [],
      "stateMutability": "nonpayable",
      "type": "function"
    },
    {
      "inputs": [],
      "name": "requestRandomWords",
      "outputs": [],
      "stateMutability": "nonpayable",
      "type": "function"
    },
    {
      "inputs": [
        {
          "internalType": "uint256",
          "name": "",
          "type": "uint256"
        }
      ],
      "name": "s_randomWords",
      "outputs": [
        {
          "internalType": "uint256",
          "name": "",
          "type": "uint256"
        }
      ],
      "stateMutability": "view",
      "type": "function"
    },
    {
      "inputs": [],
      "name": "s_requestId",
      "outputs": [
        {
          "internalType": "uint256",
          "name": "",
          "type": "uint256"
        }
      ],
      "stateMutability": "view",
      "type": "function"
    },
    {
      "inputs": [
        {
          "internalType": "uint256",
          "name": "_tokenId",
          "type": "uint256"
        },
        {
          "internalType": "address",
          "name": "_nftContractAddress",
          "type": "address"
        },
        {
          "internalType": "uint256",
          "name": "_bettingPrice",
          "type": "uint256"
        },
        {
          "internalType": "address",
          "name": "_beneficiaryAddress",
          "type": "address"
        }
      ],
      "name": "startLottery",
      "outputs": [
        {
          "internalType": "bytes4",
          "name": "",
          "type": "bytes4"
        }
      ],
      "stateMutability": "nonpayable",
      "type": "function"
    },
    {
      "inputs": [
        {
          "internalType": "address",
          "name": "newOwner",
          "type": "address"
        }
      ],
      "name": "transferOwnership",
      "outputs": [],
      "stateMutability": "nonpayable",
      "type": "function"
    }
  ],
  "bytecode": "0x60a0604052732ca8e0c643bde4c2e08ab1fa0da3401adad7734d600260006101000a81548173ffffffffffffffffffffffffffffffffffffffff021916908373ffffffffffffffffffffffffffffffffffffffff1602179055507f79d3d8832d904592c0bf9818b621522c988bb8b0c05cdc3b15aea1b6e8db0c1560001b600355620186a0600460006101000a81548163ffffffff021916908363ffffffff16021790555060036004806101000a81548161ffff021916908361ffff1602179055506002600460066101000a81548163ffffffff021916908363ffffffff160217905550348015620000f057600080fd5b50604051620020e9380380620020e9833981810160405281019062000116919062000337565b600260009054906101000a900473ffffffffffffffffffffffffffffffffffffffff16620001596200014d6200022160201b60201c565b6200022960201b60201c565b8073ffffffffffffffffffffffffffffffffffffffff1660808173ffffffffffffffffffffffffffffffffffffffff168152505050600260009054906101000a900473ffffffffffffffffffffffffffffffffffffffff16600160006101000a81548173ffffffffffffffffffffffffffffffffffffffff021916908373ffffffffffffffffffffffffffffffffffffffff16021790555080600160146101000a81548167ffffffffffffffff021916908367ffffffffffffffff1602179055505062000369565b600033905090565b60008060009054906101000a900473ffffffffffffffffffffffffffffffffffffffff169050816000806101000a81548173ffffffffffffffffffffffffffffffffffffffff021916908373ffffffffffffffffffffffffffffffffffffffff1602179055508173ffffffffffffffffffffffffffffffffffffffff168173ffffffffffffffffffffffffffffffffffffffff167f8be0079c531659141344cd1fd0a4f28419497f9722a3daafe3b4186f6b6457e060405160405180910390a35050565b600080fd5b600067ffffffffffffffff82169050919050565b6200031181620002f2565b81146200031d57600080fd5b50565b600081519050620003318162000306565b92915050565b60006020828403121562000350576200034f620002ed565b5b6000620003608482850162000320565b91505092915050565b608051611d5d6200038c6000396000818161056201526105b60152611d5d6000f3fe6080604052600436106100c15760003560e01c806382db4f191161007f578063e0c8628911610059578063e0c862891461025f578063e89e106a14610276578063f2fde38b146102a1578063f6eaffc8146102ca576100c1565b806382db4f19146101c75780638da5cb5b146101f057806392e845f61461021b576100c1565b806248dc11146100c6578063150b7a02146101035780631fe543e31461014057806367dd74ca146101695780636f9fb98a14610185578063715018a6146101b0575b600080fd5b3480156100d257600080fd5b506100ed60048036038101906100e8919061107d565b610307565b6040516100fa919061111f565b60405180910390f35b34801561010f57600080fd5b5061012a60048036038101906101259190611280565b61054c565b604051610137919061111f565b60405180910390f35b34801561014c57600080fd5b50610167600480360381019061016291906113cb565b610560565b005b610183600480360381019061017e9190611427565b610620565b005b34801561019157600080fd5b5061019a61073f565b6040516101a79190611463565b60405180910390f35b3480156101bc57600080fd5b506101c5610747565b005b3480156101d357600080fd5b506101ee60048036038101906101e99190611427565b61075b565b005b3480156101fc57600080fd5b50610205610aa1565b604051610212919061148d565b60405180910390f35b34801561022757600080fd5b50610242600480360381019061023d9190611427565b610aca565b604051610256989796959493929190611581565b60405180910390f35b34801561026b57600080fd5b50610274610c25565b005b34801561028257600080fd5b5061028b610d34565b6040516102989190611463565b60405180910390f35b3480156102ad57600080fd5b506102c860048036038101906102c39190611606565b610d3a565b005b3480156102d657600080fd5b506102f160048036038101906102ec9190611427565b610dbe565b6040516102fe9190611463565b60405180910390f35b600080831161034b576040517f08c379a0000000000000000000000000000000000000000000000000000000008152600401610342906116b6565b60405180910390fd5b60008490508073ffffffffffffffffffffffffffffffffffffffff166342842e0e3330896040518463ffffffff1660e01b815260040161038d939291906116d6565b600060405180830381600087803b1580156103a757600080fd5b505af11580156103bb573d6000803e3d6000fd5b505050506000600860006103cf6007610de2565b81526020019081526020016000209050338160000160006101000a81548173ffffffffffffffffffffffffffffffffffffffff021916908373ffffffffffffffffffffffffffffffffffffffff160217905550868160010181905550858160020160006101000a81548173ffffffffffffffffffffffffffffffffffffffff021916908373ffffffffffffffffffffffffffffffffffffffff16021790555084816003018190555060018160040160006101000a81548160ff02191690831515021790555060008160060181905550838160070160006101000a81548173ffffffffffffffffffffffffffffffffffffffff021916908373ffffffffffffffffffffffffffffffffffffffff1602179055504281600901819055507f8f091eb0e0cdf901a8325af719fb5bffee6be7ce8c77a252855ca32be8c4c2f53388888860018942604051610526979695949392919061170d565b60405180910390a16105386007610df0565b63150b7a0260e01b92505050949350505050565b600063150b7a0260e01b9050949350505050565b7f000000000000000000000000000000000000000000000000000000000000000073ffffffffffffffffffffffffffffffffffffffff163373ffffffffffffffffffffffffffffffffffffffff161461061257337f00000000000000000000000000000000000000000000000000000000000000006040517f1cf993f400000000000000000000000000000000000000000000000000000000815260040161060992919061177c565b60405180910390fd5b61061c8282610e06565b5050565b60006008600083815260200190815260200160002090508060030154341461067d576040517f08c379a00000000000000000000000000000000000000000000000000000000081526004016106749061183d565b60405180910390fd5b80600501339080600181540180825580915050600190039060005260206000200160009091909190916101000a81548173ffffffffffffffffffffffffffffffffffffffff021916908373ffffffffffffffffffffffffffffffffffffffff160217905550806003015481600601546106f6919061188c565b81600601819055507f2a3164428cba5dad15f5ffe47e10cbefdcbbe9e269fd482753982ee8b2648c3e3382600601546040516107339291906118e2565b60405180910390a15050565b600047905090565b61074f610e21565b6107596000610e9f565b565b60006008600083815260200190815260200160002090506000816005018054905060056000815481106107915761079061190b565b5b90600052602060002001546107a69190611969565b90508160050181815481106107be576107bd61190b565b5b9060005260206000200160009054906101000a900473ffffffffffffffffffffffffffffffffffffffff168260080160006101000a81548173ffffffffffffffffffffffffffffffffffffffff021916908373ffffffffffffffffffffffffffffffffffffffff1602179055506000606460508460060154610840919061199a565b61084a91906119f4565b905060008360080160009054906101000a900473ffffffffffffffffffffffffffffffffffffffff1673ffffffffffffffffffffffffffffffffffffffff168260405161089690611a56565b60006040518083038185875af1925050503d80600081146108d3576040519150601f19603f3d011682016040523d82523d6000602084013e6108d8565b606091505b505090508061091c576040517f08c379a000000000000000000000000000000000000000000000000000000000815260040161091390611ab7565b60405180910390fd5b60008460020160009054906101000a900473ffffffffffffffffffffffffffffffffffffffff1690508073ffffffffffffffffffffffffffffffffffffffff166342842e0e308760080160009054906101000a900473ffffffffffffffffffffffffffffffffffffffff1688600101546040518463ffffffff1660e01b81526004016109aa939291906116d6565b600060405180830381600087803b1580156109c457600080fd5b505af11580156109d8573d6000803e3d6000fd5b5050505060008560040160006101000a81548160ff021916908315150217905550600085600601819055507ffac10e0739a467d8ae8f83bd7449aaf94a4d1b2076220adb6c493bde41875c7d8560080160009054906101000a900473ffffffffffffffffffffffffffffffffffffffff168660040160009054906101000a900460ff168760020160009054906101000a900473ffffffffffffffffffffffffffffffffffffffff1686604051610a919493929190611ad7565b60405180910390a1505050505050565b60008060009054906101000a900473ffffffffffffffffffffffffffffffffffffffff16905090565b6000806000806060600080600080600860008b815260200190815260200160002090508060000160009054906101000a900473ffffffffffffffffffffffffffffffffffffffff168160020160009054906101000a900473ffffffffffffffffffffffffffffffffffffffff1682600301548360040160009054906101000a900460ff168460050185600601548660080160009054906101000a900473ffffffffffffffffffffffffffffffffffffffff16876009015483805480602002602001604051908101604052809291908181526020018280548015610c0257602002820191906000526020600020905b8160009054906101000a900473ffffffffffffffffffffffffffffffffffffffff1673ffffffffffffffffffffffffffffffffffffffff1681526020019060010190808311610bb8575b505050505093509850985098509850985098509850985050919395975091939597565b610c2d610e21565b600160009054906101000a900473ffffffffffffffffffffffffffffffffffffffff1673ffffffffffffffffffffffffffffffffffffffff16635d3b1d30600354600160149054906101000a900467ffffffffffffffff1660048054906101000a900461ffff16600460009054906101000a900463ffffffff16600460069054906101000a900463ffffffff166040518663ffffffff1660e01b8152600401610cda959493929190611b94565b602060405180830381600087803b158015610cf457600080fd5b505af1158015610d08573d6000803e3d6000fd5b505050506040513d601f19601f82011682018060405250810190610d2c9190611bfc565b600681905550565b60065481565b610d42610e21565b600073ffffffffffffffffffffffffffffffffffffffff168173ffffffffffffffffffffffffffffffffffffffff161415610db2576040517f08c379a0000000000000000000000000000000000000000000000000000000008152600401610da990611c9b565b60405180910390fd5b610dbb81610e9f565b50565b60058181548110610dce57600080fd5b906000526020600020016000915090505481565b600081600001549050919050565b6001816000016000828254019250508190555050565b8060059080519060200190610e1c929190610f6b565b505050565b610e29610f63565b73ffffffffffffffffffffffffffffffffffffffff16610e47610aa1565b73ffffffffffffffffffffffffffffffffffffffff1614610e9d576040517f08c379a0000000000000000000000000000000000000000000000000000000008152600401610e9490611d07565b60405180910390fd5b565b60008060009054906101000a900473ffffffffffffffffffffffffffffffffffffffff169050816000806101000a81548173ffffffffffffffffffffffffffffffffffffffff021916908373ffffffffffffffffffffffffffffffffffffffff1602179055508173ffffffffffffffffffffffffffffffffffffffff168173ffffffffffffffffffffffffffffffffffffffff167f8be0079c531659141344cd1fd0a4f28419497f9722a3daafe3b4186f6b6457e060405160405180910390a35050565b600033905090565b828054828255906000526020600020908101928215610fa7579160200282015b82811115610fa6578251825591602001919060010190610f8b565b5b509050610fb49190610fb8565b5090565b5b80821115610fd1576000816000905550600101610fb9565b5090565b6000604051905090565b600080fd5b600080fd5b6000819050919050565b610ffc81610fe9565b811461100757600080fd5b50565b60008135905061101981610ff3565b92915050565b600073ffffffffffffffffffffffffffffffffffffffff82169050919050565b600061104a8261101f565b9050919050565b61105a8161103f565b811461106557600080fd5b50565b60008135905061107781611051565b92915050565b6000806000806080858703121561109757611096610fdf565b5b60006110a58782880161100a565b94505060206110b687828801611068565b93505060406110c78782880161100a565b92505060606110d887828801611068565b91505092959194509250565b60007fffffffff0000000000000000000000000000000000000000000000000000000082169050919050565b611119816110e4565b82525050565b60006020820190506111346000830184611110565b92915050565b600080fd5b600080fd5b6000601f19601f8301169050919050565b7f4e487b7100000000000000000000000000000000000000000000000000000000600052604160045260246000fd5b61118d82611144565b810181811067ffffffffffffffff821117156111ac576111ab611155565b5b80604052505050565b60006111bf610fd5565b90506111cb8282611184565b919050565b600067ffffffffffffffff8211156111eb576111ea611155565b5b6111f482611144565b9050602081019050919050565b82818337600083830152505050565b600061122361121e846111d0565b6111b5565b90508281526020810184848401111561123f5761123e61113f565b5b61124a848285611201565b509392505050565b600082601f8301126112675761126661113a565b5b8135611277848260208601611210565b91505092915050565b6000806000806080858703121561129a57611299610fdf565b5b60006112a887828801611068565b94505060206112b987828801611068565b93505060406112ca8782880161100a565b925050606085013567ffffffffffffffff8111156112eb576112ea610fe4565b5b6112f787828801611252565b91505092959194509250565b600067ffffffffffffffff82111561131e5761131d611155565b5b602082029050602081019050919050565b600080fd5b600061134761134284611303565b6111b5565b9050808382526020820190506020840283018581111561136a5761136961132f565b5b835b81811015611393578061137f888261100a565b84526020840193505060208101905061136c565b5050509392505050565b600082601f8301126113b2576113b161113a565b5b81356113c2848260208601611334565b91505092915050565b600080604083850312156113e2576113e1610fdf565b5b60006113f08582860161100a565b925050602083013567ffffffffffffffff81111561141157611410610fe4565b5b61141d8582860161139d565b9150509250929050565b60006020828403121561143d5761143c610fdf565b5b600061144b8482850161100a565b91505092915050565b61145d81610fe9565b82525050565b60006020820190506114786000830184611454565b92915050565b6114878161103f565b82525050565b60006020820190506114a2600083018461147e565b92915050565b60008115159050919050565b6114bd816114a8565b82525050565b600081519050919050565b600082825260208201905092915050565b6000819050602082019050919050565b6114f88161103f565b82525050565b600061150a83836114ef565b60208301905092915050565b6000602082019050919050565b600061152e826114c3565b61153881856114ce565b9350611543836114df565b8060005b8381101561157457815161155b88826114fe565b975061156683611516565b925050600181019050611547565b5085935050505092915050565b600061010082019050611597600083018b61147e565b6115a4602083018a61147e565b6115b16040830189611454565b6115be60608301886114b4565b81810360808301526115d08187611523565b90506115df60a0830186611454565b6115ec60c083018561147e565b6115f960e0830184611454565b9998505050505050505050565b60006020828403121561161c5761161b610fdf565b5b600061162a84828501611068565b91505092915050565b600082825260208201905092915050565b7f42657474696e672070726963652073686f756c6420626520677265617465722060008201527f7468616e207a65726f2e00000000000000000000000000000000000000000000602082015250565b60006116a0602a83611633565b91506116ab82611644565b604082019050919050565b600060208201905081810360008301526116cf81611693565b9050919050565b60006060820190506116eb600083018661147e565b6116f8602083018561147e565b6117056040830184611454565b949350505050565b600060e082019050611722600083018a61147e565b61172f6020830189611454565b61173c604083018861147e565b6117496060830187611454565b61175660808301866114b4565b61176360a083018561147e565b61177060c0830184611454565b98975050505050505050565b6000604082019050611791600083018561147e565b61179e602083018461147e565b9392505050565b7f546f2070617274696369706174652c20706c656173652066756e64207468652060008201527f61646472657373207769746820656e6f75676820657468657220746f2062757960208201527f20746865207469636b65742e0000000000000000000000000000000000000000604082015250565b6000611827604c83611633565b9150611832826117a5565b606082019050919050565b600060208201905081810360008301526118568161181a565b9050919050565b7f4e487b7100000000000000000000000000000000000000000000000000000000600052601160045260246000fd5b600061189782610fe9565b91506118a283610fe9565b9250827fffffffffffffffffffffffffffffffffffffffffffffffffffffffffffffffff038211156118d7576118d661185d565b5b828201905092915050565b60006040820190506118f7600083018561147e565b6119046020830184611454565b9392505050565b7f4e487b7100000000000000000000000000000000000000000000000000000000600052603260045260246000fd5b7f4e487b7100000000000000000000000000000000000000000000000000000000600052601260045260246000fd5b600061197482610fe9565b915061197f83610fe9565b92508261198f5761198e61193a565b5b828206905092915050565b60006119a582610fe9565b91506119b083610fe9565b9250817fffffffffffffffffffffffffffffffffffffffffffffffffffffffffffffffff04831182151516156119e9576119e861185d565b5b828202905092915050565b60006119ff82610fe9565b9150611a0a83610fe9565b925082611a1a57611a1961193a565b5b828204905092915050565b600081905092915050565b50565b6000611a40600083611a25565b9150611a4b82611a30565b600082019050919050565b6000611a6182611a33565b9150819050919050565b7f6661696c65640000000000000000000000000000000000000000000000000000600082015250565b6000611aa1600683611633565b9150611aac82611a6b565b602082019050919050565b60006020820190508181036000830152611ad081611a94565b9050919050565b6000608082019050611aec600083018761147e565b611af960208301866114b4565b611b06604083018561147e565b611b136060830184611454565b95945050505050565b6000819050919050565b611b2f81611b1c565b82525050565b600067ffffffffffffffff82169050919050565b611b5281611b35565b82525050565b600061ffff82169050919050565b611b6f81611b58565b82525050565b600063ffffffff82169050919050565b611b8e81611b75565b82525050565b600060a082019050611ba96000830188611b26565b611bb66020830187611b49565b611bc36040830186611b66565b611bd06060830185611b85565b611bdd6080830184611b85565b9695505050505050565b600081519050611bf681610ff3565b92915050565b600060208284031215611c1257611c11610fdf565b5b6000611c2084828501611be7565b91505092915050565b7f4f776e61626c653a206e6577206f776e657220697320746865207a65726f206160008201527f6464726573730000000000000000000000000000000000000000000000000000602082015250565b6000611c85602683611633565b9150611c9082611c29565b604082019050919050565b60006020820190508181036000830152611cb481611c78565b9050919050565b7f4f776e61626c653a2063616c6c6572206973206e6f7420746865206f776e6572600082015250565b6000611cf1602083611633565b9150611cfc82611cbb565b602082019050919050565b60006020820190508181036000830152611d2081611ce4565b905091905056fea2646970667358221220d46547b47173c42aea3e36595eeae96524e18ddf47c56e9d9f7b70648742af0364736f6c63430008090033",
  "linkReferences": {},
  "deployedLinkReferences": {}
}