{
  "_format": "hh-sol-artifact-1",
  "contractName": "Lottery",
  "sourceName": "contracts/Lottery.sol",
  "abi": [
    {
      "inputs": [
        {
          "internalType": "address",
          "name": "_vrfCoordinatorV2",
          "type": "address"
        },
        {
          "internalType": "uint64",
          "name": "_vrfSubscriptionId",
          "type": "uint64"
        },
        {
          "internalType": "bytes32",
          "name": "_vrfGasLane",
          "type": "bytes32"
        },
        {
          "internalType": "uint32",
          "name": "_vrfCallbackGasLimit",
          "type": "uint32"
        }
      ],
      "stateMutability": "nonpayable",
      "type": "constructor"
    },
    {
      "inputs": [
        {
          "internalType": "address",
          "name": "have",
          "type": "address"
        },
        {
          "internalType": "address",
          "name": "want",
          "type": "address"
        }
      ],
      "name": "OnlyCoordinatorCanFulfill",
      "type": "error"
    },
    {
      "anonymous": false,
      "inputs": [
        {
          "indexed": false,
          "internalType": "address",
          "name": "player",
          "type": "address"
        },
        {
          "indexed": false,
          "internalType": "uint256",
          "name": "lotteryBalance",
          "type": "uint256"
        }
      ],
      "name": "BuyTicket",
      "type": "event"
    },
    {
      "anonymous": false,
      "inputs": [
        {
          "indexed": false,
          "internalType": "uint256",
          "name": "lotteryId",
          "type": "uint256"
        }
      ],
      "name": "EndLotteryEvent",
      "type": "event"
    },
    {
      "anonymous": false,
      "inputs": [
        {
          "indexed": true,
          "internalType": "address",
          "name": "previousOwner",
          "type": "address"
        },
        {
          "indexed": true,
          "internalType": "address",
          "name": "newOwner",
          "type": "address"
        }
      ],
      "name": "OwnershipTransferred",
      "type": "event"
    },
    {
      "anonymous": false,
      "inputs": [
        {
          "indexed": false,
          "internalType": "uint256",
          "name": "requestId",
          "type": "uint256"
        }
      ],
      "name": "PendingLotteriesWordsRequested",
      "type": "event"
    },
    {
      "anonymous": false,
      "inputs": [
        {
          "indexed": false,
          "internalType": "address",
          "name": "currentWinner",
          "type": "address"
        },
        {
          "indexed": false,
          "internalType": "bool",
          "name": "activeLottery",
          "type": "bool"
        },
        {
          "indexed": false,
          "internalType": "address",
          "name": "nftContractAddress",
          "type": "address"
        },
        {
          "indexed": false,
          "internalType": "uint256",
          "name": "awardBalance",
          "type": "uint256"
        }
      ],
      "name": "PickTheWinner",
      "type": "event"
    },
    {
      "anonymous": false,
      "inputs": [
        {
          "indexed": false,
          "internalType": "address",
          "name": "nftOwner",
          "type": "address"
        },
        {
          "indexed": false,
          "internalType": "uint256",
          "name": "nftTokenId",
          "type": "uint256"
        },
        {
          "indexed": false,
          "internalType": "address",
          "name": "nftContractAddress",
          "type": "address"
        },
        {
          "indexed": false,
          "internalType": "uint256",
          "name": "bettingPrice",
          "type": "uint256"
        },
        {
          "indexed": false,
          "internalType": "bool",
          "name": "activeLottery",
          "type": "bool"
        },
        {
          "indexed": false,
          "internalType": "address",
          "name": "beneficiaryAddress",
          "type": "address"
        },
        {
          "indexed": false,
          "internalType": "uint256",
          "name": "endDate",
          "type": "uint256"
        }
      ],
      "name": "SingleLottery",
      "type": "event"
    },
    {
      "inputs": [],
      "name": "CONTRACT_FEE",
      "outputs": [
        {
          "internalType": "uint256",
          "name": "",
          "type": "uint256"
        }
      ],
      "stateMutability": "view",
      "type": "function"
    },
    {
      "inputs": [
        {
          "internalType": "uint256",
          "name": "_lotteryId",
          "type": "uint256"
        }
      ],
      "name": "buyTicket",
      "outputs": [],
      "stateMutability": "payable",
      "type": "function"
    },
    {
      "inputs": [
        {
          "internalType": "bytes",
          "name": "checkdata",
          "type": "bytes"
        }
      ],
      "name": "checkUpkeep",
      "outputs": [
        {
          "internalType": "bool",
          "name": "upkeepNeeded",
          "type": "bool"
        },
        {
          "internalType": "bytes",
          "name": "performData",
          "type": "bytes"
        }
      ],
      "stateMutability": "view",
      "type": "function"
    },
    {
      "inputs": [],
      "name": "getContractBalance",
      "outputs": [
        {
          "internalType": "uint256",
          "name": "",
          "type": "uint256"
        }
      ],
      "stateMutability": "view",
      "type": "function"
    },
    {
      "inputs": [
        {
          "internalType": "uint256",
          "name": "_lotteryId",
          "type": "uint256"
        }
      ],
      "name": "getLottery",
      "outputs": [
        {
          "components": [
            {
              "internalType": "address",
              "name": "nftOwner",
              "type": "address"
            },
            {
              "internalType": "address",
              "name": "nftContractAddress",
              "type": "address"
            },
            {
              "internalType": "uint256",
              "name": "bettingPrice",
              "type": "uint256"
            },
            {
              "internalType": "bool",
              "name": "activeLottery",
              "type": "bool"
            },
            {
              "internalType": "address[]",
              "name": "players",
              "type": "address[]"
            },
            {
              "internalType": "uint256",
              "name": "lotteryBalance",
              "type": "uint256"
            },
            {
              "internalType": "address",
              "name": "beneficiaryAddress",
              "type": "address"
            },
            {
              "internalType": "address",
              "name": "lotteryWinner",
              "type": "address"
            },
            {
              "internalType": "uint256",
              "name": "endDate",
              "type": "uint256"
            },
            {
              "internalType": "uint256",
              "name": "nftTokenId",
              "type": "uint256"
            }
          ],
          "internalType": "struct Lottery.singleLottery",
          "name": "",
          "type": "tuple"
        }
      ],
      "stateMutability": "view",
      "type": "function"
    },
    {
      "inputs": [],
      "name": "getLotteryCount",
      "outputs": [
        {
          "internalType": "uint256",
          "name": "",
          "type": "uint256"
        }
      ],
      "stateMutability": "view",
      "type": "function"
    },
    {
      "inputs": [
        {
          "internalType": "address",
          "name": "",
          "type": "address"
        },
        {
          "internalType": "address",
          "name": "",
          "type": "address"
        },
        {
          "internalType": "uint256",
          "name": "",
          "type": "uint256"
        },
        {
          "internalType": "bytes",
          "name": "",
          "type": "bytes"
        }
      ],
      "name": "onERC721Received",
      "outputs": [
        {
          "internalType": "bytes4",
          "name": "",
          "type": "bytes4"
        }
      ],
      "stateMutability": "nonpayable",
      "type": "function"
    },
    {
      "inputs": [],
      "name": "owner",
      "outputs": [
        {
          "internalType": "address",
          "name": "",
          "type": "address"
        }
      ],
      "stateMutability": "view",
      "type": "function"
    },
    {
      "inputs": [
        {
          "internalType": "bytes",
          "name": "",
          "type": "bytes"
        }
      ],
      "name": "performUpkeep",
      "outputs": [],
      "stateMutability": "nonpayable",
      "type": "function"
    },
    {
      "inputs": [
        {
          "internalType": "uint256",
          "name": "requestId",
          "type": "uint256"
        },
        {
          "internalType": "uint256[]",
          "name": "randomWords",
          "type": "uint256[]"
        }
      ],
      "name": "rawFulfillRandomWords",
      "outputs": [],
      "stateMutability": "nonpayable",
      "type": "function"
    },
    {
      "inputs": [],
      "name": "renounceOwnership",
      "outputs": [],
      "stateMutability": "nonpayable",
      "type": "function"
    },
    {
      "inputs": [],
      "name": "requestWordsPendingLotteries",
      "outputs": [
        {
          "internalType": "uint256",
          "name": "s_requestId",
          "type": "uint256"
        }
      ],
      "stateMutability": "nonpayable",
      "type": "function"
    },
    {
      "inputs": [],
      "name": "s_pendingLotteryEnd",
      "outputs": [
        {
          "internalType": "bool",
          "name": "",
          "type": "bool"
        }
      ],
      "stateMutability": "view",
      "type": "function"
    },
    {
      "inputs": [
        {
          "internalType": "uint256",
          "name": "_tokenId",
          "type": "uint256"
        },
        {
          "internalType": "address",
          "name": "_nftContractAddress",
          "type": "address"
        },
        {
          "internalType": "uint256",
          "name": "_bettingPrice",
          "type": "uint256"
        },
        {
          "internalType": "address",
          "name": "_beneficiaryAddress",
          "type": "address"
        },
        {
          "internalType": "uint256",
          "name": "_endDate",
          "type": "uint256"
        }
      ],
      "name": "startLottery",
      "outputs": [
        {
          "internalType": "bytes4",
          "name": "",
          "type": "bytes4"
        }
      ],
      "stateMutability": "nonpayable",
      "type": "function"
    },
    {
      "inputs": [
        {
          "internalType": "address",
          "name": "newOwner",
          "type": "address"
        }
      ],
      "name": "transferOwnership",
      "outputs": [],
      "stateMutability": "nonpayable",
      "type": "function"
    }
  ],
  "bytecode": "0x6101206040523480156200001257600080fd5b5060405162002ae638038062002ae68339818101604052810190620000389190620002fc565b83620000596200004d6200010560201b60201c565b6200010d60201b60201c565b8073ffffffffffffffffffffffffffffffffffffffff1660808173ffffffffffffffffffffffffffffffffffffffff1681525050508373ffffffffffffffffffffffffffffffffffffffff1660a08173ffffffffffffffffffffffffffffffffffffffff16815250508267ffffffffffffffff1660c08167ffffffffffffffff16815250508160e081815250508063ffffffff166101008163ffffffff1681525050505050506200036e565b600033905090565b60008060009054906101000a900473ffffffffffffffffffffffffffffffffffffffff169050816000806101000a81548173ffffffffffffffffffffffffffffffffffffffff021916908373ffffffffffffffffffffffffffffffffffffffff1602179055508173ffffffffffffffffffffffffffffffffffffffff168173ffffffffffffffffffffffffffffffffffffffff167f8be0079c531659141344cd1fd0a4f28419497f9722a3daafe3b4186f6b6457e060405160405180910390a35050565b600080fd5b600073ffffffffffffffffffffffffffffffffffffffff82169050919050565b60006200020382620001d6565b9050919050565b6200021581620001f6565b81146200022157600080fd5b50565b60008151905062000235816200020a565b92915050565b600067ffffffffffffffff82169050919050565b6200025a816200023b565b81146200026657600080fd5b50565b6000815190506200027a816200024f565b92915050565b6000819050919050565b620002958162000280565b8114620002a157600080fd5b50565b600081519050620002b5816200028a565b92915050565b600063ffffffff82169050919050565b620002d681620002bb565b8114620002e257600080fd5b50565b600081519050620002f681620002cb565b92915050565b60008060008060808587031215620003195762000318620001d1565b5b6000620003298782880162000224565b94505060206200033c8782880162000269565b93505060406200034f87828801620002a4565b92505060606200036287828801620002e5565b91505092959194509250565b60805160a05160c05160e0516101005161272c620003ba6000396000610cc901526000610c8501526000610ca601526000610c490152600081816103a801526103fc015261272c6000f3fe6080604052600436106100e85760003560e01c8063715018a61161008a578063c5a4605a11610059578063c5a4605a146102e8578063c89663ed14610313578063f2fde38b1461033e578063f70d374614610367576100e8565b8063715018a61461022c57806379f0c3df146102435780638da5cb5b1461028057806392e845f6146102ab576100e8565b80634585e33b116100c65780634585e33b1461017e57806367dd74ca146101a75780636e04ff0d146101c35780636f9fb98a14610201576100e8565b8063150b7a02146100ed5780631fe543e31461012a5780632f9aa1fe14610153575b600080fd5b3480156100f957600080fd5b50610114600480360381019061010f9190611749565b610392565b6040516101219190611807565b60405180910390f35b34801561013657600080fd5b50610151600480360381019061014c91906118ea565b6103a6565b005b34801561015f57600080fd5b50610168610466565b6040516101759190611955565b60405180910390f35b34801561018a57600080fd5b506101a560048036038101906101a091906119cb565b610477565b005b6101c160048036038101906101bc9190611a18565b610484565b005b3480156101cf57600080fd5b506101ea60048036038101906101e591906119cb565b61063f565b6040516101f8929190611ae8565b60405180910390f35b34801561020d57600080fd5b506102166106d0565b6040516102239190611955565b60405180910390f35b34801561023857600080fd5b506102416106d8565b005b34801561024f57600080fd5b5061026a60048036038101906102659190611b18565b6106ec565b6040516102779190611807565b60405180910390f35b34801561028c57600080fd5b50610295610974565b6040516102a29190611ba2565b60405180910390f35b3480156102b757600080fd5b506102d260048036038101906102cd9190611a18565b61099d565b6040516102df9190611d73565b60405180910390f35b3480156102f457600080fd5b506102fd610c45565b60405161030a9190611955565b60405180910390f35b34801561031f57600080fd5b50610328610db3565b6040516103359190611d95565b60405180910390f35b34801561034a57600080fd5b5061036560048036038101906103609190611db0565b610dc6565b005b34801561037357600080fd5b5061037c610e4a565b6040516103899190611955565b60405180910390f35b600063150b7a0260e01b9050949350505050565b7f000000000000000000000000000000000000000000000000000000000000000073ffffffffffffffffffffffffffffffffffffffff163373ffffffffffffffffffffffffffffffffffffffff161461045857337f00000000000000000000000000000000000000000000000000000000000000006040517f1cf993f400000000000000000000000000000000000000000000000000000000815260040161044f929190611ddd565b60405180910390fd5b6104628282610e4f565b5050565b60006104726001610f66565b905090565b61047f610c45565b505050565b61048e6001610f66565b81106104cf576040517f08c379a00000000000000000000000000000000000000000000000000000000081526004016104c690611e89565b60405180910390fd5b60006002600083815260200190815260200160002090508060030160009054906101000a900460ff16610537576040517f08c379a000000000000000000000000000000000000000000000000000000000815260040161052e90611f41565b60405180910390fd5b8060020154341461057d576040517f08c379a000000000000000000000000000000000000000000000000000000000815260040161057490611fd3565b60405180910390fd5b80600401339080600181540180825580915050600190039060005260206000200160009091909190916101000a81548173ffffffffffffffffffffffffffffffffffffffff021916908373ffffffffffffffffffffffffffffffffffffffff160217905550806002015481600501546105f69190612022565b81600501819055507f2a3164428cba5dad15f5ffe47e10cbefdcbbe9e269fd482753982ee8b2648c3e338260050154604051610633929190612078565b60405180910390a15050565b6000606060005b6106506001610f66565b8110156106815761066081610f74565b1561066e5760019250610681565b8080610679906120a1565b915050610646565b5083838080601f016020809104026020016040519081016040528093929190818152602001838380828437600081840152601f19601f8201169050808301925050505050505090509250929050565b600047905090565b6106e0610ff5565b6106ea6000611073565b565b6000808411610730576040517f08c379a00000000000000000000000000000000000000000000000000000000081526004016107279061215c565b60405180910390fd5b428211610772576040517f08c379a0000000000000000000000000000000000000000000000000000000008152600401610769906121ee565b60405180910390fd5b60008590508073ffffffffffffffffffffffffffffffffffffffff166342842e0e33308a6040518463ffffffff1660e01b81526004016107b49392919061220e565b600060405180830381600087803b1580156107ce57600080fd5b505af11580156107e2573d6000803e3d6000fd5b505050506000600260006107f66001610f66565b81526020019081526020016000209050338160000160006101000a81548173ffffffffffffffffffffffffffffffffffffffff021916908373ffffffffffffffffffffffffffffffffffffffff160217905550878160090181905550868160010160006101000a81548173ffffffffffffffffffffffffffffffffffffffff021916908373ffffffffffffffffffffffffffffffffffffffff16021790555085816002018190555060018160030160006101000a81548160ff02191690831515021790555060008160050181905550848160060160006101000a81548173ffffffffffffffffffffffffffffffffffffffff021916908373ffffffffffffffffffffffffffffffffffffffff1602179055508381600801819055507f8f091eb0e0cdf901a8325af719fb5bffee6be7ce8c77a252855ca32be8c4c2f53389898960018a8a60405161094d9796959493929190612245565b60405180910390a161095f6001611137565b63150b7a0260e01b9250505095945050505050565b60008060009054906101000a900473ffffffffffffffffffffffffffffffffffffffff16905090565b6109a56114ae565b6109af6001610f66565b82106109f0576040517f08c379a00000000000000000000000000000000000000000000000000000000081526004016109e790611e89565b60405180910390fd5b600060026000848152602001908152602001600020905080604051806101400160405290816000820160009054906101000a900473ffffffffffffffffffffffffffffffffffffffff1673ffffffffffffffffffffffffffffffffffffffff1673ffffffffffffffffffffffffffffffffffffffff1681526020016001820160009054906101000a900473ffffffffffffffffffffffffffffffffffffffff1673ffffffffffffffffffffffffffffffffffffffff1673ffffffffffffffffffffffffffffffffffffffff168152602001600282015481526020016003820160009054906101000a900460ff1615151515815260200160048201805480602002602001604051908101604052809291908181526020018280548015610b6a57602002820191906000526020600020905b8160009054906101000a900473ffffffffffffffffffffffffffffffffffffffff1673ffffffffffffffffffffffffffffffffffffffff1681526020019060010190808311610b20575b50505050508152602001600582015481526020016006820160009054906101000a900473ffffffffffffffffffffffffffffffffffffffff1673ffffffffffffffffffffffffffffffffffffffff1673ffffffffffffffffffffffffffffffffffffffff1681526020016007820160009054906101000a900473ffffffffffffffffffffffffffffffffffffffff1673ffffffffffffffffffffffffffffffffffffffff1673ffffffffffffffffffffffffffffffffffffffff16815260200160088201548152602001600982015481525050915050919050565b60007f000000000000000000000000000000000000000000000000000000000000000073ffffffffffffffffffffffffffffffffffffffff16635d3b1d307f00000000000000000000000000000000000000000000000000000000000000007f000000000000000000000000000000000000000000000000000000000000000060037f000000000000000000000000000000000000000000000000000000000000000060016040518663ffffffff1660e01b8152600401610d0a95949392919061232c565b602060405180830381600087803b158015610d2457600080fd5b505af1158015610d38573d6000803e3d6000fd5b505050506040513d601f19601f82011682018060405250810190610d5c9190612394565b90506001600060146101000a81548160ff0219169083151502179055507f4086bd1a4642868b523b32dd30da50e47fa52139cffe27b6b9dba005a3381cb981604051610da89190611955565b60405180910390a190565b600060149054906101000a900460ff1681565b610dce610ff5565b600073ffffffffffffffffffffffffffffffffffffffff168173ffffffffffffffffffffffffffffffffffffffff161415610e3e576040517f08c379a0000000000000000000000000000000000000000000000000000000008152600401610e3590612433565b60405180910390fd5b610e4781611073565b50565b600581565b60008060146101000a81548160ff02191690831515021790555060005b610e766001610f66565b811015610f6157610e8681610f74565b15610f4e57610f4d81600260008481526020019081526020016000206004018054905084600081518110610ebd57610ebc612453565b5b602002602001015160026000868152602001908152602001600020600901546002600087815260200190815260200160002060010160009054906101000a900473ffffffffffffffffffffffffffffffffffffffff16604051602001610f2593929190612482565b6040516020818303038152906040528051906020012060001c610f4891906124e8565b61114d565b5b8080610f59906120a1565b915050610e6c565b505050565b600081600001549050919050565b60008060149054906101000a900460ff1615610f935760009050610ff0565b6002600083815260200190815260200160002060030160009054906101000a900460ff16610fc45760009050610ff0565b4260026000848152602001908152602001600020600801541115610feb5760009050610ff0565b600190505b919050565b610ffd6114a6565b73ffffffffffffffffffffffffffffffffffffffff1661101b610974565b73ffffffffffffffffffffffffffffffffffffffff1614611071576040517f08c379a000000000000000000000000000000000000000000000000000000000815260040161106890612565565b60405180910390fd5b565b60008060009054906101000a900473ffffffffffffffffffffffffffffffffffffffff169050816000806101000a81548173ffffffffffffffffffffffffffffffffffffffff021916908373ffffffffffffffffffffffffffffffffffffffff1602179055508173ffffffffffffffffffffffffffffffffffffffff168173ffffffffffffffffffffffffffffffffffffffff167f8be0079c531659141344cd1fd0a4f28419497f9722a3daafe3b4186f6b6457e060405160405180910390a35050565b6001816000016000828254019250508190555050565b6111576001610f66565b8210611198576040517f08c379a000000000000000000000000000000000000000000000000000000000815260040161118f90611e89565b60405180910390fd5b60006002600084815260200190815260200160002090508060030160009054906101000a900460ff16611200576040517f08c379a00000000000000000000000000000000000000000000000000000000081526004016111f790611f41565b60405180910390fd5b80600401828154811061121657611215612453565b5b9060005260206000200160009054906101000a900473ffffffffffffffffffffffffffffffffffffffff168160070160006101000a81548173ffffffffffffffffffffffffffffffffffffffff021916908373ffffffffffffffffffffffffffffffffffffffff16021790555060006064600560646112959190612585565b83600501546112a491906125b9565b6112ae9190612613565b905060008260060160009054906101000a900473ffffffffffffffffffffffffffffffffffffffff1673ffffffffffffffffffffffffffffffffffffffff16826040516112fa90612675565b60006040518083038185875af1925050503d8060008114611337576040519150601f19603f3d011682016040523d82523d6000602084013e61133c565b606091505b5050905080611380576040517f08c379a0000000000000000000000000000000000000000000000000000000008152600401611377906126d6565b60405180910390fd5b60008360030160006101000a81548160ff021916908315150217905550600083600501819055507f3056e6a2c5f046f7a52808a2d667aa237021e443f84237f476e8ea63f7c3ba01856040516113d69190611955565b60405180910390a160008360010160009054906101000a900473ffffffffffffffffffffffffffffffffffffffff1690508073ffffffffffffffffffffffffffffffffffffffff166342842e0e308660070160009054906101000a900473ffffffffffffffffffffffffffffffffffffffff1687600901546040518463ffffffff1660e01b815260040161146c9392919061220e565b600060405180830381600087803b15801561148657600080fd5b505af115801561149a573d6000803e3d6000fd5b50505050505050505050565b600033905090565b604051806101400160405280600073ffffffffffffffffffffffffffffffffffffffff168152602001600073ffffffffffffffffffffffffffffffffffffffff168152602001600081526020016000151581526020016060815260200160008152602001600073ffffffffffffffffffffffffffffffffffffffff168152602001600073ffffffffffffffffffffffffffffffffffffffff16815260200160008152602001600081525090565b6000604051905090565b600080fd5b600080fd5b600073ffffffffffffffffffffffffffffffffffffffff82169050919050565b600061159a8261156f565b9050919050565b6115aa8161158f565b81146115b557600080fd5b50565b6000813590506115c7816115a1565b92915050565b6000819050919050565b6115e0816115cd565b81146115eb57600080fd5b50565b6000813590506115fd816115d7565b92915050565b600080fd5b600080fd5b6000601f19601f8301169050919050565b7f4e487b7100000000000000000000000000000000000000000000000000000000600052604160045260246000fd5b6116568261160d565b810181811067ffffffffffffffff821117156116755761167461161e565b5b80604052505050565b600061168861155b565b9050611694828261164d565b919050565b600067ffffffffffffffff8211156116b4576116b361161e565b5b6116bd8261160d565b9050602081019050919050565b82818337600083830152505050565b60006116ec6116e784611699565b61167e565b90508281526020810184848401111561170857611707611608565b5b6117138482856116ca565b509392505050565b600082601f8301126117305761172f611603565b5b81356117408482602086016116d9565b91505092915050565b6000806000806080858703121561176357611762611565565b5b6000611771878288016115b8565b9450506020611782878288016115b8565b9350506040611793878288016115ee565b925050606085013567ffffffffffffffff8111156117b4576117b361156a565b5b6117c08782880161171b565b91505092959194509250565b60007fffffffff0000000000000000000000000000000000000000000000000000000082169050919050565b611801816117cc565b82525050565b600060208201905061181c60008301846117f8565b92915050565b600067ffffffffffffffff82111561183d5761183c61161e565b5b602082029050602081019050919050565b600080fd5b600061186661186184611822565b61167e565b905080838252602082019050602084028301858111156118895761188861184e565b5b835b818110156118b2578061189e88826115ee565b84526020840193505060208101905061188b565b5050509392505050565b600082601f8301126118d1576118d0611603565b5b81356118e1848260208601611853565b91505092915050565b6000806040838503121561190157611900611565565b5b600061190f858286016115ee565b925050602083013567ffffffffffffffff8111156119305761192f61156a565b5b61193c858286016118bc565b9150509250929050565b61194f816115cd565b82525050565b600060208201905061196a6000830184611946565b92915050565b600080fd5b60008083601f84011261198b5761198a611603565b5b8235905067ffffffffffffffff8111156119a8576119a7611970565b5b6020830191508360018202830111156119c4576119c361184e565b5b9250929050565b600080602083850312156119e2576119e1611565565b5b600083013567ffffffffffffffff811115611a00576119ff61156a565b5b611a0c85828601611975565b92509250509250929050565b600060208284031215611a2e57611a2d611565565b5b6000611a3c848285016115ee565b91505092915050565b60008115159050919050565b611a5a81611a45565b82525050565b600081519050919050565b600082825260208201905092915050565b60005b83811015611a9a578082015181840152602081019050611a7f565b83811115611aa9576000848401525b50505050565b6000611aba82611a60565b611ac48185611a6b565b9350611ad4818560208601611a7c565b611add8161160d565b840191505092915050565b6000604082019050611afd6000830185611a51565b8181036020830152611b0f8184611aaf565b90509392505050565b600080600080600060a08688031215611b3457611b33611565565b5b6000611b42888289016115ee565b9550506020611b53888289016115b8565b9450506040611b64888289016115ee565b9350506060611b75888289016115b8565b9250506080611b86888289016115ee565b9150509295509295909350565b611b9c8161158f565b82525050565b6000602082019050611bb76000830184611b93565b92915050565b611bc68161158f565b82525050565b611bd5816115cd565b82525050565b611be481611a45565b82525050565b600081519050919050565b600082825260208201905092915050565b6000819050602082019050919050565b6000611c228383611bbd565b60208301905092915050565b6000602082019050919050565b6000611c4682611bea565b611c508185611bf5565b9350611c5b83611c06565b8060005b83811015611c8c578151611c738882611c16565b9750611c7e83611c2e565b925050600181019050611c5f565b5085935050505092915050565b600061014083016000830151611cb26000860182611bbd565b506020830151611cc56020860182611bbd565b506040830151611cd86040860182611bcc565b506060830151611ceb6060860182611bdb565b5060808301518482036080860152611d038282611c3b565b91505060a0830151611d1860a0860182611bcc565b5060c0830151611d2b60c0860182611bbd565b5060e0830151611d3e60e0860182611bbd565b50610100830151611d53610100860182611bcc565b50610120830151611d68610120860182611bcc565b508091505092915050565b60006020820190508181036000830152611d8d8184611c99565b905092915050565b6000602082019050611daa6000830184611a51565b92915050565b600060208284031215611dc657611dc5611565565b5b6000611dd4848285016115b8565b91505092915050565b6000604082019050611df26000830185611b93565b611dff6020830184611b93565b9392505050565b600082825260208201905092915050565b7f546865206c6f747465727920496420676976656e20646f6573206e6f7420636f60008201527f72726573706f6e6420746f20616e206578697374696e67206c6f74746572792e602082015250565b6000611e73604083611e06565b9150611e7e82611e17565b604082019050919050565b60006020820190508181036000830152611ea281611e66565b9050919050565b7f546865206c6f747465727920496420676976656e20636f72726573706f6e647360008201527f20746f2061206c6f747465727920746861742068617320616c7265616479206560208201527f6e6465642e000000000000000000000000000000000000000000000000000000604082015250565b6000611f2b604583611e06565b9150611f3682611ea9565b606082019050919050565b60006020820190508181036000830152611f5a81611f1e565b9050919050565b7f546f2070617274696369706174652c20706c656173652061646420746865207260008201527f6571756972656420616d6f756e742e0000000000000000000000000000000000602082015250565b6000611fbd602f83611e06565b9150611fc882611f61565b604082019050919050565b60006020820190508181036000830152611fec81611fb0565b9050919050565b7f4e487b7100000000000000000000000000000000000000000000000000000000600052601160045260246000fd5b600061202d826115cd565b9150612038836115cd565b9250827fffffffffffffffffffffffffffffffffffffffffffffffffffffffffffffffff0382111561206d5761206c611ff3565b5b828201905092915050565b600060408201905061208d6000830185611b93565b61209a6020830184611946565b9392505050565b60006120ac826115cd565b91507fffffffffffffffffffffffffffffffffffffffffffffffffffffffffffffffff8214156120df576120de611ff3565b5b600182019050919050565b7f42657474696e672070726963652073686f756c6420626520677265617465722060008201527f7468616e207a65726f2e00000000000000000000000000000000000000000000602082015250565b6000612146602a83611e06565b9150612151826120ea565b604082019050919050565b6000602082019050818103600083015261217581612139565b9050919050565b7f456e6420646174652073686f756c64206265206c61746572207468616e20746860008201527f652063757272656e742074696d657374616d7000000000000000000000000000602082015250565b60006121d8603383611e06565b91506121e38261217c565b604082019050919050565b60006020820190508181036000830152612207816121cb565b9050919050565b60006060820190506122236000830186611b93565b6122306020830185611b93565b61223d6040830184611946565b949350505050565b600060e08201905061225a600083018a611b93565b6122676020830189611946565b6122746040830188611b93565b6122816060830187611946565b61228e6080830186611a51565b61229b60a0830185611b93565b6122a860c0830184611946565b98975050505050505050565b6000819050919050565b6122c7816122b4565b82525050565b600067ffffffffffffffff82169050919050565b6122ea816122cd565b82525050565b600061ffff82169050919050565b612307816122f0565b82525050565b600063ffffffff82169050919050565b6123268161230d565b82525050565b600060a08201905061234160008301886122be565b61234e60208301876122e1565b61235b60408301866122fe565b612368606083018561231d565b612375608083018461231d565b9695505050505050565b60008151905061238e816115d7565b92915050565b6000602082840312156123aa576123a9611565565b5b60006123b88482850161237f565b91505092915050565b7f4f776e61626c653a206e6577206f776e657220697320746865207a65726f206160008201527f6464726573730000000000000000000000000000000000000000000000000000602082015250565b600061241d602683611e06565b9150612428826123c1565b604082019050919050565b6000602082019050818103600083015261244c81612410565b9050919050565b7f4e487b7100000000000000000000000000000000000000000000000000000000600052603260045260246000fd5b60006060820190506124976000830186611946565b6124a46020830185611946565b6124b16040830184611b93565b949350505050565b7f4e487b7100000000000000000000000000000000000000000000000000000000600052601260045260246000fd5b60006124f3826115cd565b91506124fe836115cd565b92508261250e5761250d6124b9565b5b828206905092915050565b7f4f776e61626c653a2063616c6c6572206973206e6f7420746865206f776e6572600082015250565b600061254f602083611e06565b915061255a82612519565b602082019050919050565b6000602082019050818103600083015261257e81612542565b9050919050565b6000612590826115cd565b915061259b836115cd565b9250828210156125ae576125ad611ff3565b5b828203905092915050565b60006125c4826115cd565b91506125cf836115cd565b9250817fffffffffffffffffffffffffffffffffffffffffffffffffffffffffffffffff048311821515161561260857612607611ff3565b5b828202905092915050565b600061261e826115cd565b9150612629836115cd565b925082612639576126386124b9565b5b828204905092915050565b600081905092915050565b50565b600061265f600083612644565b915061266a8261264f565b600082019050919050565b600061268082612652565b9150819050919050565b7f5472616e73616374696f6e204661696c65640000000000000000000000000000600082015250565b60006126c0601283611e06565b91506126cb8261268a565b602082019050919050565b600060208201905081810360008301526126ef816126b3565b905091905056fea26469706673582212205eaad18f8ecdba38fcc44ebd309f4a4e9b25b419bfc95ee40bd4fd0f4aa9693d64736f6c63430008090033",
  "linkReferences": {},
  "deployedLinkReferences": {}
}