{
  "_format": "hh-sol-artifact-1",
  "contractName": "Lottery",
  "sourceName": "contracts/Lottery.sol",
  "abi": [
    {
      "inputs": [
        {
          "internalType": "address",
          "name": "_vrfCoordinatorV2",
          "type": "address"
        },
        {
          "internalType": "uint64",
          "name": "_vrfSubscriptionId",
          "type": "uint64"
        },
        {
          "internalType": "bytes32",
          "name": "_vrfGasLane",
          "type": "bytes32"
        },
        {
          "internalType": "uint32",
          "name": "_vrfCallbackGasLimit",
          "type": "uint32"
        }
      ],
      "stateMutability": "nonpayable",
      "type": "constructor"
    },
    {
      "inputs": [
        {
          "internalType": "address",
          "name": "have",
          "type": "address"
        },
        {
          "internalType": "address",
          "name": "want",
          "type": "address"
        }
      ],
      "name": "OnlyCoordinatorCanFulfill",
      "type": "error"
    },
    {
      "anonymous": false,
      "inputs": [
        {
          "indexed": false,
          "internalType": "address",
          "name": "player",
          "type": "address"
        },
        {
          "indexed": false,
          "internalType": "uint256",
          "name": "lotteryBalance",
          "type": "uint256"
        }
      ],
      "name": "BuyTicket",
      "type": "event"
    },
    {
      "anonymous": false,
      "inputs": [
        {
          "indexed": false,
          "internalType": "uint256",
          "name": "lotteryId",
          "type": "uint256"
        }
      ],
      "name": "EndLotteryEvent",
      "type": "event"
    },
    {
      "anonymous": false,
      "inputs": [
        {
          "indexed": true,
          "internalType": "address",
          "name": "previousOwner",
          "type": "address"
        },
        {
          "indexed": true,
          "internalType": "address",
          "name": "newOwner",
          "type": "address"
        }
      ],
      "name": "OwnershipTransferred",
      "type": "event"
    },
    {
      "anonymous": false,
      "inputs": [
        {
          "indexed": false,
          "internalType": "uint256",
          "name": "requestId",
          "type": "uint256"
        }
      ],
      "name": "PendingLotteriesWordsRequested",
      "type": "event"
    },
    {
      "anonymous": false,
      "inputs": [
        {
          "indexed": false,
          "internalType": "address",
          "name": "currentWinner",
          "type": "address"
        },
        {
          "indexed": false,
          "internalType": "bool",
          "name": "activeLottery",
          "type": "bool"
        },
        {
          "indexed": false,
          "internalType": "address",
          "name": "nftContractAddress",
          "type": "address"
        },
        {
          "indexed": false,
          "internalType": "uint256",
          "name": "awardBalance",
          "type": "uint256"
        }
      ],
      "name": "PickTheWinner",
      "type": "event"
    },
    {
      "anonymous": false,
      "inputs": [
        {
          "indexed": false,
          "internalType": "address",
          "name": "nftOwner",
          "type": "address"
        },
        {
          "indexed": false,
          "internalType": "uint256",
          "name": "nftTokenId",
          "type": "uint256"
        },
        {
          "indexed": false,
          "internalType": "address",
          "name": "nftContractAddress",
          "type": "address"
        },
        {
          "indexed": false,
          "internalType": "uint256",
          "name": "bettingPrice",
          "type": "uint256"
        },
        {
          "indexed": false,
          "internalType": "bool",
          "name": "activeLottery",
          "type": "bool"
        },
        {
          "indexed": false,
          "internalType": "address",
          "name": "beneficiaryAddress",
          "type": "address"
        },
        {
          "indexed": false,
          "internalType": "uint256",
          "name": "endDate",
          "type": "uint256"
        }
      ],
      "name": "SingleLottery",
      "type": "event"
    },
    {
      "inputs": [],
      "name": "CONTRACT_FEE",
      "outputs": [
        {
          "internalType": "uint256",
          "name": "",
          "type": "uint256"
        }
      ],
      "stateMutability": "view",
      "type": "function"
    },
    {
      "inputs": [
        {
          "internalType": "uint256",
          "name": "_lotteryId",
          "type": "uint256"
        }
      ],
      "name": "buyTicket",
      "outputs": [],
      "stateMutability": "payable",
      "type": "function"
    },
    {
      "inputs": [
        {
          "internalType": "bytes",
          "name": "checkdata",
          "type": "bytes"
        }
      ],
      "name": "checkUpkeep",
      "outputs": [
        {
          "internalType": "bool",
          "name": "upkeepNeeded",
          "type": "bool"
        },
        {
          "internalType": "bytes",
          "name": "performData",
          "type": "bytes"
        }
      ],
      "stateMutability": "view",
      "type": "function"
    },
    {
      "inputs": [],
      "name": "getContractBalance",
      "outputs": [
        {
          "internalType": "uint256",
          "name": "",
          "type": "uint256"
        }
      ],
      "stateMutability": "view",
      "type": "function"
    },
    {
      "inputs": [
        {
          "internalType": "uint256",
          "name": "_lotteryId",
          "type": "uint256"
        }
      ],
      "name": "getLottery",
      "outputs": [
        {
          "internalType": "address",
          "name": "",
          "type": "address"
        },
        {
          "internalType": "address",
          "name": "",
          "type": "address"
        },
        {
          "internalType": "uint256",
          "name": "",
          "type": "uint256"
        },
        {
          "internalType": "bool",
          "name": "",
          "type": "bool"
        },
        {
          "internalType": "address[]",
          "name": "",
          "type": "address[]"
        },
        {
          "internalType": "uint256",
          "name": "",
          "type": "uint256"
        },
        {
          "internalType": "address",
          "name": "",
          "type": "address"
        },
        {
          "internalType": "uint256",
          "name": "",
          "type": "uint256"
        },
        {
          "internalType": "address",
          "name": "",
          "type": "address"
        }
      ],
      "stateMutability": "view",
      "type": "function"
    },
    {
      "inputs": [
        {
          "internalType": "address",
          "name": "",
          "type": "address"
        },
        {
          "internalType": "address",
          "name": "",
          "type": "address"
        },
        {
          "internalType": "uint256",
          "name": "",
          "type": "uint256"
        },
        {
          "internalType": "bytes",
          "name": "",
          "type": "bytes"
        }
      ],
      "name": "onERC721Received",
      "outputs": [
        {
          "internalType": "bytes4",
          "name": "",
          "type": "bytes4"
        }
      ],
      "stateMutability": "nonpayable",
      "type": "function"
    },
    {
      "inputs": [],
      "name": "owner",
      "outputs": [
        {
          "internalType": "address",
          "name": "",
          "type": "address"
        }
      ],
      "stateMutability": "view",
      "type": "function"
    },
    {
      "inputs": [
        {
          "internalType": "bytes",
          "name": "",
          "type": "bytes"
        }
      ],
      "name": "performUpkeep",
      "outputs": [],
      "stateMutability": "nonpayable",
      "type": "function"
    },
    {
      "inputs": [
        {
          "internalType": "uint256",
          "name": "requestId",
          "type": "uint256"
        },
        {
          "internalType": "uint256[]",
          "name": "randomWords",
          "type": "uint256[]"
        }
      ],
      "name": "rawFulfillRandomWords",
      "outputs": [],
      "stateMutability": "nonpayable",
      "type": "function"
    },
    {
      "inputs": [],
      "name": "renounceOwnership",
      "outputs": [],
      "stateMutability": "nonpayable",
      "type": "function"
    },
    {
      "inputs": [],
      "name": "requestWordsPendingLotteries",
      "outputs": [
        {
          "internalType": "uint256",
          "name": "s_requestId",
          "type": "uint256"
        }
      ],
      "stateMutability": "nonpayable",
      "type": "function"
    },
    {
      "inputs": [],
      "name": "s_pendingLotteryEnd",
      "outputs": [
        {
          "internalType": "bool",
          "name": "",
          "type": "bool"
        }
      ],
      "stateMutability": "view",
      "type": "function"
    },
    {
      "inputs": [
        {
          "internalType": "uint256",
          "name": "",
          "type": "uint256"
        }
      ],
      "name": "s_randomWords",
      "outputs": [
        {
          "internalType": "uint256",
          "name": "",
          "type": "uint256"
        }
      ],
      "stateMutability": "view",
      "type": "function"
    },
    {
      "inputs": [
        {
          "internalType": "uint256",
          "name": "_tokenId",
          "type": "uint256"
        },
        {
          "internalType": "address",
          "name": "_nftContractAddress",
          "type": "address"
        },
        {
          "internalType": "uint256",
          "name": "_bettingPrice",
          "type": "uint256"
        },
        {
          "internalType": "address",
          "name": "_beneficiaryAddress",
          "type": "address"
        },
        {
          "internalType": "uint256",
          "name": "_endDate",
          "type": "uint256"
        }
      ],
      "name": "startLottery",
      "outputs": [
        {
          "internalType": "bytes4",
          "name": "",
          "type": "bytes4"
        }
      ],
      "stateMutability": "nonpayable",
      "type": "function"
    },
    {
      "inputs": [
        {
          "internalType": "address",
          "name": "newOwner",
          "type": "address"
        }
      ],
      "name": "transferOwnership",
      "outputs": [],
      "stateMutability": "nonpayable",
      "type": "function"
    }
  ],
  "bytecode": "0x6101206040523480156200001257600080fd5b5060405162002909380380620029098339818101604052810190620000389190620002fc565b83620000596200004d6200010560201b60201c565b6200010d60201b60201c565b8073ffffffffffffffffffffffffffffffffffffffff1660808173ffffffffffffffffffffffffffffffffffffffff1681525050508373ffffffffffffffffffffffffffffffffffffffff1660a08173ffffffffffffffffffffffffffffffffffffffff16815250508267ffffffffffffffff1660c08167ffffffffffffffff16815250508160e081815250508063ffffffff166101008163ffffffff1681525050505050506200036e565b600033905090565b60008060009054906101000a900473ffffffffffffffffffffffffffffffffffffffff169050816000806101000a81548173ffffffffffffffffffffffffffffffffffffffff021916908373ffffffffffffffffffffffffffffffffffffffff1602179055508173ffffffffffffffffffffffffffffffffffffffff168173ffffffffffffffffffffffffffffffffffffffff167f8be0079c531659141344cd1fd0a4f28419497f9722a3daafe3b4186f6b6457e060405160405180910390a35050565b600080fd5b600073ffffffffffffffffffffffffffffffffffffffff82169050919050565b60006200020382620001d6565b9050919050565b6200021581620001f6565b81146200022157600080fd5b50565b60008151905062000235816200020a565b92915050565b600067ffffffffffffffff82169050919050565b6200025a816200023b565b81146200026657600080fd5b50565b6000815190506200027a816200024f565b92915050565b6000819050919050565b620002958162000280565b8114620002a157600080fd5b50565b600081519050620002b5816200028a565b92915050565b600063ffffffff82169050919050565b620002d681620002bb565b8114620002e257600080fd5b50565b600081519050620002f681620002cb565b92915050565b60008060008060808587031215620003195762000318620001d1565b5b6000620003298782880162000224565b94505060206200033c8782880162000269565b93505060406200034f87828801620002a4565b92505060606200036287828801620002e5565b91505092959194509250565b60805160a05160c05160e0516101005161254f620003ba6000396000610bfb01526000610bb701526000610bd801526000610b7b0152600081816103c20152610416015261254f6000f3fe6080604052600436106100e85760003560e01c806379f0c3df1161008a578063c89663ed11610059578063c89663ed146102f0578063f2fde38b1461031b578063f6eaffc814610344578063f70d374614610381576100e8565b806379f0c3df146102185780638da5cb5b1461025557806392e845f614610280578063c5a4605a146102c5576100e8565b806367dd74ca116100c657806367dd74ca1461017c5780636e04ff0d146101985780636f9fb98a146101d6578063715018a614610201576100e8565b8063150b7a02146100ed5780631fe543e31461012a5780634585e33b14610153575b600080fd5b3480156100f957600080fd5b50610114600480360381019061010f91906115f2565b6103ac565b60405161012191906116b0565b60405180910390f35b34801561013657600080fd5b50610151600480360381019061014c9190611793565b6103c0565b005b34801561015f57600080fd5b5061017a6004803603810190610175919061184a565b610480565b005b61019660048036038101906101919190611897565b61048d565b005b3480156101a457600080fd5b506101bf60048036038101906101ba919061184a565b610648565b6040516101cd929190611967565b60405180910390f35b3480156101e257600080fd5b506101eb6106d9565b6040516101f891906119a6565b60405180910390f35b34801561020d57600080fd5b506102166106e1565b005b34801561022457600080fd5b5061023f600480360381019061023a91906119c1565b6106f5565b60405161024c91906116b0565b60405180910390f35b34801561026157600080fd5b5061026a61097d565b6040516102779190611a4b565b60405180910390f35b34801561028c57600080fd5b506102a760048036038101906102a29190611897565b6109a6565b6040516102bc99989796959493929190611b24565b60405180910390f35b3480156102d157600080fd5b506102da610b77565b6040516102e791906119a6565b60405180910390f35b3480156102fc57600080fd5b50610305610ce5565b6040516103129190611bb8565b60405180910390f35b34801561032757600080fd5b50610342600480360381019061033d9190611bd3565b610cf8565b005b34801561035057600080fd5b5061036b60048036038101906103669190611897565b610d7c565b60405161037891906119a6565b60405180910390f35b34801561038d57600080fd5b50610396610da0565b6040516103a391906119a6565b60405180910390f35b600063150b7a0260e01b9050949350505050565b7f000000000000000000000000000000000000000000000000000000000000000073ffffffffffffffffffffffffffffffffffffffff163373ffffffffffffffffffffffffffffffffffffffff161461047257337f00000000000000000000000000000000000000000000000000000000000000006040517f1cf993f4000000000000000000000000000000000000000000000000000000008152600401610469929190611c00565b60405180910390fd5b61047c8282610da5565b5050565b610488610b77565b505050565b6104976002610ebc565b81106104d8576040517f08c379a00000000000000000000000000000000000000000000000000000000081526004016104cf90611cac565b60405180910390fd5b60006003600083815260200190815260200160002090508060040160009054906101000a900460ff16610540576040517f08c379a000000000000000000000000000000000000000000000000000000000815260040161053790611d64565b60405180910390fd5b80600301543414610586576040517f08c379a000000000000000000000000000000000000000000000000000000000815260040161057d90611df6565b60405180910390fd5b80600501339080600181540180825580915050600190039060005260206000200160009091909190916101000a81548173ffffffffffffffffffffffffffffffffffffffff021916908373ffffffffffffffffffffffffffffffffffffffff160217905550806003015481600601546105ff9190611e45565b81600601819055507f2a3164428cba5dad15f5ffe47e10cbefdcbbe9e269fd482753982ee8b2648c3e33826006015460405161063c929190611e9b565b60405180910390a15050565b6000606060005b6106596002610ebc565b81101561068a5761066981610eca565b15610677576001925061068a565b808061068290611ec4565b91505061064f565b5083838080601f016020809104026020016040519081016040528093929190818152602001838380828437600081840152601f19601f8201169050808301925050505050505090509250929050565b600047905090565b6106e9610f4b565b6106f36000610fc9565b565b6000808411610739576040517f08c379a000000000000000000000000000000000000000000000000000000000815260040161073090611f7f565b60405180910390fd5b42821161077b576040517f08c379a000000000000000000000000000000000000000000000000000000000815260040161077290612011565b60405180910390fd5b60008590508073ffffffffffffffffffffffffffffffffffffffff166342842e0e33308a6040518463ffffffff1660e01b81526004016107bd93929190612031565b600060405180830381600087803b1580156107d757600080fd5b505af11580156107eb573d6000803e3d6000fd5b505050506000600360006107ff6002610ebc565b81526020019081526020016000209050338160000160006101000a81548173ffffffffffffffffffffffffffffffffffffffff021916908373ffffffffffffffffffffffffffffffffffffffff160217905550878160010181905550868160020160006101000a81548173ffffffffffffffffffffffffffffffffffffffff021916908373ffffffffffffffffffffffffffffffffffffffff16021790555085816003018190555060018160040160006101000a81548160ff02191690831515021790555060008160060181905550848160070160006101000a81548173ffffffffffffffffffffffffffffffffffffffff021916908373ffffffffffffffffffffffffffffffffffffffff1602179055508381600901819055507f8f091eb0e0cdf901a8325af719fb5bffee6be7ce8c77a252855ca32be8c4c2f53389898960018a8a6040516109569796959493929190612068565b60405180910390a1610968600261108d565b63150b7a0260e01b9250505095945050505050565b60008060009054906101000a900473ffffffffffffffffffffffffffffffffffffffff16905090565b60008060008060606000806000806109be6002610ebc565b8a106109ff576040517f08c379a00000000000000000000000000000000000000000000000000000000081526004016109f690611cac565b60405180910390fd5b6000600360008c815260200190815260200160002090508060000160009054906101000a900473ffffffffffffffffffffffffffffffffffffffff168160020160009054906101000a900473ffffffffffffffffffffffffffffffffffffffff1682600301548360040160009054906101000a900460ff168460050185600601548660080160009054906101000a900473ffffffffffffffffffffffffffffffffffffffff1687600901548860070160009054906101000a900473ffffffffffffffffffffffffffffffffffffffff1684805480602002602001604051908101604052809291908181526020018280548015610b5057602002820191906000526020600020905b8160009054906101000a900473ffffffffffffffffffffffffffffffffffffffff1673ffffffffffffffffffffffffffffffffffffffff1681526020019060010190808311610b06575b50505050509450995099509950995099509950995099509950509193959799909294969850565b60007f000000000000000000000000000000000000000000000000000000000000000073ffffffffffffffffffffffffffffffffffffffff16635d3b1d307f00000000000000000000000000000000000000000000000000000000000000007f000000000000000000000000000000000000000000000000000000000000000060037f000000000000000000000000000000000000000000000000000000000000000060016040518663ffffffff1660e01b8152600401610c3c95949392919061214f565b602060405180830381600087803b158015610c5657600080fd5b505af1158015610c6a573d6000803e3d6000fd5b505050506040513d601f19601f82011682018060405250810190610c8e91906121b7565b90506001600060146101000a81548160ff0219169083151502179055507f4086bd1a4642868b523b32dd30da50e47fa52139cffe27b6b9dba005a3381cb981604051610cda91906119a6565b60405180910390a190565b600060149054906101000a900460ff1681565b610d00610f4b565b600073ffffffffffffffffffffffffffffffffffffffff168173ffffffffffffffffffffffffffffffffffffffff161415610d70576040517f08c379a0000000000000000000000000000000000000000000000000000000008152600401610d6790612256565b60405180910390fd5b610d7981610fc9565b50565b60018181548110610d8c57600080fd5b906000526020600020016000915090505481565b600581565b60008060146101000a81548160ff02191690831515021790555060005b610dcc6002610ebc565b811015610eb757610ddc81610eca565b15610ea457610ea381600360008481526020019081526020016000206005018054905084600081518110610e1357610e12612276565b5b602002602001015160036000868152602001908152602001600020600101546003600087815260200190815260200160002060020160009054906101000a900473ffffffffffffffffffffffffffffffffffffffff16604051602001610e7b939291906122a5565b6040516020818303038152906040528051906020012060001c610e9e919061230b565b6110a3565b5b8080610eaf90611ec4565b915050610dc2565b505050565b600081600001549050919050565b60008060149054906101000a900460ff1615610ee95760009050610f46565b6003600083815260200190815260200160002060040160009054906101000a900460ff16610f1a5760009050610f46565b4260036000848152602001908152602001600020600901541115610f415760009050610f46565b600190505b919050565b610f536113fc565b73ffffffffffffffffffffffffffffffffffffffff16610f7161097d565b73ffffffffffffffffffffffffffffffffffffffff1614610fc7576040517f08c379a0000000000000000000000000000000000000000000000000000000008152600401610fbe90612388565b60405180910390fd5b565b60008060009054906101000a900473ffffffffffffffffffffffffffffffffffffffff169050816000806101000a81548173ffffffffffffffffffffffffffffffffffffffff021916908373ffffffffffffffffffffffffffffffffffffffff1602179055508173ffffffffffffffffffffffffffffffffffffffff168173ffffffffffffffffffffffffffffffffffffffff167f8be0079c531659141344cd1fd0a4f28419497f9722a3daafe3b4186f6b6457e060405160405180910390a35050565b6001816000016000828254019250508190555050565b6110ad6002610ebc565b82106110ee576040517f08c379a00000000000000000000000000000000000000000000000000000000081526004016110e590611cac565b60405180910390fd5b60006003600084815260200190815260200160002090508060040160009054906101000a900460ff16611156576040517f08c379a000000000000000000000000000000000000000000000000000000000815260040161114d90611d64565b60405180910390fd5b80600501828154811061116c5761116b612276565b5b9060005260206000200160009054906101000a900473ffffffffffffffffffffffffffffffffffffffff168160080160006101000a81548173ffffffffffffffffffffffffffffffffffffffff021916908373ffffffffffffffffffffffffffffffffffffffff16021790555060006064600560646111eb91906123a8565b83600601546111fa91906123dc565b6112049190612436565b905060008260070160009054906101000a900473ffffffffffffffffffffffffffffffffffffffff1673ffffffffffffffffffffffffffffffffffffffff168260405161125090612498565b60006040518083038185875af1925050503d806000811461128d576040519150601f19603f3d011682016040523d82523d6000602084013e611292565b606091505b50509050806112d6576040517f08c379a00000000000000000000000000000000000000000000000000000000081526004016112cd906124f9565b60405180910390fd5b60008360040160006101000a81548160ff021916908315150217905550600083600601819055507f3056e6a2c5f046f7a52808a2d667aa237021e443f84237f476e8ea63f7c3ba018560405161132c91906119a6565b60405180910390a160008360020160009054906101000a900473ffffffffffffffffffffffffffffffffffffffff1690508073ffffffffffffffffffffffffffffffffffffffff166342842e0e308660080160009054906101000a900473ffffffffffffffffffffffffffffffffffffffff1687600101546040518463ffffffff1660e01b81526004016113c293929190612031565b600060405180830381600087803b1580156113dc57600080fd5b505af11580156113f0573d6000803e3d6000fd5b50505050505050505050565b600033905090565b6000604051905090565b600080fd5b600080fd5b600073ffffffffffffffffffffffffffffffffffffffff82169050919050565b600061144382611418565b9050919050565b61145381611438565b811461145e57600080fd5b50565b6000813590506114708161144a565b92915050565b6000819050919050565b61148981611476565b811461149457600080fd5b50565b6000813590506114a681611480565b92915050565b600080fd5b600080fd5b6000601f19601f8301169050919050565b7f4e487b7100000000000000000000000000000000000000000000000000000000600052604160045260246000fd5b6114ff826114b6565b810181811067ffffffffffffffff8211171561151e5761151d6114c7565b5b80604052505050565b6000611531611404565b905061153d82826114f6565b919050565b600067ffffffffffffffff82111561155d5761155c6114c7565b5b611566826114b6565b9050602081019050919050565b82818337600083830152505050565b600061159561159084611542565b611527565b9050828152602081018484840111156115b1576115b06114b1565b5b6115bc848285611573565b509392505050565b600082601f8301126115d9576115d86114ac565b5b81356115e9848260208601611582565b91505092915050565b6000806000806080858703121561160c5761160b61140e565b5b600061161a87828801611461565b945050602061162b87828801611461565b935050604061163c87828801611497565b925050606085013567ffffffffffffffff81111561165d5761165c611413565b5b611669878288016115c4565b91505092959194509250565b60007fffffffff0000000000000000000000000000000000000000000000000000000082169050919050565b6116aa81611675565b82525050565b60006020820190506116c560008301846116a1565b92915050565b600067ffffffffffffffff8211156116e6576116e56114c7565b5b602082029050602081019050919050565b600080fd5b600061170f61170a846116cb565b611527565b90508083825260208201905060208402830185811115611732576117316116f7565b5b835b8181101561175b57806117478882611497565b845260208401935050602081019050611734565b5050509392505050565b600082601f83011261177a576117796114ac565b5b813561178a8482602086016116fc565b91505092915050565b600080604083850312156117aa576117a961140e565b5b60006117b885828601611497565b925050602083013567ffffffffffffffff8111156117d9576117d8611413565b5b6117e585828601611765565b9150509250929050565b600080fd5b60008083601f84011261180a576118096114ac565b5b8235905067ffffffffffffffff811115611827576118266117ef565b5b602083019150836001820283011115611843576118426116f7565b5b9250929050565b600080602083850312156118615761186061140e565b5b600083013567ffffffffffffffff81111561187f5761187e611413565b5b61188b858286016117f4565b92509250509250929050565b6000602082840312156118ad576118ac61140e565b5b60006118bb84828501611497565b91505092915050565b60008115159050919050565b6118d9816118c4565b82525050565b600081519050919050565b600082825260208201905092915050565b60005b838110156119195780820151818401526020810190506118fe565b83811115611928576000848401525b50505050565b6000611939826118df565b61194381856118ea565b93506119538185602086016118fb565b61195c816114b6565b840191505092915050565b600060408201905061197c60008301856118d0565b818103602083015261198e818461192e565b90509392505050565b6119a081611476565b82525050565b60006020820190506119bb6000830184611997565b92915050565b600080600080600060a086880312156119dd576119dc61140e565b5b60006119eb88828901611497565b95505060206119fc88828901611461565b9450506040611a0d88828901611497565b9350506060611a1e88828901611461565b9250506080611a2f88828901611497565b9150509295509295909350565b611a4581611438565b82525050565b6000602082019050611a606000830184611a3c565b92915050565b600081519050919050565b600082825260208201905092915050565b6000819050602082019050919050565b611a9b81611438565b82525050565b6000611aad8383611a92565b60208301905092915050565b6000602082019050919050565b6000611ad182611a66565b611adb8185611a71565b9350611ae683611a82565b8060005b83811015611b17578151611afe8882611aa1565b9750611b0983611ab9565b925050600181019050611aea565b5085935050505092915050565b600061012082019050611b3a600083018c611a3c565b611b47602083018b611a3c565b611b54604083018a611997565b611b6160608301896118d0565b8181036080830152611b738188611ac6565b9050611b8260a0830187611997565b611b8f60c0830186611a3c565b611b9c60e0830185611997565b611baa610100830184611a3c565b9a9950505050505050505050565b6000602082019050611bcd60008301846118d0565b92915050565b600060208284031215611be957611be861140e565b5b6000611bf784828501611461565b91505092915050565b6000604082019050611c156000830185611a3c565b611c226020830184611a3c565b9392505050565b600082825260208201905092915050565b7f546865206c6f747465727920496420676976656e20646f6573206e6f7420636f60008201527f72726573706f6e6420746f20616e206578697374696e67206c6f74746572792e602082015250565b6000611c96604083611c29565b9150611ca182611c3a565b604082019050919050565b60006020820190508181036000830152611cc581611c89565b9050919050565b7f546865206c6f747465727920496420676976656e20636f72726573706f6e647360008201527f20746f2061206c6f747465727920746861742068617320616c7265616479206560208201527f6e6465642e000000000000000000000000000000000000000000000000000000604082015250565b6000611d4e604583611c29565b9150611d5982611ccc565b606082019050919050565b60006020820190508181036000830152611d7d81611d41565b9050919050565b7f546f2070617274696369706174652c20706c656173652061646420746865207260008201527f6571756972656420616d6f756e742e0000000000000000000000000000000000602082015250565b6000611de0602f83611c29565b9150611deb82611d84565b604082019050919050565b60006020820190508181036000830152611e0f81611dd3565b9050919050565b7f4e487b7100000000000000000000000000000000000000000000000000000000600052601160045260246000fd5b6000611e5082611476565b9150611e5b83611476565b9250827fffffffffffffffffffffffffffffffffffffffffffffffffffffffffffffffff03821115611e9057611e8f611e16565b5b828201905092915050565b6000604082019050611eb06000830185611a3c565b611ebd6020830184611997565b9392505050565b6000611ecf82611476565b91507fffffffffffffffffffffffffffffffffffffffffffffffffffffffffffffffff821415611f0257611f01611e16565b5b600182019050919050565b7f42657474696e672070726963652073686f756c6420626520677265617465722060008201527f7468616e207a65726f2e00000000000000000000000000000000000000000000602082015250565b6000611f69602a83611c29565b9150611f7482611f0d565b604082019050919050565b60006020820190508181036000830152611f9881611f5c565b9050919050565b7f456e6420646174652073686f756c64206265206c61746572207468616e20746860008201527f652063757272656e742074696d657374616d7000000000000000000000000000602082015250565b6000611ffb603383611c29565b915061200682611f9f565b604082019050919050565b6000602082019050818103600083015261202a81611fee565b9050919050565b60006060820190506120466000830186611a3c565b6120536020830185611a3c565b6120606040830184611997565b949350505050565b600060e08201905061207d600083018a611a3c565b61208a6020830189611997565b6120976040830188611a3c565b6120a46060830187611997565b6120b160808301866118d0565b6120be60a0830185611a3c565b6120cb60c0830184611997565b98975050505050505050565b6000819050919050565b6120ea816120d7565b82525050565b600067ffffffffffffffff82169050919050565b61210d816120f0565b82525050565b600061ffff82169050919050565b61212a81612113565b82525050565b600063ffffffff82169050919050565b61214981612130565b82525050565b600060a08201905061216460008301886120e1565b6121716020830187612104565b61217e6040830186612121565b61218b6060830185612140565b6121986080830184612140565b9695505050505050565b6000815190506121b181611480565b92915050565b6000602082840312156121cd576121cc61140e565b5b60006121db848285016121a2565b91505092915050565b7f4f776e61626c653a206e6577206f776e657220697320746865207a65726f206160008201527f6464726573730000000000000000000000000000000000000000000000000000602082015250565b6000612240602683611c29565b915061224b826121e4565b604082019050919050565b6000602082019050818103600083015261226f81612233565b9050919050565b7f4e487b7100000000000000000000000000000000000000000000000000000000600052603260045260246000fd5b60006060820190506122ba6000830186611997565b6122c76020830185611997565b6122d46040830184611a3c565b949350505050565b7f4e487b7100000000000000000000000000000000000000000000000000000000600052601260045260246000fd5b600061231682611476565b915061232183611476565b925082612331576123306122dc565b5b828206905092915050565b7f4f776e61626c653a2063616c6c6572206973206e6f7420746865206f776e6572600082015250565b6000612372602083611c29565b915061237d8261233c565b602082019050919050565b600060208201905081810360008301526123a181612365565b9050919050565b60006123b382611476565b91506123be83611476565b9250828210156123d1576123d0611e16565b5b828203905092915050565b60006123e782611476565b91506123f283611476565b9250817fffffffffffffffffffffffffffffffffffffffffffffffffffffffffffffffff048311821515161561242b5761242a611e16565b5b828202905092915050565b600061244182611476565b915061244c83611476565b92508261245c5761245b6122dc565b5b828204905092915050565b600081905092915050565b50565b6000612482600083612467565b915061248d82612472565b600082019050919050565b60006124a382612475565b9150819050919050565b7f5472616e73616374696f6e204661696c65640000000000000000000000000000600082015250565b60006124e3601283611c29565b91506124ee826124ad565b602082019050919050565b60006020820190508181036000830152612512816124d6565b905091905056fea2646970667358221220e141c13f69823512ca95481289f2d15b7b1db4565ca1b8b8c44143340ed8b5e164736f6c63430008090033",
  "linkReferences": {},
  "deployedLinkReferences": {}
}