{
  "_format": "hh-sol-artifact-1",
  "contractName": "Lottery",
  "sourceName": "contracts/Lottery.sol",
  "abi": [
    {
      "inputs": [
        {
          "internalType": "address",
          "name": "_vrfCoordinatorV2",
          "type": "address"
        },
        {
          "internalType": "uint64",
          "name": "_vrfSubscriptionId",
          "type": "uint64"
        },
        {
          "internalType": "bytes32",
          "name": "_vrfGasLane",
          "type": "bytes32"
        },
        {
          "internalType": "uint32",
          "name": "_vrfCallbackGasLimit",
          "type": "uint32"
        }
      ],
      "stateMutability": "nonpayable",
      "type": "constructor"
    },
    {
      "inputs": [
        {
          "internalType": "address",
          "name": "have",
          "type": "address"
        },
        {
          "internalType": "address",
          "name": "want",
          "type": "address"
        }
      ],
      "name": "OnlyCoordinatorCanFulfill",
      "type": "error"
    },
    {
      "anonymous": false,
      "inputs": [
        {
          "indexed": false,
          "internalType": "address",
          "name": "player",
          "type": "address"
        },
        {
          "indexed": false,
          "internalType": "uint256",
          "name": "lotteryBalance",
          "type": "uint256"
        }
      ],
      "name": "BuyTicket",
      "type": "event"
    },
    {
      "anonymous": false,
      "inputs": [
        {
          "indexed": false,
          "internalType": "uint256",
          "name": "lotteryId",
          "type": "uint256"
        }
      ],
      "name": "EndLotteryEvent",
      "type": "event"
    },
    {
      "anonymous": false,
      "inputs": [
        {
          "indexed": true,
          "internalType": "address",
          "name": "previousOwner",
          "type": "address"
        },
        {
          "indexed": true,
          "internalType": "address",
          "name": "newOwner",
          "type": "address"
        }
      ],
      "name": "OwnershipTransferred",
      "type": "event"
    },
    {
      "anonymous": false,
      "inputs": [
        {
          "indexed": false,
          "internalType": "uint256",
          "name": "requestId",
          "type": "uint256"
        }
      ],
      "name": "PendingLotteriesWordsRequested",
      "type": "event"
    },
    {
      "anonymous": false,
      "inputs": [
        {
          "indexed": false,
          "internalType": "address",
          "name": "nftOwner",
          "type": "address"
        },
        {
          "indexed": false,
          "internalType": "uint256",
          "name": "nftTokenId",
          "type": "uint256"
        },
        {
          "indexed": false,
          "internalType": "address",
          "name": "nftContractAddress",
          "type": "address"
        },
        {
          "indexed": false,
          "internalType": "uint256",
          "name": "bettingPrice",
          "type": "uint256"
        },
        {
          "indexed": false,
          "internalType": "bool",
          "name": "activeLottery",
          "type": "bool"
        },
        {
          "indexed": false,
          "internalType": "address",
          "name": "beneficiaryAddress",
          "type": "address"
        },
        {
          "indexed": false,
          "internalType": "uint256",
          "name": "endDate",
          "type": "uint256"
        }
      ],
      "name": "SingleLottery",
      "type": "event"
    },
    {
      "inputs": [],
      "name": "CONTRACT_FEE",
      "outputs": [
        {
          "internalType": "uint256",
          "name": "",
          "type": "uint256"
        }
      ],
      "stateMutability": "view",
      "type": "function"
    },
    {
      "inputs": [
        {
          "internalType": "uint256",
          "name": "_lotteryId",
          "type": "uint256"
        }
      ],
      "name": "buyTicket",
      "outputs": [],
      "stateMutability": "payable",
      "type": "function"
    },
    {
      "inputs": [
        {
          "internalType": "bytes",
          "name": "checkdata",
          "type": "bytes"
        }
      ],
      "name": "checkUpkeep",
      "outputs": [
        {
          "internalType": "bool",
          "name": "upkeepNeeded",
          "type": "bool"
        },
        {
          "internalType": "bytes",
          "name": "performData",
          "type": "bytes"
        }
      ],
      "stateMutability": "view",
      "type": "function"
    },
    {
      "inputs": [],
      "name": "contractFeeBalance",
      "outputs": [
        {
          "internalType": "uint256",
          "name": "",
          "type": "uint256"
        }
      ],
      "stateMutability": "view",
      "type": "function"
    },
    {
      "inputs": [],
      "name": "getContractFeeBalance",
      "outputs": [
        {
          "internalType": "uint256",
          "name": "",
          "type": "uint256"
        }
      ],
      "stateMutability": "view",
      "type": "function"
    },
    {
      "inputs": [
        {
          "internalType": "uint256",
          "name": "_lotteryId",
          "type": "uint256"
        }
      ],
      "name": "getLottery",
      "outputs": [
        {
          "components": [
            {
              "internalType": "address",
              "name": "nftOwner",
              "type": "address"
            },
            {
              "internalType": "address",
              "name": "nftContractAddress",
              "type": "address"
            },
            {
              "internalType": "uint256",
              "name": "bettingPrice",
              "type": "uint256"
            },
            {
              "internalType": "bool",
              "name": "activeLottery",
              "type": "bool"
            },
            {
              "internalType": "address[]",
              "name": "players",
              "type": "address[]"
            },
            {
              "internalType": "uint256",
              "name": "lotteryBalance",
              "type": "uint256"
            },
            {
              "internalType": "address",
              "name": "beneficiaryAddress",
              "type": "address"
            },
            {
              "internalType": "address",
              "name": "lotteryWinner",
              "type": "address"
            },
            {
              "internalType": "uint256",
              "name": "endDate",
              "type": "uint256"
            },
            {
              "internalType": "uint256",
              "name": "nftTokenId",
              "type": "uint256"
            }
          ],
          "internalType": "struct Lottery.singleLottery",
          "name": "",
          "type": "tuple"
        }
      ],
      "stateMutability": "view",
      "type": "function"
    },
    {
      "inputs": [],
      "name": "getLotteryCount",
      "outputs": [
        {
          "internalType": "uint256",
          "name": "",
          "type": "uint256"
        }
      ],
      "stateMutability": "view",
      "type": "function"
    },
    {
      "inputs": [
        {
          "internalType": "address",
          "name": "",
          "type": "address"
        },
        {
          "internalType": "address",
          "name": "",
          "type": "address"
        },
        {
          "internalType": "uint256",
          "name": "",
          "type": "uint256"
        },
        {
          "internalType": "bytes",
          "name": "",
          "type": "bytes"
        }
      ],
      "name": "onERC721Received",
      "outputs": [
        {
          "internalType": "bytes4",
          "name": "",
          "type": "bytes4"
        }
      ],
      "stateMutability": "nonpayable",
      "type": "function"
    },
    {
      "inputs": [],
      "name": "owner",
      "outputs": [
        {
          "internalType": "address",
          "name": "",
          "type": "address"
        }
      ],
      "stateMutability": "view",
      "type": "function"
    },
    {
      "inputs": [
        {
          "internalType": "bytes",
          "name": "",
          "type": "bytes"
        }
      ],
      "name": "performUpkeep",
      "outputs": [],
      "stateMutability": "nonpayable",
      "type": "function"
    },
    {
      "inputs": [
        {
          "internalType": "uint256",
          "name": "requestId",
          "type": "uint256"
        },
        {
          "internalType": "uint256[]",
          "name": "randomWords",
          "type": "uint256[]"
        }
      ],
      "name": "rawFulfillRandomWords",
      "outputs": [],
      "stateMutability": "nonpayable",
      "type": "function"
    },
    {
      "inputs": [],
      "name": "renounceOwnership",
      "outputs": [],
      "stateMutability": "nonpayable",
      "type": "function"
    },
    {
      "inputs": [],
      "name": "requestWordsPendingLotteries",
      "outputs": [
        {
          "internalType": "uint256",
          "name": "s_requestId",
          "type": "uint256"
        }
      ],
      "stateMutability": "nonpayable",
      "type": "function"
    },
    {
      "inputs": [],
      "name": "s_pendingLotteryEnd",
      "outputs": [
        {
          "internalType": "bool",
          "name": "",
          "type": "bool"
        }
      ],
      "stateMutability": "view",
      "type": "function"
    },
    {
      "inputs": [
        {
          "internalType": "uint256",
          "name": "_tokenId",
          "type": "uint256"
        },
        {
          "internalType": "address",
          "name": "_nftContractAddress",
          "type": "address"
        },
        {
          "internalType": "uint256",
          "name": "_bettingPrice",
          "type": "uint256"
        },
        {
          "internalType": "address",
          "name": "_beneficiaryAddress",
          "type": "address"
        },
        {
          "internalType": "uint256",
          "name": "_endDate",
          "type": "uint256"
        }
      ],
      "name": "startLottery",
      "outputs": [
        {
          "internalType": "bytes4",
          "name": "",
          "type": "bytes4"
        }
      ],
      "stateMutability": "nonpayable",
      "type": "function"
    },
    {
      "inputs": [
        {
          "internalType": "address",
          "name": "newOwner",
          "type": "address"
        }
      ],
      "name": "transferOwnership",
      "outputs": [],
      "stateMutability": "nonpayable",
      "type": "function"
    },
    {
      "inputs": [],
      "name": "withdrawContractFeeGains",
      "outputs": [],
      "stateMutability": "nonpayable",
      "type": "function"
    }
  ],
  "bytecode": "0x61012060405260006001553480156200001757600080fd5b5060405162002fe238038062002fe283398181016040528101906200003d919062000301565b836200005e620000526200010a60201b60201c565b6200011260201b60201c565b8073ffffffffffffffffffffffffffffffffffffffff1660808173ffffffffffffffffffffffffffffffffffffffff1681525050508373ffffffffffffffffffffffffffffffffffffffff1660a08173ffffffffffffffffffffffffffffffffffffffff16815250508267ffffffffffffffff1660c08167ffffffffffffffff16815250508160e081815250508063ffffffff166101008163ffffffff16815250505050505062000373565b600033905090565b60008060009054906101000a900473ffffffffffffffffffffffffffffffffffffffff169050816000806101000a81548173ffffffffffffffffffffffffffffffffffffffff021916908373ffffffffffffffffffffffffffffffffffffffff1602179055508173ffffffffffffffffffffffffffffffffffffffff168173ffffffffffffffffffffffffffffffffffffffff167f8be0079c531659141344cd1fd0a4f28419497f9722a3daafe3b4186f6b6457e060405160405180910390a35050565b600080fd5b600073ffffffffffffffffffffffffffffffffffffffff82169050919050565b60006200020882620001db565b9050919050565b6200021a81620001fb565b81146200022657600080fd5b50565b6000815190506200023a816200020f565b92915050565b600067ffffffffffffffff82169050919050565b6200025f8162000240565b81146200026b57600080fd5b50565b6000815190506200027f8162000254565b92915050565b6000819050919050565b6200029a8162000285565b8114620002a657600080fd5b50565b600081519050620002ba816200028f565b92915050565b600063ffffffff82169050919050565b620002db81620002c0565b8114620002e757600080fd5b50565b600081519050620002fb81620002d0565b92915050565b600080600080608085870312156200031e576200031d620001d6565b5b60006200032e8782880162000229565b945050602062000341878288016200026e565b93505060406200035487828801620002a9565b92505060606200036787828801620002ea565b91505092959194509250565b60805160a05160c05160e05161010051612c23620003bf6000396000610ecf01526000610e8b01526000610eac01526000610e4f01526000818161040a015261045e0152612c236000f3fe6080604052600436106100fe5760003560e01c8063715018a611610095578063b160f9cc11610064578063b160f9cc14610315578063c5a4605a14610340578063c89663ed1461036b578063f2fde38b14610396578063f70d3746146103bf576100fe565b8063715018a61461025957806379f0c3df146102705780638da5cb5b146102ad57806392e845f6146102d8576100fe565b80634585e33b116100d15780634585e33b146101bf5780634c7c0151146101e857806367dd74ca146101ff5780636e04ff0d1461021b576100fe565b8063087c228814610103578063150b7a021461012e5780631fe543e31461016b5780632f9aa1fe14610194575b600080fd5b34801561010f57600080fd5b506101186103ea565b604051610125919061189e565b60405180910390f35b34801561013a57600080fd5b5061015560048036038101906101509190611a9d565b6103f4565b6040516101629190611b5b565b60405180910390f35b34801561017757600080fd5b50610192600480360381019061018d9190611c3e565b610408565b005b3480156101a057600080fd5b506101a96104c8565b6040516101b6919061189e565b60405180910390f35b3480156101cb57600080fd5b506101e660048036038101906101e19190611cf5565b6104d9565b005b3480156101f457600080fd5b506101fd6104e6565b005b61021960048036038101906102149190611d42565b6105a7565b005b34801561022757600080fd5b50610242600480360381019061023d9190611cf5565b610762565b604051610250929190611e12565b60405180910390f35b34801561026557600080fd5b5061026e610808565b005b34801561027c57600080fd5b5061029760048036038101906102929190611e42565b61081c565b6040516102a49190611b5b565b60405180910390f35b3480156102b957600080fd5b506102c2610aa4565b6040516102cf9190611ecc565b60405180910390f35b3480156102e457600080fd5b506102ff60048036038101906102fa9190611d42565b610acd565b60405161030c919061209d565b60405180910390f35b34801561032157600080fd5b5061032a610d75565b604051610337919061189e565b60405180910390f35b34801561034c57600080fd5b50610355610d7b565b604051610362919061189e565b60405180910390f35b34801561037757600080fd5b50610380610fba565b60405161038d91906120bf565b60405180910390f35b3480156103a257600080fd5b506103bd60048036038101906103b891906120da565b610fcd565b005b3480156103cb57600080fd5b506103d4611051565b6040516103e1919061189e565b60405180910390f35b6000600154905090565b600063150b7a0260e01b9050949350505050565b7f000000000000000000000000000000000000000000000000000000000000000073ffffffffffffffffffffffffffffffffffffffff163373ffffffffffffffffffffffffffffffffffffffff16146104ba57337f00000000000000000000000000000000000000000000000000000000000000006040517f1cf993f40000000000000000000000000000000000000000000000000000000081526004016104b1929190612107565b60405180910390fd5b6104c48282611056565b5050565b60006104d460036111a1565b905090565b6104e1610d7b565b505050565b6104ee6111af565b60003373ffffffffffffffffffffffffffffffffffffffff1660015460405161051690612161565b60006040518083038185875af1925050503d8060008114610553576040519150601f19603f3d011682016040523d82523d6000602084013e610558565b606091505b505090508061059c576040517f08c379a0000000000000000000000000000000000000000000000000000000008152600401610593906121d3565b60405180910390fd5b600060018190555050565b6105b160036111a1565b81106105f2576040517f08c379a00000000000000000000000000000000000000000000000000000000081526004016105e990612265565b60405180910390fd5b60006004600083815260200190815260200160002090508060030160009054906101000a900460ff1661065a576040517f08c379a00000000000000000000000000000000000000000000000000000000081526004016106519061231d565b60405180910390fd5b806002015434146106a0576040517f08c379a0000000000000000000000000000000000000000000000000000000008152600401610697906123af565b60405180910390fd5b80600401339080600181540180825580915050600190039060005260206000200160009091909190916101000a81548173ffffffffffffffffffffffffffffffffffffffff021916908373ffffffffffffffffffffffffffffffffffffffff1602179055508060020154816005015461071991906123fe565b81600501819055507f2a3164428cba5dad15f5ffe47e10cbefdcbbe9e269fd482753982ee8b2648c3e338260050154604051610756929190612454565b60405180910390a15050565b60006060600260009054906101000a900460ff166107ba5760005b61078760036111a1565b8110156107b8576107978161122d565b156107a557600192506107b8565b80806107b09061247d565b91505061077d565b505b83838080601f016020809104026020016040519081016040528093929190818152602001838380828437600081840152601f19601f8201169050808301925050505050505090509250929050565b6108106111af565b61081a6000611291565b565b6000808411610860576040517f08c379a000000000000000000000000000000000000000000000000000000000815260040161085790612538565b60405180910390fd5b4282116108a2576040517f08c379a0000000000000000000000000000000000000000000000000000000008152600401610899906125ca565b60405180910390fd5b60008590508073ffffffffffffffffffffffffffffffffffffffff166342842e0e33308a6040518463ffffffff1660e01b81526004016108e4939291906125ea565b600060405180830381600087803b1580156108fe57600080fd5b505af1158015610912573d6000803e3d6000fd5b5050505060006004600061092660036111a1565b81526020019081526020016000209050338160000160006101000a81548173ffffffffffffffffffffffffffffffffffffffff021916908373ffffffffffffffffffffffffffffffffffffffff160217905550878160090181905550868160010160006101000a81548173ffffffffffffffffffffffffffffffffffffffff021916908373ffffffffffffffffffffffffffffffffffffffff16021790555085816002018190555060018160030160006101000a81548160ff02191690831515021790555060008160050181905550848160060160006101000a81548173ffffffffffffffffffffffffffffffffffffffff021916908373ffffffffffffffffffffffffffffffffffffffff1602179055508381600801819055507f8f091eb0e0cdf901a8325af719fb5bffee6be7ce8c77a252855ca32be8c4c2f53389898960018a8a604051610a7d9796959493929190612621565b60405180910390a1610a8f6003611355565b63150b7a0260e01b9250505095945050505050565b60008060009054906101000a900473ffffffffffffffffffffffffffffffffffffffff16905090565b610ad56117d8565b610adf60036111a1565b8210610b20576040517f08c379a0000000000000000000000000000000000000000000000000000000008152600401610b1790612265565b60405180910390fd5b600060046000848152602001908152602001600020905080604051806101400160405290816000820160009054906101000a900473ffffffffffffffffffffffffffffffffffffffff1673ffffffffffffffffffffffffffffffffffffffff1673ffffffffffffffffffffffffffffffffffffffff1681526020016001820160009054906101000a900473ffffffffffffffffffffffffffffffffffffffff1673ffffffffffffffffffffffffffffffffffffffff1673ffffffffffffffffffffffffffffffffffffffff168152602001600282015481526020016003820160009054906101000a900460ff1615151515815260200160048201805480602002602001604051908101604052809291908181526020018280548015610c9a57602002820191906000526020600020905b8160009054906101000a900473ffffffffffffffffffffffffffffffffffffffff1673ffffffffffffffffffffffffffffffffffffffff1681526020019060010190808311610c50575b50505050508152602001600582015481526020016006820160009054906101000a900473ffffffffffffffffffffffffffffffffffffffff1673ffffffffffffffffffffffffffffffffffffffff1673ffffffffffffffffffffffffffffffffffffffff1681526020016007820160009054906101000a900473ffffffffffffffffffffffffffffffffffffffff1673ffffffffffffffffffffffffffffffffffffffff1673ffffffffffffffffffffffffffffffffffffffff16815260200160088201548152602001600982015481525050915050919050565b60015481565b6000803073ffffffffffffffffffffffffffffffffffffffff16636e04ff0d6040518163ffffffff1660e01b8152600401610db5906126b3565b60006040518083038186803b158015610dcd57600080fd5b505afa158015610de1573d6000803e3d6000fd5b505050506040513d6000823e3d601f19601f82011682018060405250810190610e0a919061276f565b50905080610e4d576040517f08c379a0000000000000000000000000000000000000000000000000000000008152600401610e449061283d565b60405180910390fd5b7f000000000000000000000000000000000000000000000000000000000000000073ffffffffffffffffffffffffffffffffffffffff16635d3b1d307f00000000000000000000000000000000000000000000000000000000000000007f000000000000000000000000000000000000000000000000000000000000000060037f000000000000000000000000000000000000000000000000000000000000000060016040518663ffffffff1660e01b8152600401610f109594939291906128d5565b602060405180830381600087803b158015610f2a57600080fd5b505af1158015610f3e573d6000803e3d6000fd5b505050506040513d601f19601f82011682018060405250810190610f62919061293d565b91506001600260006101000a81548160ff0219169083151502179055507f4086bd1a4642868b523b32dd30da50e47fa52139cffe27b6b9dba005a3381cb982604051610fae919061189e565b60405180910390a15090565b600260009054906101000a900460ff1681565b610fd56111af565b600073ffffffffffffffffffffffffffffffffffffffff168173ffffffffffffffffffffffffffffffffffffffff161415611045576040517f08c379a000000000000000000000000000000000000000000000000000000000815260040161103c906129dc565b60405180910390fd5b61104e81611291565b50565b600581565b6000600260006101000a81548160ff02191690831515021790555060005b61107e60036111a1565b81101561119c5761108e8161122d565b15611189576000600460008381526020019081526020016000206004018054905014156110c5576110c081600061136b565b611188565b611187816004600084815260200190815260200160002060040180549050846000815181106110f7576110f66129fc565b5b602002602001015160046000868152602001908152602001600020600901546004600087815260200190815260200160002060010160009054906101000a900473ffffffffffffffffffffffffffffffffffffffff1660405160200161115f93929190612a2b565b6040516020818303038152906040528051906020012060001c6111829190612a91565b61136b565b5b5b80806111949061247d565b915050611074565b505050565b600081600001549050919050565b6111b76117d0565b73ffffffffffffffffffffffffffffffffffffffff166111d5610aa4565b73ffffffffffffffffffffffffffffffffffffffff161461122b576040517f08c379a000000000000000000000000000000000000000000000000000000000815260040161122290612b0e565b60405180910390fd5b565b60006004600083815260200190815260200160002060030160009054906101000a900460ff16611260576000905061128c565b4260046000848152602001908152602001600020600801541115611287576000905061128c565b600190505b919050565b60008060009054906101000a900473ffffffffffffffffffffffffffffffffffffffff169050816000806101000a81548173ffffffffffffffffffffffffffffffffffffffff021916908373ffffffffffffffffffffffffffffffffffffffff1602179055508173ffffffffffffffffffffffffffffffffffffffff168173ffffffffffffffffffffffffffffffffffffffff167f8be0079c531659141344cd1fd0a4f28419497f9722a3daafe3b4186f6b6457e060405160405180910390a35050565b6001816000016000828254019250508190555050565b61137560036111a1565b82106113b6576040517f08c379a00000000000000000000000000000000000000000000000000000000081526004016113ad90612265565b60405180910390fd5b60006004600084815260200190815260200160002090508060030160009054906101000a900460ff1661141e576040517f08c379a00000000000000000000000000000000000000000000000000000000081526004016114159061231d565b60405180910390fd5b6000816004018054905014156114f45760008160010160009054906101000a900473ffffffffffffffffffffffffffffffffffffffff1690508073ffffffffffffffffffffffffffffffffffffffff166342842e0e308460000160009054906101000a900473ffffffffffffffffffffffffffffffffffffffff1685600901546040518463ffffffff1660e01b81526004016114bc939291906125ea565b600060405180830381600087803b1580156114d657600080fd5b505af11580156114ea573d6000803e3d6000fd5b5050505050611777565b80600401828154811061150a576115096129fc565b5b9060005260206000200160009054906101000a900473ffffffffffffffffffffffffffffffffffffffff168160070160006101000a81548173ffffffffffffffffffffffffffffffffffffffff021916908373ffffffffffffffffffffffffffffffffffffffff16021790555060006064600560646115899190612b2e565b83600501546115989190612b62565b6115a29190612bbc565b905060008260060160009054906101000a900473ffffffffffffffffffffffffffffffffffffffff1673ffffffffffffffffffffffffffffffffffffffff16826040516115ee90612161565b60006040518083038185875af1925050503d806000811461162b576040519150601f19603f3d011682016040523d82523d6000602084013e611630565b606091505b5050905080611674576040517f08c379a000000000000000000000000000000000000000000000000000000000815260040161166b906121d3565b60405180910390fd5b6064600584600501546116879190612b62565b6116919190612bbc565b600160008282546116a291906123fe565b925050819055506000836005018190555060008360010160009054906101000a900473ffffffffffffffffffffffffffffffffffffffff1690508073ffffffffffffffffffffffffffffffffffffffff166342842e0e308660070160009054906101000a900473ffffffffffffffffffffffffffffffffffffffff1687600901546040518463ffffffff1660e01b8152600401611741939291906125ea565b600060405180830381600087803b15801561175b57600080fd5b505af115801561176f573d6000803e3d6000fd5b505050505050505b7f3056e6a2c5f046f7a52808a2d667aa237021e443f84237f476e8ea63f7c3ba01836040516117a6919061189e565b60405180910390a160008160030160006101000a81548160ff021916908315150217905550505050565b600033905090565b604051806101400160405280600073ffffffffffffffffffffffffffffffffffffffff168152602001600073ffffffffffffffffffffffffffffffffffffffff168152602001600081526020016000151581526020016060815260200160008152602001600073ffffffffffffffffffffffffffffffffffffffff168152602001600073ffffffffffffffffffffffffffffffffffffffff16815260200160008152602001600081525090565b6000819050919050565b61189881611885565b82525050565b60006020820190506118b3600083018461188f565b92915050565b6000604051905090565b600080fd5b600080fd5b600073ffffffffffffffffffffffffffffffffffffffff82169050919050565b60006118f8826118cd565b9050919050565b611908816118ed565b811461191357600080fd5b50565b600081359050611925816118ff565b92915050565b61193481611885565b811461193f57600080fd5b50565b6000813590506119518161192b565b92915050565b600080fd5b600080fd5b6000601f19601f8301169050919050565b7f4e487b7100000000000000000000000000000000000000000000000000000000600052604160045260246000fd5b6119aa82611961565b810181811067ffffffffffffffff821117156119c9576119c8611972565b5b80604052505050565b60006119dc6118b9565b90506119e882826119a1565b919050565b600067ffffffffffffffff821115611a0857611a07611972565b5b611a1182611961565b9050602081019050919050565b82818337600083830152505050565b6000611a40611a3b846119ed565b6119d2565b905082815260208101848484011115611a5c57611a5b61195c565b5b611a67848285611a1e565b509392505050565b600082601f830112611a8457611a83611957565b5b8135611a94848260208601611a2d565b91505092915050565b60008060008060808587031215611ab757611ab66118c3565b5b6000611ac587828801611916565b9450506020611ad687828801611916565b9350506040611ae787828801611942565b925050606085013567ffffffffffffffff811115611b0857611b076118c8565b5b611b1487828801611a6f565b91505092959194509250565b60007fffffffff0000000000000000000000000000000000000000000000000000000082169050919050565b611b5581611b20565b82525050565b6000602082019050611b706000830184611b4c565b92915050565b600067ffffffffffffffff821115611b9157611b90611972565b5b602082029050602081019050919050565b600080fd5b6000611bba611bb584611b76565b6119d2565b90508083825260208201905060208402830185811115611bdd57611bdc611ba2565b5b835b81811015611c065780611bf28882611942565b845260208401935050602081019050611bdf565b5050509392505050565b600082601f830112611c2557611c24611957565b5b8135611c35848260208601611ba7565b91505092915050565b60008060408385031215611c5557611c546118c3565b5b6000611c6385828601611942565b925050602083013567ffffffffffffffff811115611c8457611c836118c8565b5b611c9085828601611c10565b9150509250929050565b600080fd5b60008083601f840112611cb557611cb4611957565b5b8235905067ffffffffffffffff811115611cd257611cd1611c9a565b5b602083019150836001820283011115611cee57611ced611ba2565b5b9250929050565b60008060208385031215611d0c57611d0b6118c3565b5b600083013567ffffffffffffffff811115611d2a57611d296118c8565b5b611d3685828601611c9f565b92509250509250929050565b600060208284031215611d5857611d576118c3565b5b6000611d6684828501611942565b91505092915050565b60008115159050919050565b611d8481611d6f565b82525050565b600081519050919050565b600082825260208201905092915050565b60005b83811015611dc4578082015181840152602081019050611da9565b83811115611dd3576000848401525b50505050565b6000611de482611d8a565b611dee8185611d95565b9350611dfe818560208601611da6565b611e0781611961565b840191505092915050565b6000604082019050611e276000830185611d7b565b8181036020830152611e398184611dd9565b90509392505050565b600080600080600060a08688031215611e5e57611e5d6118c3565b5b6000611e6c88828901611942565b9550506020611e7d88828901611916565b9450506040611e8e88828901611942565b9350506060611e9f88828901611916565b9250506080611eb088828901611942565b9150509295509295909350565b611ec6816118ed565b82525050565b6000602082019050611ee16000830184611ebd565b92915050565b611ef0816118ed565b82525050565b611eff81611885565b82525050565b611f0e81611d6f565b82525050565b600081519050919050565b600082825260208201905092915050565b6000819050602082019050919050565b6000611f4c8383611ee7565b60208301905092915050565b6000602082019050919050565b6000611f7082611f14565b611f7a8185611f1f565b9350611f8583611f30565b8060005b83811015611fb6578151611f9d8882611f40565b9750611fa883611f58565b925050600181019050611f89565b5085935050505092915050565b600061014083016000830151611fdc6000860182611ee7565b506020830151611fef6020860182611ee7565b5060408301516120026040860182611ef6565b5060608301516120156060860182611f05565b506080830151848203608086015261202d8282611f65565b91505060a083015161204260a0860182611ef6565b5060c083015161205560c0860182611ee7565b5060e083015161206860e0860182611ee7565b5061010083015161207d610100860182611ef6565b50610120830151612092610120860182611ef6565b508091505092915050565b600060208201905081810360008301526120b78184611fc3565b905092915050565b60006020820190506120d46000830184611d7b565b92915050565b6000602082840312156120f0576120ef6118c3565b5b60006120fe84828501611916565b91505092915050565b600060408201905061211c6000830185611ebd565b6121296020830184611ebd565b9392505050565b600081905092915050565b50565b600061214b600083612130565b91506121568261213b565b600082019050919050565b600061216c8261213e565b9150819050919050565b600082825260208201905092915050565b7f5472616e73616374696f6e204661696c65640000000000000000000000000000600082015250565b60006121bd601283612176565b91506121c882612187565b602082019050919050565b600060208201905081810360008301526121ec816121b0565b9050919050565b7f546865206c6f747465727920496420676976656e20646f6573206e6f7420636f60008201527f72726573706f6e6420746f20616e206578697374696e67206c6f74746572792e602082015250565b600061224f604083612176565b915061225a826121f3565b604082019050919050565b6000602082019050818103600083015261227e81612242565b9050919050565b7f546865206c6f747465727920496420676976656e20636f72726573706f6e647360008201527f20746f2061206c6f747465727920746861742068617320616c7265616479206560208201527f6e6465642e000000000000000000000000000000000000000000000000000000604082015250565b6000612307604583612176565b915061231282612285565b606082019050919050565b60006020820190508181036000830152612336816122fa565b9050919050565b7f546f2070617274696369706174652c20706c656173652061646420746865207260008201527f6571756972656420616d6f756e742e0000000000000000000000000000000000602082015250565b6000612399602f83612176565b91506123a48261233d565b604082019050919050565b600060208201905081810360008301526123c88161238c565b9050919050565b7f4e487b7100000000000000000000000000000000000000000000000000000000600052601160045260246000fd5b600061240982611885565b915061241483611885565b9250827fffffffffffffffffffffffffffffffffffffffffffffffffffffffffffffffff03821115612449576124486123cf565b5b828201905092915050565b60006040820190506124696000830185611ebd565b612476602083018461188f565b9392505050565b600061248882611885565b91507fffffffffffffffffffffffffffffffffffffffffffffffffffffffffffffffff8214156124bb576124ba6123cf565b5b600182019050919050565b7f42657474696e672070726963652073686f756c6420626520677265617465722060008201527f7468616e207a65726f2e00000000000000000000000000000000000000000000602082015250565b6000612522602a83612176565b915061252d826124c6565b604082019050919050565b6000602082019050818103600083015261255181612515565b9050919050565b7f456e6420646174652073686f756c64206265206c61746572207468616e20746860008201527f652063757272656e742074696d657374616d7000000000000000000000000000602082015250565b60006125b4603383612176565b91506125bf82612558565b604082019050919050565b600060208201905081810360008301526125e3816125a7565b9050919050565b60006060820190506125ff6000830186611ebd565b61260c6020830185611ebd565b612619604083018461188f565b949350505050565b600060e082019050612636600083018a611ebd565b612643602083018961188f565b6126506040830188611ebd565b61265d606083018761188f565b61266a6080830186611d7b565b61267760a0830185611ebd565b61268460c083018461188f565b98975050505050505050565b600061269d600083611d95565b91506126a88261213b565b600082019050919050565b600060208201905081810360008301526126cc81612690565b9050919050565b6126dc81611d6f565b81146126e757600080fd5b50565b6000815190506126f9816126d3565b92915050565b600061271261270d846119ed565b6119d2565b90508281526020810184848401111561272e5761272d61195c565b5b612739848285611da6565b509392505050565b600082601f83011261275657612755611957565b5b81516127668482602086016126ff565b91505092915050565b60008060408385031215612786576127856118c3565b5b6000612794858286016126ea565b925050602083015167ffffffffffffffff8111156127b5576127b46118c8565b5b6127c185828601612741565b9150509250929050565b7f546865726520617265206e6f206c6f747465726965732070656e64696e67207460008201527f6f20626520656e64656400000000000000000000000000000000000000000000602082015250565b6000612827602a83612176565b9150612832826127cb565b604082019050919050565b600060208201905081810360008301526128568161281a565b9050919050565b6000819050919050565b6128708161285d565b82525050565b600067ffffffffffffffff82169050919050565b61289381612876565b82525050565b600061ffff82169050919050565b6128b081612899565b82525050565b600063ffffffff82169050919050565b6128cf816128b6565b82525050565b600060a0820190506128ea6000830188612867565b6128f7602083018761288a565b61290460408301866128a7565b61291160608301856128c6565b61291e60808301846128c6565b9695505050505050565b6000815190506129378161192b565b92915050565b600060208284031215612953576129526118c3565b5b600061296184828501612928565b91505092915050565b7f4f776e61626c653a206e6577206f776e657220697320746865207a65726f206160008201527f6464726573730000000000000000000000000000000000000000000000000000602082015250565b60006129c6602683612176565b91506129d18261296a565b604082019050919050565b600060208201905081810360008301526129f5816129b9565b9050919050565b7f4e487b7100000000000000000000000000000000000000000000000000000000600052603260045260246000fd5b6000606082019050612a40600083018661188f565b612a4d602083018561188f565b612a5a6040830184611ebd565b949350505050565b7f4e487b7100000000000000000000000000000000000000000000000000000000600052601260045260246000fd5b6000612a9c82611885565b9150612aa783611885565b925082612ab757612ab6612a62565b5b828206905092915050565b7f4f776e61626c653a2063616c6c6572206973206e6f7420746865206f776e6572600082015250565b6000612af8602083612176565b9150612b0382612ac2565b602082019050919050565b60006020820190508181036000830152612b2781612aeb565b9050919050565b6000612b3982611885565b9150612b4483611885565b925082821015612b5757612b566123cf565b5b828203905092915050565b6000612b6d82611885565b9150612b7883611885565b9250817fffffffffffffffffffffffffffffffffffffffffffffffffffffffffffffffff0483118215151615612bb157612bb06123cf565b5b828202905092915050565b6000612bc782611885565b9150612bd283611885565b925082612be257612be1612a62565b5b82820490509291505056fea2646970667358221220a889c92e2477965e2749469fc7a375b50b0511ced7df03faf571be1a0bb8e00464736f6c63430008090033",
  "linkReferences": {},
  "deployedLinkReferences": {}
}