{
  "_format": "hh-sol-artifact-1",
  "contractName": "Lottery",
  "sourceName": "contracts/Lottery.sol",
  "abi": [
    {
      "inputs": [
        {
          "internalType": "uint64",
          "name": "subscriptionId",
          "type": "uint64"
        }
      ],
      "stateMutability": "nonpayable",
      "type": "constructor"
    },
    {
      "inputs": [
        {
          "internalType": "address",
          "name": "have",
          "type": "address"
        },
        {
          "internalType": "address",
          "name": "want",
          "type": "address"
        }
      ],
      "name": "OnlyCoordinatorCanFulfill",
      "type": "error"
    },
    {
      "anonymous": false,
      "inputs": [
        {
          "indexed": true,
          "internalType": "address",
          "name": "previousOwner",
          "type": "address"
        },
        {
          "indexed": true,
          "internalType": "address",
          "name": "newOwner",
          "type": "address"
        }
      ],
      "name": "OwnershipTransferred",
      "type": "event"
    },
    {
      "inputs": [],
      "name": "buyTicket",
      "outputs": [],
      "stateMutability": "payable",
      "type": "function"
    },
    {
      "inputs": [],
      "name": "getContractBalance",
      "outputs": [
        {
          "internalType": "uint256",
          "name": "",
          "type": "uint256"
        }
      ],
      "stateMutability": "view",
      "type": "function"
    },
    {
      "inputs": [],
      "name": "getCurrentWinner",
      "outputs": [
        {
          "internalType": "address",
          "name": "",
          "type": "address"
        }
      ],
      "stateMutability": "view",
      "type": "function"
    },
    {
      "inputs": [
        {
          "internalType": "uint256",
          "name": "_lotteryId",
          "type": "uint256"
        }
      ],
      "name": "getHistoryWinner",
      "outputs": [
        {
          "internalType": "address",
          "name": "",
          "type": "address"
        }
      ],
      "stateMutability": "view",
      "type": "function"
    },
    {
      "inputs": [],
      "name": "getLotteryBalance",
      "outputs": [
        {
          "internalType": "uint256",
          "name": "",
          "type": "uint256"
        }
      ],
      "stateMutability": "view",
      "type": "function"
    },
    {
      "inputs": [],
      "name": "owner",
      "outputs": [
        {
          "internalType": "address",
          "name": "",
          "type": "address"
        }
      ],
      "stateMutability": "view",
      "type": "function"
    },
    {
      "inputs": [],
      "name": "pickTheWinner",
      "outputs": [],
      "stateMutability": "nonpayable",
      "type": "function"
    },
    {
      "inputs": [
        {
          "internalType": "uint256",
          "name": "",
          "type": "uint256"
        }
      ],
      "name": "players",
      "outputs": [
        {
          "internalType": "address payable",
          "name": "",
          "type": "address"
        }
      ],
      "stateMutability": "view",
      "type": "function"
    },
    {
      "inputs": [
        {
          "internalType": "uint256",
          "name": "requestId",
          "type": "uint256"
        },
        {
          "internalType": "uint256[]",
          "name": "randomWords",
          "type": "uint256[]"
        }
      ],
      "name": "rawFulfillRandomWords",
      "outputs": [],
      "stateMutability": "nonpayable",
      "type": "function"
    },
    {
      "inputs": [],
      "name": "renounceOwnership",
      "outputs": [],
      "stateMutability": "nonpayable",
      "type": "function"
    },
    {
      "inputs": [],
      "name": "requestRandomWords",
      "outputs": [],
      "stateMutability": "nonpayable",
      "type": "function"
    },
    {
      "inputs": [
        {
          "internalType": "uint256",
          "name": "",
          "type": "uint256"
        }
      ],
      "name": "s_randomWords",
      "outputs": [
        {
          "internalType": "uint256",
          "name": "",
          "type": "uint256"
        }
      ],
      "stateMutability": "view",
      "type": "function"
    },
    {
      "inputs": [],
      "name": "s_requestId",
      "outputs": [
        {
          "internalType": "uint256",
          "name": "",
          "type": "uint256"
        }
      ],
      "stateMutability": "view",
      "type": "function"
    },
    {
      "inputs": [
        {
          "internalType": "address",
          "name": "newOwner",
          "type": "address"
        }
      ],
      "name": "transferOwnership",
      "outputs": [],
      "stateMutability": "nonpayable",
      "type": "function"
    }
  ],
  "bytecode": "0x60a0604052732ca8e0c643bde4c2e08ab1fa0da3401adad7734d600260006101000a81548173ffffffffffffffffffffffffffffffffffffffff021916908373ffffffffffffffffffffffffffffffffffffffff1602179055507f79d3d8832d904592c0bf9818b621522c988bb8b0c05cdc3b15aea1b6e8db0c1560001b600355620186a0600460006101000a81548163ffffffff021916908363ffffffff16021790555060036004806101000a81548161ffff021916908361ffff1602179055506002600460066101000a81548163ffffffff021916908363ffffffff160217905550348015620000f057600080fd5b506040516200176e3803806200176e83398181016040528101906200011691906200034e565b600260009054906101000a900473ffffffffffffffffffffffffffffffffffffffff16620001596200014d6200023860201b60201c565b6200024060201b60201c565b8073ffffffffffffffffffffffffffffffffffffffff1660808173ffffffffffffffffffffffffffffffffffffffff168152505050600260009054906101000a900473ffffffffffffffffffffffffffffffffffffffff16600160006101000a81548173ffffffffffffffffffffffffffffffffffffffff021916908373ffffffffffffffffffffffffffffffffffffffff16021790555080600160146101000a81548167ffffffffffffffff021916908367ffffffffffffffff160217905550600060098190555067016345785d8a00006008819055505062000380565b600033905090565b60008060009054906101000a900473ffffffffffffffffffffffffffffffffffffffff169050816000806101000a81548173ffffffffffffffffffffffffffffffffffffffff021916908373ffffffffffffffffffffffffffffffffffffffff1602179055508173ffffffffffffffffffffffffffffffffffffffff168173ffffffffffffffffffffffffffffffffffffffff167f8be0079c531659141344cd1fd0a4f28419497f9722a3daafe3b4186f6b6457e060405160405180910390a35050565b600080fd5b600067ffffffffffffffff82169050919050565b620003288162000309565b81146200033457600080fd5b50565b60008151905062000348816200031d565b92915050565b60006020828403121562000367576200036662000304565b5b6000620003778482850162000337565b91505092915050565b6080516113cb620003a360003960008181610313015261036701526113cb6000f3fe6080604052600436106100dd5760003560e01c8063e0c862891161007f578063f2fde38b11610059578063f2fde38b14610257578063f6eaffc814610280578063f71d96cb146102bd578063f7defe8c146102fa576100dd565b8063e0c862891461020b578063e89e106a14610222578063edca914c1461024d576100dd565b80636f9fb98a116100bb5780636f9fb98a14610161578063711cfaa31461018c578063715018a6146101c95780638da5cb5b146101e0576100dd565b80631fe543e3146100e2578063329bfc331461010b57806360654e4714610136575b600080fd5b3480156100ee57600080fd5b5061010960048036038101906101049190610dbd565b610311565b005b34801561011757600080fd5b506101206103d1565b60405161012d9190610e5a565b60405180910390f35b34801561014257600080fd5b5061014b6103fb565b6040516101589190610e84565b60405180910390f35b34801561016d57600080fd5b50610176610405565b6040516101839190610e84565b60405180910390f35b34801561019857600080fd5b506101b360048036038101906101ae9190610e9f565b61040d565b6040516101c09190610e5a565b60405180910390f35b3480156101d557600080fd5b506101de61044a565b005b3480156101ec57600080fd5b506101f561045e565b6040516102029190610e5a565b60405180910390f35b34801561021757600080fd5b50610220610487565b005b34801561022e57600080fd5b50610237610596565b6040516102449190610e84565b60405180910390f35b61025561059c565b005b34801561026357600080fd5b5061027e60048036038101906102799190610ef8565b61065b565b005b34801561028c57600080fd5b506102a760048036038101906102a29190610e9f565b6106df565b6040516102b49190610e84565b60405180910390f35b3480156102c957600080fd5b506102e460048036038101906102df9190610e9f565b610703565b6040516102f19190610f46565b60405180910390f35b34801561030657600080fd5b5061030f610742565b005b7f000000000000000000000000000000000000000000000000000000000000000073ffffffffffffffffffffffffffffffffffffffff163373ffffffffffffffffffffffffffffffffffffffff16146103c357337f00000000000000000000000000000000000000000000000000000000000000006040517f1cf993f40000000000000000000000000000000000000000000000000000000081526004016103ba929190610f61565b60405180910390fd5b6103cd82826108ff565b5050565b6000600a60009054906101000a900473ffffffffffffffffffffffffffffffffffffffff16905090565b6000600954905090565b600047905090565b6000600c600083815260200190815260200160002060009054906101000a900473ffffffffffffffffffffffffffffffffffffffff169050919050565b61045261091a565b61045c6000610998565b565b60008060009054906101000a900473ffffffffffffffffffffffffffffffffffffffff16905090565b61048f61091a565b600160009054906101000a900473ffffffffffffffffffffffffffffffffffffffff1673ffffffffffffffffffffffffffffffffffffffff16635d3b1d30600354600160149054906101000a900467ffffffffffffffff1660048054906101000a900461ffff16600460009054906101000a900463ffffffff16600460069054906101000a900463ffffffff166040518663ffffffff1660e01b815260040161053c959493929190611002565b602060405180830381600087803b15801561055657600080fd5b505af115801561056a573d6000803e3d6000fd5b505050506040513d601f19601f8201168201806040525081019061058e919061106a565b600681905550565b60065481565b60085434146105e0576040517f08c379a00000000000000000000000000000000000000000000000000000000081526004016105d79061111a565b60405180910390fd5b6007339080600181540180825580915050600190039060005260206000200160009091909190916101000a81548173ffffffffffffffffffffffffffffffffffffffff021916908373ffffffffffffffffffffffffffffffffffffffff1602179055506008546009546106539190611169565b600981905550565b61066361091a565b600073ffffffffffffffffffffffffffffffffffffffff168173ffffffffffffffffffffffffffffffffffffffff1614156106d3576040517f08c379a00000000000000000000000000000000000000000000000000000000081526004016106ca90611231565b60405180910390fd5b6106dc81610998565b50565b600581815481106106ef57600080fd5b906000526020600020016000915090505481565b6007818154811061071357600080fd5b906000526020600020016000915054906101000a900473ffffffffffffffffffffffffffffffffffffffff1681565b61074a61091a565b6000600780549050600560008154811061076757610766611251565b5b906000526020600020015461077c91906112af565b905061078781610a5c565b6007818154811061079b5761079a611251565b5b9060005260206000200160009054906101000a900473ffffffffffffffffffffffffffffffffffffffff16600a60006101000a81548173ffffffffffffffffffffffffffffffffffffffff021916908373ffffffffffffffffffffffffffffffffffffffff160217905550600a60009054906101000a900473ffffffffffffffffffffffffffffffffffffffff16600c6000600b54815260200190815260200160002060006101000a81548173ffffffffffffffffffffffffffffffffffffffff021916908373ffffffffffffffffffffffffffffffffffffffff160217905550600b600081548092919061088f906112e0565b91905055506000600981905550600067ffffffffffffffff8111156108b7576108b6610c7a565b5b6040519080825280602002602001820160405280156108e55781602001602082028036833780820191505090505b50600790805190602001906108fb929190610b26565b5050565b8060059080519060200190610915929190610bb0565b505050565b610922610af5565b73ffffffffffffffffffffffffffffffffffffffff1661094061045e565b73ffffffffffffffffffffffffffffffffffffffff1614610996576040517f08c379a000000000000000000000000000000000000000000000000000000000815260040161098d90611375565b60405180910390fd5b565b60008060009054906101000a900473ffffffffffffffffffffffffffffffffffffffff169050816000806101000a81548173ffffffffffffffffffffffffffffffffffffffff021916908373ffffffffffffffffffffffffffffffffffffffff1602179055508173ffffffffffffffffffffffffffffffffffffffff168173ffffffffffffffffffffffffffffffffffffffff167f8be0079c531659141344cd1fd0a4f28419497f9722a3daafe3b4186f6b6457e060405160405180910390a35050565b610af281604051602401610a709190610e84565b6040516020818303038152906040527ff82c50f1000000000000000000000000000000000000000000000000000000007bffffffffffffffffffffffffffffffffffffffffffffffffffffffff19166020820180517bffffffffffffffffffffffffffffffffffffffffffffffffffffffff8381831617835250505050610afd565b50565b600033905090565b60008151905060006a636f6e736f6c652e6c6f679050602083016000808483855afa5050505050565b828054828255906000526020600020908101928215610b9f579160200282015b82811115610b9e5782518260006101000a81548173ffffffffffffffffffffffffffffffffffffffff021916908373ffffffffffffffffffffffffffffffffffffffff16021790555091602001919060010190610b46565b5b509050610bac9190610bfd565b5090565b828054828255906000526020600020908101928215610bec579160200282015b82811115610beb578251825591602001919060010190610bd0565b5b509050610bf99190610bfd565b5090565b5b80821115610c16576000816000905550600101610bfe565b5090565b6000604051905090565b600080fd5b600080fd5b6000819050919050565b610c4181610c2e565b8114610c4c57600080fd5b50565b600081359050610c5e81610c38565b92915050565b600080fd5b6000601f19601f8301169050919050565b7f4e487b7100000000000000000000000000000000000000000000000000000000600052604160045260246000fd5b610cb282610c69565b810181811067ffffffffffffffff82111715610cd157610cd0610c7a565b5b80604052505050565b6000610ce4610c1a565b9050610cf08282610ca9565b919050565b600067ffffffffffffffff821115610d1057610d0f610c7a565b5b602082029050602081019050919050565b600080fd5b6000610d39610d3484610cf5565b610cda565b90508083825260208201905060208402830185811115610d5c57610d5b610d21565b5b835b81811015610d855780610d718882610c4f565b845260208401935050602081019050610d5e565b5050509392505050565b600082601f830112610da457610da3610c64565b5b8135610db4848260208601610d26565b91505092915050565b60008060408385031215610dd457610dd3610c24565b5b6000610de285828601610c4f565b925050602083013567ffffffffffffffff811115610e0357610e02610c29565b5b610e0f85828601610d8f565b9150509250929050565b600073ffffffffffffffffffffffffffffffffffffffff82169050919050565b6000610e4482610e19565b9050919050565b610e5481610e39565b82525050565b6000602082019050610e6f6000830184610e4b565b92915050565b610e7e81610c2e565b82525050565b6000602082019050610e996000830184610e75565b92915050565b600060208284031215610eb557610eb4610c24565b5b6000610ec384828501610c4f565b91505092915050565b610ed581610e39565b8114610ee057600080fd5b50565b600081359050610ef281610ecc565b92915050565b600060208284031215610f0e57610f0d610c24565b5b6000610f1c84828501610ee3565b91505092915050565b6000610f3082610e19565b9050919050565b610f4081610f25565b82525050565b6000602082019050610f5b6000830184610f37565b92915050565b6000604082019050610f766000830185610e4b565b610f836020830184610e4b565b9392505050565b6000819050919050565b610f9d81610f8a565b82525050565b600067ffffffffffffffff82169050919050565b610fc081610fa3565b82525050565b600061ffff82169050919050565b610fdd81610fc6565b82525050565b600063ffffffff82169050919050565b610ffc81610fe3565b82525050565b600060a0820190506110176000830188610f94565b6110246020830187610fb7565b6110316040830186610fd4565b61103e6060830185610ff3565b61104b6080830184610ff3565b9695505050505050565b60008151905061106481610c38565b92915050565b6000602082840312156110805761107f610c24565b5b600061108e84828501611055565b91505092915050565b600082825260208201905092915050565b7f546f2070617274696369706174652c20706c656173652061646420746865207260008201527f65717569726520616d6f756e742e000000000000000000000000000000000000602082015250565b6000611104602e83611097565b915061110f826110a8565b604082019050919050565b60006020820190508181036000830152611133816110f7565b9050919050565b7f4e487b7100000000000000000000000000000000000000000000000000000000600052601160045260246000fd5b600061117482610c2e565b915061117f83610c2e565b9250827fffffffffffffffffffffffffffffffffffffffffffffffffffffffffffffffff038211156111b4576111b361113a565b5b828201905092915050565b7f4f776e61626c653a206e6577206f776e657220697320746865207a65726f206160008201527f6464726573730000000000000000000000000000000000000000000000000000602082015250565b600061121b602683611097565b9150611226826111bf565b604082019050919050565b6000602082019050818103600083015261124a8161120e565b9050919050565b7f4e487b7100000000000000000000000000000000000000000000000000000000600052603260045260246000fd5b7f4e487b7100000000000000000000000000000000000000000000000000000000600052601260045260246000fd5b60006112ba82610c2e565b91506112c583610c2e565b9250826112d5576112d4611280565b5b828206905092915050565b60006112eb82610c2e565b91507fffffffffffffffffffffffffffffffffffffffffffffffffffffffffffffffff82141561131e5761131d61113a565b5b600182019050919050565b7f4f776e61626c653a2063616c6c6572206973206e6f7420746865206f776e6572600082015250565b600061135f602083611097565b915061136a82611329565b602082019050919050565b6000602082019050818103600083015261138e81611352565b905091905056fea264697066735822122062bf9d248acf8125e493b872ba447e95b708e9a8b4cddba7b65c8298e8877c2164736f6c63430008090033",
  "linkReferences": {},
  "deployedLinkReferences": {}
}