{
  "_format": "hh-sol-artifact-1",
  "contractName": "Lottery",
  "sourceName": "contracts/Lottery.sol",
  "abi": [
    {
      "inputs": [
        {
          "internalType": "address",
          "name": "_vrfCoordinatorV2",
          "type": "address"
        },
        {
          "internalType": "uint64",
          "name": "_vrfSubscriptionId",
          "type": "uint64"
        },
        {
          "internalType": "bytes32",
          "name": "_vrfGasLane",
          "type": "bytes32"
        },
        {
          "internalType": "uint32",
          "name": "_vrfCallbackGasLimit",
          "type": "uint32"
        }
      ],
      "stateMutability": "nonpayable",
      "type": "constructor"
    },
    {
      "inputs": [
        {
          "internalType": "address",
          "name": "have",
          "type": "address"
        },
        {
          "internalType": "address",
          "name": "want",
          "type": "address"
        }
      ],
      "name": "OnlyCoordinatorCanFulfill",
      "type": "error"
    },
    {
      "anonymous": false,
      "inputs": [
        {
          "indexed": false,
          "internalType": "address",
          "name": "player",
          "type": "address"
        },
        {
          "indexed": false,
          "internalType": "uint256",
          "name": "lotteryBalance",
          "type": "uint256"
        }
      ],
      "name": "BuyTicket",
      "type": "event"
    },
    {
      "anonymous": false,
      "inputs": [
        {
          "indexed": false,
          "internalType": "uint256",
          "name": "lotteryId",
          "type": "uint256"
        }
      ],
      "name": "EndLotteryEvent",
      "type": "event"
    },
    {
      "anonymous": false,
      "inputs": [
        {
          "indexed": true,
          "internalType": "address",
          "name": "previousOwner",
          "type": "address"
        },
        {
          "indexed": true,
          "internalType": "address",
          "name": "newOwner",
          "type": "address"
        }
      ],
      "name": "OwnershipTransferred",
      "type": "event"
    },
    {
      "anonymous": false,
      "inputs": [
        {
          "indexed": false,
          "internalType": "uint256",
          "name": "requestId",
          "type": "uint256"
        }
      ],
      "name": "PendingLotteriesWordsRequested",
      "type": "event"
    },
    {
      "anonymous": false,
      "inputs": [
        {
          "indexed": false,
          "internalType": "address",
          "name": "currentWinner",
          "type": "address"
        },
        {
          "indexed": false,
          "internalType": "bool",
          "name": "activeLottery",
          "type": "bool"
        },
        {
          "indexed": false,
          "internalType": "address",
          "name": "nftContractAddress",
          "type": "address"
        },
        {
          "indexed": false,
          "internalType": "uint256",
          "name": "awardBalance",
          "type": "uint256"
        }
      ],
      "name": "PickTheWinner",
      "type": "event"
    },
    {
      "anonymous": false,
      "inputs": [
        {
          "indexed": false,
          "internalType": "address",
          "name": "nftOwner",
          "type": "address"
        },
        {
          "indexed": false,
          "internalType": "uint256",
          "name": "nftTokenId",
          "type": "uint256"
        },
        {
          "indexed": false,
          "internalType": "address",
          "name": "nftContractAddress",
          "type": "address"
        },
        {
          "indexed": false,
          "internalType": "uint256",
          "name": "bettingPrice",
          "type": "uint256"
        },
        {
          "indexed": false,
          "internalType": "bool",
          "name": "activeLottery",
          "type": "bool"
        },
        {
          "indexed": false,
          "internalType": "address",
          "name": "beneficiaryAddress",
          "type": "address"
        },
        {
          "indexed": false,
          "internalType": "uint256",
          "name": "endDate",
          "type": "uint256"
        }
      ],
      "name": "SingleLottery",
      "type": "event"
    },
    {
      "inputs": [],
      "name": "CONTRACT_FEE",
      "outputs": [
        {
          "internalType": "uint256",
          "name": "",
          "type": "uint256"
        }
      ],
      "stateMutability": "view",
      "type": "function"
    },
    {
      "inputs": [
        {
          "internalType": "uint256",
          "name": "_lotteryId",
          "type": "uint256"
        }
      ],
      "name": "buyTicket",
      "outputs": [],
      "stateMutability": "payable",
      "type": "function"
    },
    {
      "inputs": [
        {
          "internalType": "bytes",
          "name": "checkdata",
          "type": "bytes"
        }
      ],
      "name": "checkUpkeep",
      "outputs": [
        {
          "internalType": "bool",
          "name": "upkeepNeeded",
          "type": "bool"
        },
        {
          "internalType": "bytes",
          "name": "performData",
          "type": "bytes"
        }
      ],
      "stateMutability": "view",
      "type": "function"
    },
    {
      "inputs": [],
      "name": "getContractBalance",
      "outputs": [
        {
          "internalType": "uint256",
          "name": "",
          "type": "uint256"
        }
      ],
      "stateMutability": "view",
      "type": "function"
    },
    {
      "inputs": [],
      "name": "getLatestLotteryId",
      "outputs": [
        {
          "internalType": "uint256",
          "name": "",
          "type": "uint256"
        }
      ],
      "stateMutability": "view",
      "type": "function"
    },
    {
      "inputs": [
        {
          "internalType": "uint256",
          "name": "_lotteryId",
          "type": "uint256"
        }
      ],
      "name": "getLottery",
      "outputs": [
        {
          "internalType": "address",
          "name": "",
          "type": "address"
        },
        {
          "internalType": "address",
          "name": "",
          "type": "address"
        },
        {
          "internalType": "uint256",
          "name": "",
          "type": "uint256"
        },
        {
          "internalType": "bool",
          "name": "",
          "type": "bool"
        },
        {
          "internalType": "address[]",
          "name": "",
          "type": "address[]"
        },
        {
          "internalType": "uint256",
          "name": "",
          "type": "uint256"
        },
        {
          "internalType": "address",
          "name": "",
          "type": "address"
        },
        {
          "internalType": "uint256",
          "name": "",
          "type": "uint256"
        },
        {
          "internalType": "address",
          "name": "",
          "type": "address"
        }
      ],
      "stateMutability": "view",
      "type": "function"
    },
    {
      "inputs": [
        {
          "internalType": "address",
          "name": "",
          "type": "address"
        },
        {
          "internalType": "address",
          "name": "",
          "type": "address"
        },
        {
          "internalType": "uint256",
          "name": "",
          "type": "uint256"
        },
        {
          "internalType": "bytes",
          "name": "",
          "type": "bytes"
        }
      ],
      "name": "onERC721Received",
      "outputs": [
        {
          "internalType": "bytes4",
          "name": "",
          "type": "bytes4"
        }
      ],
      "stateMutability": "nonpayable",
      "type": "function"
    },
    {
      "inputs": [],
      "name": "owner",
      "outputs": [
        {
          "internalType": "address",
          "name": "",
          "type": "address"
        }
      ],
      "stateMutability": "view",
      "type": "function"
    },
    {
      "inputs": [
        {
          "internalType": "bytes",
          "name": "",
          "type": "bytes"
        }
      ],
      "name": "performUpkeep",
      "outputs": [],
      "stateMutability": "nonpayable",
      "type": "function"
    },
    {
      "inputs": [
        {
          "internalType": "uint256",
          "name": "requestId",
          "type": "uint256"
        },
        {
          "internalType": "uint256[]",
          "name": "randomWords",
          "type": "uint256[]"
        }
      ],
      "name": "rawFulfillRandomWords",
      "outputs": [],
      "stateMutability": "nonpayable",
      "type": "function"
    },
    {
      "inputs": [],
      "name": "renounceOwnership",
      "outputs": [],
      "stateMutability": "nonpayable",
      "type": "function"
    },
    {
      "inputs": [],
      "name": "requestWordsPendingLotteries",
      "outputs": [
        {
          "internalType": "uint256",
          "name": "s_requestId",
          "type": "uint256"
        }
      ],
      "stateMutability": "nonpayable",
      "type": "function"
    },
    {
      "inputs": [],
      "name": "s_pendingLotteryEnd",
      "outputs": [
        {
          "internalType": "bool",
          "name": "",
          "type": "bool"
        }
      ],
      "stateMutability": "view",
      "type": "function"
    },
    {
      "inputs": [
        {
          "internalType": "uint256",
          "name": "",
          "type": "uint256"
        }
      ],
      "name": "s_randomWords",
      "outputs": [
        {
          "internalType": "uint256",
          "name": "",
          "type": "uint256"
        }
      ],
      "stateMutability": "view",
      "type": "function"
    },
    {
      "inputs": [
        {
          "internalType": "uint256",
          "name": "_tokenId",
          "type": "uint256"
        },
        {
          "internalType": "address",
          "name": "_nftContractAddress",
          "type": "address"
        },
        {
          "internalType": "uint256",
          "name": "_bettingPrice",
          "type": "uint256"
        },
        {
          "internalType": "address",
          "name": "_beneficiaryAddress",
          "type": "address"
        },
        {
          "internalType": "uint256",
          "name": "_endDate",
          "type": "uint256"
        }
      ],
      "name": "startLottery",
      "outputs": [
        {
          "internalType": "bytes4",
          "name": "",
          "type": "bytes4"
        }
      ],
      "stateMutability": "nonpayable",
      "type": "function"
    },
    {
      "inputs": [
        {
          "internalType": "address",
          "name": "newOwner",
          "type": "address"
        }
      ],
      "name": "transferOwnership",
      "outputs": [],
      "stateMutability": "nonpayable",
      "type": "function"
    }
  ],
  "bytecode": "0x6101206040523480156200001257600080fd5b5060405162002950380380620029508339818101604052810190620000389190620002fc565b83620000596200004d6200010560201b60201c565b6200010d60201b60201c565b8073ffffffffffffffffffffffffffffffffffffffff1660808173ffffffffffffffffffffffffffffffffffffffff1681525050508373ffffffffffffffffffffffffffffffffffffffff1660a08173ffffffffffffffffffffffffffffffffffffffff16815250508267ffffffffffffffff1660c08167ffffffffffffffff16815250508160e081815250508063ffffffff166101008163ffffffff1681525050505050506200036e565b600033905090565b60008060009054906101000a900473ffffffffffffffffffffffffffffffffffffffff169050816000806101000a81548173ffffffffffffffffffffffffffffffffffffffff021916908373ffffffffffffffffffffffffffffffffffffffff1602179055508173ffffffffffffffffffffffffffffffffffffffff168173ffffffffffffffffffffffffffffffffffffffff167f8be0079c531659141344cd1fd0a4f28419497f9722a3daafe3b4186f6b6457e060405160405180910390a35050565b600080fd5b600073ffffffffffffffffffffffffffffffffffffffff82169050919050565b60006200020382620001d6565b9050919050565b6200021581620001f6565b81146200022157600080fd5b50565b60008151905062000235816200020a565b92915050565b600067ffffffffffffffff82169050919050565b6200025a816200023b565b81146200026657600080fd5b50565b6000815190506200027a816200024f565b92915050565b6000819050919050565b620002958162000280565b8114620002a157600080fd5b50565b600081519050620002b5816200028a565b92915050565b600063ffffffff82169050919050565b620002d681620002bb565b8114620002e257600080fd5b50565b600081519050620002f681620002cb565b92915050565b60008060008060808587031215620003195762000318620001d1565b5b6000620003298782880162000224565b94505060206200033c8782880162000269565b93505060406200034f87828801620002a4565b92505060606200036287828801620002e5565b91505092959194509250565b60805160a05160c05160e05161010051612596620003ba6000396000610c3101526000610bed01526000610c0e01526000610bb10152600081816103f8015261044c01526125966000f3fe6080604052600436106100f35760003560e01c80638da5cb5b1161008a578063e9c5b4bd11610059578063e9c5b4bd14610326578063f2fde38b14610351578063f6eaffc81461037a578063f70d3746146103b7576100f3565b80638da5cb5b1461026057806392e845f61461028b578063c5a4605a146102d0578063c89663ed146102fb576100f3565b80636e04ff0d116100c65780636e04ff0d146101a35780636f9fb98a146101e1578063715018a61461020c57806379f0c3df14610223576100f3565b8063150b7a02146100f85780631fe543e3146101355780634585e33b1461015e57806367dd74ca14610187575b600080fd5b34801561010457600080fd5b5061011f600480360381019061011a9190611639565b6103e2565b60405161012c91906116f7565b60405180910390f35b34801561014157600080fd5b5061015c600480360381019061015791906117da565b6103f6565b005b34801561016a57600080fd5b5061018560048036038101906101809190611891565b6104b6565b005b6101a1600480360381019061019c91906118de565b6104c3565b005b3480156101af57600080fd5b506101ca60048036038101906101c59190611891565b61067e565b6040516101d89291906119ae565b60405180910390f35b3480156101ed57600080fd5b506101f661070f565b60405161020391906119ed565b60405180910390f35b34801561021857600080fd5b50610221610717565b005b34801561022f57600080fd5b5061024a60048036038101906102459190611a08565b61072b565b60405161025791906116f7565b60405180910390f35b34801561026c57600080fd5b506102756109b3565b6040516102829190611a92565b60405180910390f35b34801561029757600080fd5b506102b260048036038101906102ad91906118de565b6109dc565b6040516102c799989796959493929190611b6b565b60405180910390f35b3480156102dc57600080fd5b506102e5610bad565b6040516102f291906119ed565b60405180910390f35b34801561030757600080fd5b50610310610d1b565b60405161031d9190611bff565b60405180910390f35b34801561033257600080fd5b5061033b610d2e565b60405161034891906119ed565b60405180910390f35b34801561035d57600080fd5b5061037860048036038101906103739190611c1a565b610d3f565b005b34801561038657600080fd5b506103a1600480360381019061039c91906118de565b610dc3565b6040516103ae91906119ed565b60405180910390f35b3480156103c357600080fd5b506103cc610de7565b6040516103d991906119ed565b60405180910390f35b600063150b7a0260e01b9050949350505050565b7f000000000000000000000000000000000000000000000000000000000000000073ffffffffffffffffffffffffffffffffffffffff163373ffffffffffffffffffffffffffffffffffffffff16146104a857337f00000000000000000000000000000000000000000000000000000000000000006040517f1cf993f400000000000000000000000000000000000000000000000000000000815260040161049f929190611c47565b60405180910390fd5b6104b28282610dec565b5050565b6104be610bad565b505050565b6104cd6002610f03565b811061050e576040517f08c379a000000000000000000000000000000000000000000000000000000000815260040161050590611cf3565b60405180910390fd5b60006003600083815260200190815260200160002090508060040160009054906101000a900460ff16610576576040517f08c379a000000000000000000000000000000000000000000000000000000000815260040161056d90611dab565b60405180910390fd5b806003015434146105bc576040517f08c379a00000000000000000000000000000000000000000000000000000000081526004016105b390611e3d565b60405180910390fd5b80600501339080600181540180825580915050600190039060005260206000200160009091909190916101000a81548173ffffffffffffffffffffffffffffffffffffffff021916908373ffffffffffffffffffffffffffffffffffffffff160217905550806003015481600601546106359190611e8c565b81600601819055507f2a3164428cba5dad15f5ffe47e10cbefdcbbe9e269fd482753982ee8b2648c3e338260060154604051610672929190611ee2565b60405180910390a15050565b6000606060005b61068f6002610f03565b8110156106c05761069f81610f11565b156106ad57600192506106c0565b80806106b890611f0b565b915050610685565b5083838080601f016020809104026020016040519081016040528093929190818152602001838380828437600081840152601f19601f8201169050808301925050505050505090509250929050565b600047905090565b61071f610f92565b6107296000611010565b565b600080841161076f576040517f08c379a000000000000000000000000000000000000000000000000000000000815260040161076690611fc6565b60405180910390fd5b4282116107b1576040517f08c379a00000000000000000000000000000000000000000000000000000000081526004016107a890612058565b60405180910390fd5b60008590508073ffffffffffffffffffffffffffffffffffffffff166342842e0e33308a6040518463ffffffff1660e01b81526004016107f393929190612078565b600060405180830381600087803b15801561080d57600080fd5b505af1158015610821573d6000803e3d6000fd5b505050506000600360006108356002610f03565b81526020019081526020016000209050338160000160006101000a81548173ffffffffffffffffffffffffffffffffffffffff021916908373ffffffffffffffffffffffffffffffffffffffff160217905550878160010181905550868160020160006101000a81548173ffffffffffffffffffffffffffffffffffffffff021916908373ffffffffffffffffffffffffffffffffffffffff16021790555085816003018190555060018160040160006101000a81548160ff02191690831515021790555060008160060181905550848160070160006101000a81548173ffffffffffffffffffffffffffffffffffffffff021916908373ffffffffffffffffffffffffffffffffffffffff1602179055508381600901819055507f8f091eb0e0cdf901a8325af719fb5bffee6be7ce8c77a252855ca32be8c4c2f53389898960018a8a60405161098c97969594939291906120af565b60405180910390a161099e60026110d4565b63150b7a0260e01b9250505095945050505050565b60008060009054906101000a900473ffffffffffffffffffffffffffffffffffffffff16905090565b60008060008060606000806000806109f46002610f03565b8a10610a35576040517f08c379a0000000000000000000000000000000000000000000000000000000008152600401610a2c90611cf3565b60405180910390fd5b6000600360008c815260200190815260200160002090508060000160009054906101000a900473ffffffffffffffffffffffffffffffffffffffff168160020160009054906101000a900473ffffffffffffffffffffffffffffffffffffffff1682600301548360040160009054906101000a900460ff168460050185600601548660080160009054906101000a900473ffffffffffffffffffffffffffffffffffffffff1687600901548860070160009054906101000a900473ffffffffffffffffffffffffffffffffffffffff1684805480602002602001604051908101604052809291908181526020018280548015610b8657602002820191906000526020600020905b8160009054906101000a900473ffffffffffffffffffffffffffffffffffffffff1673ffffffffffffffffffffffffffffffffffffffff1681526020019060010190808311610b3c575b50505050509450995099509950995099509950995099509950509193959799909294969850565b60007f000000000000000000000000000000000000000000000000000000000000000073ffffffffffffffffffffffffffffffffffffffff16635d3b1d307f00000000000000000000000000000000000000000000000000000000000000007f000000000000000000000000000000000000000000000000000000000000000060037f000000000000000000000000000000000000000000000000000000000000000060016040518663ffffffff1660e01b8152600401610c72959493929190612196565b602060405180830381600087803b158015610c8c57600080fd5b505af1158015610ca0573d6000803e3d6000fd5b505050506040513d601f19601f82011682018060405250810190610cc491906121fe565b90506001600060146101000a81548160ff0219169083151502179055507f4086bd1a4642868b523b32dd30da50e47fa52139cffe27b6b9dba005a3381cb981604051610d1091906119ed565b60405180910390a190565b600060149054906101000a900460ff1681565b6000610d3a6002610f03565b905090565b610d47610f92565b600073ffffffffffffffffffffffffffffffffffffffff168173ffffffffffffffffffffffffffffffffffffffff161415610db7576040517f08c379a0000000000000000000000000000000000000000000000000000000008152600401610dae9061229d565b60405180910390fd5b610dc081611010565b50565b60018181548110610dd357600080fd5b906000526020600020016000915090505481565b600581565b60008060146101000a81548160ff02191690831515021790555060005b610e136002610f03565b811015610efe57610e2381610f11565b15610eeb57610eea81600360008481526020019081526020016000206005018054905084600081518110610e5a57610e596122bd565b5b602002602001015160036000868152602001908152602001600020600101546003600087815260200190815260200160002060020160009054906101000a900473ffffffffffffffffffffffffffffffffffffffff16604051602001610ec2939291906122ec565b6040516020818303038152906040528051906020012060001c610ee59190612352565b6110ea565b5b8080610ef690611f0b565b915050610e09565b505050565b600081600001549050919050565b60008060149054906101000a900460ff1615610f305760009050610f8d565b6003600083815260200190815260200160002060040160009054906101000a900460ff16610f615760009050610f8d565b4260036000848152602001908152602001600020600901541115610f885760009050610f8d565b600190505b919050565b610f9a611443565b73ffffffffffffffffffffffffffffffffffffffff16610fb86109b3565b73ffffffffffffffffffffffffffffffffffffffff161461100e576040517f08c379a0000000000000000000000000000000000000000000000000000000008152600401611005906123cf565b60405180910390fd5b565b60008060009054906101000a900473ffffffffffffffffffffffffffffffffffffffff169050816000806101000a81548173ffffffffffffffffffffffffffffffffffffffff021916908373ffffffffffffffffffffffffffffffffffffffff1602179055508173ffffffffffffffffffffffffffffffffffffffff168173ffffffffffffffffffffffffffffffffffffffff167f8be0079c531659141344cd1fd0a4f28419497f9722a3daafe3b4186f6b6457e060405160405180910390a35050565b6001816000016000828254019250508190555050565b6110f46002610f03565b8210611135576040517f08c379a000000000000000000000000000000000000000000000000000000000815260040161112c90611cf3565b60405180910390fd5b60006003600084815260200190815260200160002090508060040160009054906101000a900460ff1661119d576040517f08c379a000000000000000000000000000000000000000000000000000000000815260040161119490611dab565b60405180910390fd5b8060050182815481106111b3576111b26122bd565b5b9060005260206000200160009054906101000a900473ffffffffffffffffffffffffffffffffffffffff168160080160006101000a81548173ffffffffffffffffffffffffffffffffffffffff021916908373ffffffffffffffffffffffffffffffffffffffff160217905550600060646005606461123291906123ef565b83600601546112419190612423565b61124b919061247d565b905060008260070160009054906101000a900473ffffffffffffffffffffffffffffffffffffffff1673ffffffffffffffffffffffffffffffffffffffff1682604051611297906124df565b60006040518083038185875af1925050503d80600081146112d4576040519150601f19603f3d011682016040523d82523d6000602084013e6112d9565b606091505b505090508061131d576040517f08c379a000000000000000000000000000000000000000000000000000000000815260040161131490612540565b60405180910390fd5b60008360040160006101000a81548160ff021916908315150217905550600083600601819055507f3056e6a2c5f046f7a52808a2d667aa237021e443f84237f476e8ea63f7c3ba018560405161137391906119ed565b60405180910390a160008360020160009054906101000a900473ffffffffffffffffffffffffffffffffffffffff1690508073ffffffffffffffffffffffffffffffffffffffff166342842e0e308660080160009054906101000a900473ffffffffffffffffffffffffffffffffffffffff1687600101546040518463ffffffff1660e01b815260040161140993929190612078565b600060405180830381600087803b15801561142357600080fd5b505af1158015611437573d6000803e3d6000fd5b50505050505050505050565b600033905090565b6000604051905090565b600080fd5b600080fd5b600073ffffffffffffffffffffffffffffffffffffffff82169050919050565b600061148a8261145f565b9050919050565b61149a8161147f565b81146114a557600080fd5b50565b6000813590506114b781611491565b92915050565b6000819050919050565b6114d0816114bd565b81146114db57600080fd5b50565b6000813590506114ed816114c7565b92915050565b600080fd5b600080fd5b6000601f19601f8301169050919050565b7f4e487b7100000000000000000000000000000000000000000000000000000000600052604160045260246000fd5b611546826114fd565b810181811067ffffffffffffffff821117156115655761156461150e565b5b80604052505050565b600061157861144b565b9050611584828261153d565b919050565b600067ffffffffffffffff8211156115a4576115a361150e565b5b6115ad826114fd565b9050602081019050919050565b82818337600083830152505050565b60006115dc6115d784611589565b61156e565b9050828152602081018484840111156115f8576115f76114f8565b5b6116038482856115ba565b509392505050565b600082601f8301126116205761161f6114f3565b5b81356116308482602086016115c9565b91505092915050565b6000806000806080858703121561165357611652611455565b5b6000611661878288016114a8565b9450506020611672878288016114a8565b9350506040611683878288016114de565b925050606085013567ffffffffffffffff8111156116a4576116a361145a565b5b6116b08782880161160b565b91505092959194509250565b60007fffffffff0000000000000000000000000000000000000000000000000000000082169050919050565b6116f1816116bc565b82525050565b600060208201905061170c60008301846116e8565b92915050565b600067ffffffffffffffff82111561172d5761172c61150e565b5b602082029050602081019050919050565b600080fd5b600061175661175184611712565b61156e565b905080838252602082019050602084028301858111156117795761177861173e565b5b835b818110156117a2578061178e88826114de565b84526020840193505060208101905061177b565b5050509392505050565b600082601f8301126117c1576117c06114f3565b5b81356117d1848260208601611743565b91505092915050565b600080604083850312156117f1576117f0611455565b5b60006117ff858286016114de565b925050602083013567ffffffffffffffff8111156118205761181f61145a565b5b61182c858286016117ac565b9150509250929050565b600080fd5b60008083601f840112611851576118506114f3565b5b8235905067ffffffffffffffff81111561186e5761186d611836565b5b60208301915083600182028301111561188a5761188961173e565b5b9250929050565b600080602083850312156118a8576118a7611455565b5b600083013567ffffffffffffffff8111156118c6576118c561145a565b5b6118d28582860161183b565b92509250509250929050565b6000602082840312156118f4576118f3611455565b5b6000611902848285016114de565b91505092915050565b60008115159050919050565b6119208161190b565b82525050565b600081519050919050565b600082825260208201905092915050565b60005b83811015611960578082015181840152602081019050611945565b8381111561196f576000848401525b50505050565b600061198082611926565b61198a8185611931565b935061199a818560208601611942565b6119a3816114fd565b840191505092915050565b60006040820190506119c36000830185611917565b81810360208301526119d58184611975565b90509392505050565b6119e7816114bd565b82525050565b6000602082019050611a0260008301846119de565b92915050565b600080600080600060a08688031215611a2457611a23611455565b5b6000611a32888289016114de565b9550506020611a43888289016114a8565b9450506040611a54888289016114de565b9350506060611a65888289016114a8565b9250506080611a76888289016114de565b9150509295509295909350565b611a8c8161147f565b82525050565b6000602082019050611aa76000830184611a83565b92915050565b600081519050919050565b600082825260208201905092915050565b6000819050602082019050919050565b611ae28161147f565b82525050565b6000611af48383611ad9565b60208301905092915050565b6000602082019050919050565b6000611b1882611aad565b611b228185611ab8565b9350611b2d83611ac9565b8060005b83811015611b5e578151611b458882611ae8565b9750611b5083611b00565b925050600181019050611b31565b5085935050505092915050565b600061012082019050611b81600083018c611a83565b611b8e602083018b611a83565b611b9b604083018a6119de565b611ba86060830189611917565b8181036080830152611bba8188611b0d565b9050611bc960a08301876119de565b611bd660c0830186611a83565b611be360e08301856119de565b611bf1610100830184611a83565b9a9950505050505050505050565b6000602082019050611c146000830184611917565b92915050565b600060208284031215611c3057611c2f611455565b5b6000611c3e848285016114a8565b91505092915050565b6000604082019050611c5c6000830185611a83565b611c696020830184611a83565b9392505050565b600082825260208201905092915050565b7f546865206c6f747465727920496420676976656e20646f6573206e6f7420636f60008201527f72726573706f6e6420746f20616e206578697374696e67206c6f74746572792e602082015250565b6000611cdd604083611c70565b9150611ce882611c81565b604082019050919050565b60006020820190508181036000830152611d0c81611cd0565b9050919050565b7f546865206c6f747465727920496420676976656e20636f72726573706f6e647360008201527f20746f2061206c6f747465727920746861742068617320616c7265616479206560208201527f6e6465642e000000000000000000000000000000000000000000000000000000604082015250565b6000611d95604583611c70565b9150611da082611d13565b606082019050919050565b60006020820190508181036000830152611dc481611d88565b9050919050565b7f546f2070617274696369706174652c20706c656173652061646420746865207260008201527f6571756972656420616d6f756e742e0000000000000000000000000000000000602082015250565b6000611e27602f83611c70565b9150611e3282611dcb565b604082019050919050565b60006020820190508181036000830152611e5681611e1a565b9050919050565b7f4e487b7100000000000000000000000000000000000000000000000000000000600052601160045260246000fd5b6000611e97826114bd565b9150611ea2836114bd565b9250827fffffffffffffffffffffffffffffffffffffffffffffffffffffffffffffffff03821115611ed757611ed6611e5d565b5b828201905092915050565b6000604082019050611ef76000830185611a83565b611f0460208301846119de565b9392505050565b6000611f16826114bd565b91507fffffffffffffffffffffffffffffffffffffffffffffffffffffffffffffffff821415611f4957611f48611e5d565b5b600182019050919050565b7f42657474696e672070726963652073686f756c6420626520677265617465722060008201527f7468616e207a65726f2e00000000000000000000000000000000000000000000602082015250565b6000611fb0602a83611c70565b9150611fbb82611f54565b604082019050919050565b60006020820190508181036000830152611fdf81611fa3565b9050919050565b7f456e6420646174652073686f756c64206265206c61746572207468616e20746860008201527f652063757272656e742074696d657374616d7000000000000000000000000000602082015250565b6000612042603383611c70565b915061204d82611fe6565b604082019050919050565b6000602082019050818103600083015261207181612035565b9050919050565b600060608201905061208d6000830186611a83565b61209a6020830185611a83565b6120a760408301846119de565b949350505050565b600060e0820190506120c4600083018a611a83565b6120d160208301896119de565b6120de6040830188611a83565b6120eb60608301876119de565b6120f86080830186611917565b61210560a0830185611a83565b61211260c08301846119de565b98975050505050505050565b6000819050919050565b6121318161211e565b82525050565b600067ffffffffffffffff82169050919050565b61215481612137565b82525050565b600061ffff82169050919050565b6121718161215a565b82525050565b600063ffffffff82169050919050565b61219081612177565b82525050565b600060a0820190506121ab6000830188612128565b6121b8602083018761214b565b6121c56040830186612168565b6121d26060830185612187565b6121df6080830184612187565b9695505050505050565b6000815190506121f8816114c7565b92915050565b60006020828403121561221457612213611455565b5b6000612222848285016121e9565b91505092915050565b7f4f776e61626c653a206e6577206f776e657220697320746865207a65726f206160008201527f6464726573730000000000000000000000000000000000000000000000000000602082015250565b6000612287602683611c70565b91506122928261222b565b604082019050919050565b600060208201905081810360008301526122b68161227a565b9050919050565b7f4e487b7100000000000000000000000000000000000000000000000000000000600052603260045260246000fd5b600060608201905061230160008301866119de565b61230e60208301856119de565b61231b6040830184611a83565b949350505050565b7f4e487b7100000000000000000000000000000000000000000000000000000000600052601260045260246000fd5b600061235d826114bd565b9150612368836114bd565b92508261237857612377612323565b5b828206905092915050565b7f4f776e61626c653a2063616c6c6572206973206e6f7420746865206f776e6572600082015250565b60006123b9602083611c70565b91506123c482612383565b602082019050919050565b600060208201905081810360008301526123e8816123ac565b9050919050565b60006123fa826114bd565b9150612405836114bd565b92508282101561241857612417611e5d565b5b828203905092915050565b600061242e826114bd565b9150612439836114bd565b9250817fffffffffffffffffffffffffffffffffffffffffffffffffffffffffffffffff048311821515161561247257612471611e5d565b5b828202905092915050565b6000612488826114bd565b9150612493836114bd565b9250826124a3576124a2612323565b5b828204905092915050565b600081905092915050565b50565b60006124c96000836124ae565b91506124d4826124b9565b600082019050919050565b60006124ea826124bc565b9150819050919050565b7f5472616e73616374696f6e204661696c65640000000000000000000000000000600082015250565b600061252a601283611c70565b9150612535826124f4565b602082019050919050565b600060208201905081810360008301526125598161251d565b905091905056fea264697066735822122030a920018d592355ec03d8a05b5454d5ec5457b59afd9ba727a66a42a363e7bb64736f6c63430008090033",
  "linkReferences": {},
  "deployedLinkReferences": {}
}