{
  "_format": "hh-sol-artifact-1",
  "contractName": "LotteryMultiple",
  "sourceName": "contracts/LotteryMultiple.sol",
  "abi": [
    {
      "anonymous": false,
      "inputs": [
        {
          "indexed": false,
          "internalType": "address",
          "name": "player",
          "type": "address"
        },
        {
          "indexed": false,
          "internalType": "uint256",
          "name": "lotteryBalance",
          "type": "uint256"
        }
      ],
      "name": "BuyTicket",
      "type": "event"
    },
    {
      "anonymous": false,
      "inputs": [
        {
          "indexed": true,
          "internalType": "address",
          "name": "previousOwner",
          "type": "address"
        },
        {
          "indexed": true,
          "internalType": "address",
          "name": "newOwner",
          "type": "address"
        }
      ],
      "name": "OwnershipTransferred",
      "type": "event"
    },
    {
      "anonymous": false,
      "inputs": [
        {
          "indexed": false,
          "internalType": "address",
          "name": "currentWinner",
          "type": "address"
        },
        {
          "indexed": false,
          "internalType": "uint256",
          "name": "awardBalance",
          "type": "uint256"
        }
      ],
      "name": "PickTheWinner",
      "type": "event"
    },
    {
      "anonymous": false,
      "inputs": [
        {
          "indexed": false,
          "internalType": "address",
          "name": "nftOwner",
          "type": "address"
        },
        {
          "indexed": false,
          "internalType": "uint256",
          "name": "nftTokenId",
          "type": "uint256"
        },
        {
          "indexed": false,
          "internalType": "address",
          "name": "nftContractAddress",
          "type": "address"
        },
        {
          "indexed": false,
          "internalType": "uint256",
          "name": "bettingPrice",
          "type": "uint256"
        },
        {
          "indexed": false,
          "internalType": "bool",
          "name": "activeLottery",
          "type": "bool"
        }
      ],
      "name": "SingleLottery",
      "type": "event"
    },
    {
      "inputs": [
        {
          "internalType": "uint256",
          "name": "_lotteryId",
          "type": "uint256"
        }
      ],
      "name": "buyTicket",
      "outputs": [],
      "stateMutability": "payable",
      "type": "function"
    },
    {
      "inputs": [
        {
          "internalType": "uint256",
          "name": "_lotteryId",
          "type": "uint256"
        }
      ],
      "name": "getLottery",
      "outputs": [
        {
          "internalType": "address",
          "name": "",
          "type": "address"
        },
        {
          "internalType": "address",
          "name": "",
          "type": "address"
        },
        {
          "internalType": "uint256",
          "name": "",
          "type": "uint256"
        },
        {
          "internalType": "bool",
          "name": "",
          "type": "bool"
        },
        {
          "internalType": "address[]",
          "name": "",
          "type": "address[]"
        },
        {
          "internalType": "uint256",
          "name": "",
          "type": "uint256"
        }
      ],
      "stateMutability": "view",
      "type": "function"
    },
    {
      "inputs": [],
      "name": "owner",
      "outputs": [
        {
          "internalType": "address",
          "name": "",
          "type": "address"
        }
      ],
      "stateMutability": "view",
      "type": "function"
    },
    {
      "inputs": [
        {
          "internalType": "uint256",
          "name": "_lotteryId",
          "type": "uint256"
        }
      ],
      "name": "pickTheWinner",
      "outputs": [],
      "stateMutability": "nonpayable",
      "type": "function"
    },
    {
      "inputs": [],
      "name": "renounceOwnership",
      "outputs": [],
      "stateMutability": "nonpayable",
      "type": "function"
    },
    {
      "inputs": [
        {
          "internalType": "uint256",
          "name": "_tokenId",
          "type": "uint256"
        },
        {
          "internalType": "address",
          "name": "_nftContractAddress",
          "type": "address"
        },
        {
          "internalType": "uint256",
          "name": "_bettingPrice",
          "type": "uint256"
        }
      ],
      "name": "startLottery",
      "outputs": [],
      "stateMutability": "nonpayable",
      "type": "function"
    },
    {
      "inputs": [
        {
          "internalType": "address",
          "name": "newOwner",
          "type": "address"
        }
      ],
      "name": "transferOwnership",
      "outputs": [],
      "stateMutability": "nonpayable",
      "type": "function"
    }
  ],
  "bytecode": "0x60806040527f54d8ca998e444caff7426ffb44cad97f5724b43196a1e3466dfd59b7f75a905260025534801561003457600080fd5b5061005161004661005660201b60201c565b61005e60201b60201c565b610122565b600033905090565b60008060009054906101000a900473ffffffffffffffffffffffffffffffffffffffff169050816000806101000a81548173ffffffffffffffffffffffffffffffffffffffff021916908373ffffffffffffffffffffffffffffffffffffffff1602179055508173ffffffffffffffffffffffffffffffffffffffff168173ffffffffffffffffffffffffffffffffffffffff167f8be0079c531659141344cd1fd0a4f28419497f9722a3daafe3b4186f6b6457e060405160405180910390a35050565b611073806101316000396000f3fe6080604052600436106100705760003560e01c80638da5cb5b1161004e5780638da5cb5b146100d157806392e845f6146100fc578063f2fde38b1461013e578063ff5908991461016757610070565b806367dd74ca14610075578063715018a61461009157806382db4f19146100a8575b600080fd5b61008f600480360381019061008a919061094a565b610190565b005b34801561009d57600080fd5b506100a66102af565b005b3480156100b457600080fd5b506100cf60048036038101906100ca919061094a565b6102c3565b005b3480156100dd57600080fd5b506100e661049d565b6040516100f391906109b8565b60405180910390f35b34801561010857600080fd5b50610123600480360381019061011e919061094a565b6104c6565b60405161013596959493929190610abb565b60405180910390f35b34801561014a57600080fd5b5061016560048036038101906101609190610b4f565b6105ee565b005b34801561017357600080fd5b5061018e60048036038101906101899190610b7c565b610672565b005b6000600360008381526020019081526020016000209050806003015434146101ed576040517f08c379a00000000000000000000000000000000000000000000000000000000081526004016101e490610c52565b60405180910390fd5b80600501339080600181540180825580915050600190039060005260206000200160009091909190916101000a81548173ffffffffffffffffffffffffffffffffffffffff021916908373ffffffffffffffffffffffffffffffffffffffff160217905550806003015481600601546102669190610ca1565b81600601819055507f2a3164428cba5dad15f5ffe47e10cbefdcbbe9e269fd482753982ee8b2648c3e3382600601546040516102a3929190610cf7565b60405180910390a15050565b6102b76107a1565b6102c1600061081f565b565b6000600360008381526020019081526020016000209050600081600501805490506002546102f19190610d4f565b905060006064605084600601546103089190610d80565b6103129190610dda565b9050600083600501838154811061032c5761032b610e0b565b5b9060005260206000200160009054906101000a900473ffffffffffffffffffffffffffffffffffffffff1673ffffffffffffffffffffffffffffffffffffffff168260405161037a90610e6b565b60006040518083038185875af1925050503d80600081146103b7576040519150601f19603f3d011682016040523d82523d6000602084013e6103bc565b606091505b5050905080610400576040517f08c379a00000000000000000000000000000000000000000000000000000000081526004016103f790610ecc565b60405180910390fd5b60008460040160006101000a81548160ff0219169083151502179055507fd5763bfc7bc321b84083b20a86d88a7e25850ff47f056c77a2caee43e729fd9884600501848154811061045457610453610e0b565b5b9060005260206000200160009054906101000a900473ffffffffffffffffffffffffffffffffffffffff168360405161048e929190610cf7565b60405180910390a15050505050565b60008060009054906101000a900473ffffffffffffffffffffffffffffffffffffffff16905090565b60008060008060606000806003600089815260200190815260200160002090508060000160009054906101000a900473ffffffffffffffffffffffffffffffffffffffff168160020160009054906101000a900473ffffffffffffffffffffffffffffffffffffffff1682600301548360040160009054906101000a900460ff16846005018560060154818054806020026020016040519081016040528092919081815260200182805480156105d157602002820191906000526020600020905b8160009054906101000a900473ffffffffffffffffffffffffffffffffffffffff1673ffffffffffffffffffffffffffffffffffffffff1681526020019060010190808311610587575b505050505091509650965096509650965096505091939550919395565b6105f66107a1565b600073ffffffffffffffffffffffffffffffffffffffff168173ffffffffffffffffffffffffffffffffffffffff161415610666576040517f08c379a000000000000000000000000000000000000000000000000000000000815260040161065d90610f5e565b60405180910390fd5b61066f8161081f565b50565b60006003600061068260016108e3565b81526020019081526020016000209050338160000160006101000a81548173ffffffffffffffffffffffffffffffffffffffff021916908373ffffffffffffffffffffffffffffffffffffffff160217905550838160010181905550828160020160006101000a81548173ffffffffffffffffffffffffffffffffffffffff021916908373ffffffffffffffffffffffffffffffffffffffff16021790555081816003018190555060018160040160006101000a81548160ff021916908315150217905550600081600601819055507f68c9129e4cb26a947d3d51b45c4acca9c413372ee45d58edd6e8bca64a2c9572338585856001604051610789959493929190610f7e565b60405180910390a161079b60016108f1565b50505050565b6107a9610907565b73ffffffffffffffffffffffffffffffffffffffff166107c761049d565b73ffffffffffffffffffffffffffffffffffffffff161461081d576040517f08c379a00000000000000000000000000000000000000000000000000000000081526004016108149061101d565b60405180910390fd5b565b60008060009054906101000a900473ffffffffffffffffffffffffffffffffffffffff169050816000806101000a81548173ffffffffffffffffffffffffffffffffffffffff021916908373ffffffffffffffffffffffffffffffffffffffff1602179055508173ffffffffffffffffffffffffffffffffffffffff168173ffffffffffffffffffffffffffffffffffffffff167f8be0079c531659141344cd1fd0a4f28419497f9722a3daafe3b4186f6b6457e060405160405180910390a35050565b600081600001549050919050565b6001816000016000828254019250508190555050565b600033905090565b600080fd5b6000819050919050565b61092781610914565b811461093257600080fd5b50565b6000813590506109448161091e565b92915050565b6000602082840312156109605761095f61090f565b5b600061096e84828501610935565b91505092915050565b600073ffffffffffffffffffffffffffffffffffffffff82169050919050565b60006109a282610977565b9050919050565b6109b281610997565b82525050565b60006020820190506109cd60008301846109a9565b92915050565b6109dc81610914565b82525050565b60008115159050919050565b6109f7816109e2565b82525050565b600081519050919050565b600082825260208201905092915050565b6000819050602082019050919050565b610a3281610997565b82525050565b6000610a448383610a29565b60208301905092915050565b6000602082019050919050565b6000610a68826109fd565b610a728185610a08565b9350610a7d83610a19565b8060005b83811015610aae578151610a958882610a38565b9750610aa083610a50565b925050600181019050610a81565b5085935050505092915050565b600060c082019050610ad060008301896109a9565b610add60208301886109a9565b610aea60408301876109d3565b610af760608301866109ee565b8181036080830152610b098185610a5d565b9050610b1860a08301846109d3565b979650505050505050565b610b2c81610997565b8114610b3757600080fd5b50565b600081359050610b4981610b23565b92915050565b600060208284031215610b6557610b6461090f565b5b6000610b7384828501610b3a565b91505092915050565b600080600060608486031215610b9557610b9461090f565b5b6000610ba386828701610935565b9350506020610bb486828701610b3a565b9250506040610bc586828701610935565b9150509250925092565b600082825260208201905092915050565b7f546f2070617274696369706174652c20706c656173652061646420746865207260008201527f65717569726520616d6f756e742e000000000000000000000000000000000000602082015250565b6000610c3c602e83610bcf565b9150610c4782610be0565b604082019050919050565b60006020820190508181036000830152610c6b81610c2f565b9050919050565b7f4e487b7100000000000000000000000000000000000000000000000000000000600052601160045260246000fd5b6000610cac82610914565b9150610cb783610914565b9250827fffffffffffffffffffffffffffffffffffffffffffffffffffffffffffffffff03821115610cec57610ceb610c72565b5b828201905092915050565b6000604082019050610d0c60008301856109a9565b610d1960208301846109d3565b9392505050565b7f4e487b7100000000000000000000000000000000000000000000000000000000600052601260045260246000fd5b6000610d5a82610914565b9150610d6583610914565b925082610d7557610d74610d20565b5b828206905092915050565b6000610d8b82610914565b9150610d9683610914565b9250817fffffffffffffffffffffffffffffffffffffffffffffffffffffffffffffffff0483118215151615610dcf57610dce610c72565b5b828202905092915050565b6000610de582610914565b9150610df083610914565b925082610e0057610dff610d20565b5b828204905092915050565b7f4e487b7100000000000000000000000000000000000000000000000000000000600052603260045260246000fd5b600081905092915050565b50565b6000610e55600083610e3a565b9150610e6082610e45565b600082019050919050565b6000610e7682610e48565b9150819050919050565b7f6661696c65640000000000000000000000000000000000000000000000000000600082015250565b6000610eb6600683610bcf565b9150610ec182610e80565b602082019050919050565b60006020820190508181036000830152610ee581610ea9565b9050919050565b7f4f776e61626c653a206e6577206f776e657220697320746865207a65726f206160008201527f6464726573730000000000000000000000000000000000000000000000000000602082015250565b6000610f48602683610bcf565b9150610f5382610eec565b604082019050919050565b60006020820190508181036000830152610f7781610f3b565b9050919050565b600060a082019050610f9360008301886109a9565b610fa060208301876109d3565b610fad60408301866109a9565b610fba60608301856109d3565b610fc760808301846109ee565b9695505050505050565b7f4f776e61626c653a2063616c6c6572206973206e6f7420746865206f776e6572600082015250565b6000611007602083610bcf565b915061101282610fd1565b602082019050919050565b6000602082019050818103600083015261103681610ffa565b905091905056fea2646970667358221220b2000dd4f705660d750025d17872a82fc168e091ae21f5b378d78a829ffc66f064736f6c63430008090033",
  "linkReferences": {},
  "deployedLinkReferences": {}
}