{
  "_format": "hh-sol-artifact-1",
  "contractName": "LotteryMultiple",
  "sourceName": "contracts/LotteryMultiple.sol",
  "abi": [
    {
      "anonymous": false,
      "inputs": [
        {
          "indexed": false,
          "internalType": "address",
          "name": "player",
          "type": "address"
        },
        {
          "indexed": false,
          "internalType": "uint256",
          "name": "lotteryBalance",
          "type": "uint256"
        }
      ],
      "name": "BuyTicket",
      "type": "event"
    },
    {
      "anonymous": false,
      "inputs": [
        {
          "indexed": true,
          "internalType": "address",
          "name": "previousOwner",
          "type": "address"
        },
        {
          "indexed": true,
          "internalType": "address",
          "name": "newOwner",
          "type": "address"
        }
      ],
      "name": "OwnershipTransferred",
      "type": "event"
    },
    {
      "anonymous": false,
      "inputs": [
        {
          "indexed": false,
          "internalType": "address",
          "name": "currentWinner",
          "type": "address"
        },
        {
          "indexed": false,
          "internalType": "bool",
          "name": "activeLottery",
          "type": "bool"
        },
        {
          "indexed": false,
          "internalType": "uint256",
          "name": "awardBalance",
          "type": "uint256"
        }
      ],
      "name": "PickTheWinner",
      "type": "event"
    },
    {
      "anonymous": false,
      "inputs": [
        {
          "indexed": false,
          "internalType": "address",
          "name": "nftOwner",
          "type": "address"
        },
        {
          "indexed": false,
          "internalType": "uint256",
          "name": "nftTokenId",
          "type": "uint256"
        },
        {
          "indexed": false,
          "internalType": "address",
          "name": "nftContractAddress",
          "type": "address"
        },
        {
          "indexed": false,
          "internalType": "uint256",
          "name": "bettingPrice",
          "type": "uint256"
        },
        {
          "indexed": false,
          "internalType": "bool",
          "name": "activeLottery",
          "type": "bool"
        },
        {
          "indexed": false,
          "internalType": "address",
          "name": "beneficiaryAddress",
          "type": "address"
        },
        {
          "indexed": false,
          "internalType": "uint256",
          "name": "startDate",
          "type": "uint256"
        }
      ],
      "name": "SingleLottery",
      "type": "event"
    },
    {
      "inputs": [
        {
          "internalType": "uint256",
          "name": "_lotteryId",
          "type": "uint256"
        }
      ],
      "name": "buyTicket",
      "outputs": [],
      "stateMutability": "payable",
      "type": "function"
    },
    {
      "inputs": [],
      "name": "getContractBalance",
      "outputs": [
        {
          "internalType": "uint256",
          "name": "",
          "type": "uint256"
        }
      ],
      "stateMutability": "view",
      "type": "function"
    },
    {
      "inputs": [
        {
          "internalType": "uint256",
          "name": "_lotteryId",
          "type": "uint256"
        }
      ],
      "name": "getLottery",
      "outputs": [
        {
          "internalType": "address",
          "name": "",
          "type": "address"
        },
        {
          "internalType": "address",
          "name": "",
          "type": "address"
        },
        {
          "internalType": "uint256",
          "name": "",
          "type": "uint256"
        },
        {
          "internalType": "bool",
          "name": "",
          "type": "bool"
        },
        {
          "internalType": "address[]",
          "name": "",
          "type": "address[]"
        },
        {
          "internalType": "uint256",
          "name": "",
          "type": "uint256"
        },
        {
          "internalType": "address",
          "name": "",
          "type": "address"
        },
        {
          "internalType": "uint256",
          "name": "",
          "type": "uint256"
        }
      ],
      "stateMutability": "view",
      "type": "function"
    },
    {
      "inputs": [],
      "name": "owner",
      "outputs": [
        {
          "internalType": "address",
          "name": "",
          "type": "address"
        }
      ],
      "stateMutability": "view",
      "type": "function"
    },
    {
      "inputs": [
        {
          "internalType": "uint256",
          "name": "_lotteryId",
          "type": "uint256"
        }
      ],
      "name": "pickTheWinner",
      "outputs": [],
      "stateMutability": "nonpayable",
      "type": "function"
    },
    {
      "inputs": [],
      "name": "renounceOwnership",
      "outputs": [],
      "stateMutability": "nonpayable",
      "type": "function"
    },
    {
      "inputs": [
        {
          "internalType": "uint256",
          "name": "_tokenId",
          "type": "uint256"
        },
        {
          "internalType": "address",
          "name": "_nftContractAddress",
          "type": "address"
        },
        {
          "internalType": "uint256",
          "name": "_bettingPrice",
          "type": "uint256"
        },
        {
          "internalType": "address",
          "name": "_beneficiaryAddress",
          "type": "address"
        }
      ],
      "name": "startLottery",
      "outputs": [],
      "stateMutability": "nonpayable",
      "type": "function"
    },
    {
      "inputs": [
        {
          "internalType": "address",
          "name": "newOwner",
          "type": "address"
        }
      ],
      "name": "transferOwnership",
      "outputs": [],
      "stateMutability": "nonpayable",
      "type": "function"
    }
  ],
  "bytecode": "0x60806040527f54d8ca998e444caff7426ffb44cad97f5724b43196a1e3466dfd59b7f75a905260025534801561003457600080fd5b5061005161004661005660201b60201c565b61005e60201b60201c565b610122565b600033905090565b60008060009054906101000a900473ffffffffffffffffffffffffffffffffffffffff169050816000806101000a81548173ffffffffffffffffffffffffffffffffffffffff021916908373ffffffffffffffffffffffffffffffffffffffff1602179055508173ffffffffffffffffffffffffffffffffffffffff168173ffffffffffffffffffffffffffffffffffffffff167f8be0079c531659141344cd1fd0a4f28419497f9722a3daafe3b4186f6b6457e060405160405180910390a35050565b61123d806101316000396000f3fe60806040526004361061007a5760003560e01c806382db4f191161004e57806382db4f19146101065780638da5cb5b1461012f57806392e845f61461015a578063f2fde38b1461019e5761007a565b806248dc111461007f57806367dd74ca146100a85780636f9fb98a146100c4578063715018a6146100ef575b600080fd5b34801561008b57600080fd5b506100a660048036038101906100a19190610ad3565b6101c7565b005b6100c260048036038101906100bd9190610b3a565b610347565b005b3480156100d057600080fd5b506100d9610466565b6040516100e69190610b76565b60405180910390f35b3480156100fb57600080fd5b5061010461046e565b005b34801561011257600080fd5b5061012d60048036038101906101289190610b3a565b610482565b005b34801561013b57600080fd5b506101446106c4565b6040516101519190610ba0565b60405180910390f35b34801561016657600080fd5b50610181600480360381019061017c9190610b3a565b6106ed565b604051610195989796959493929190610c94565b60405180910390f35b3480156101aa57600080fd5b506101c560048036038101906101c09190610d19565b610848565b005b6000600360006101d760016108cc565b81526020019081526020016000209050338160000160006101000a81548173ffffffffffffffffffffffffffffffffffffffff021916908373ffffffffffffffffffffffffffffffffffffffff160217905550848160010181905550838160020160006101000a81548173ffffffffffffffffffffffffffffffffffffffff021916908373ffffffffffffffffffffffffffffffffffffffff16021790555082816003018190555060018160040160006101000a81548160ff02191690831515021790555060008160060181905550818160070160006101000a81548173ffffffffffffffffffffffffffffffffffffffff021916908373ffffffffffffffffffffffffffffffffffffffff1602179055504281600901819055507f8f091eb0e0cdf901a8325af719fb5bffee6be7ce8c77a252855ca32be8c4c2f5338686866001874260405161032e9796959493929190610d46565b60405180910390a161034060016108da565b5050505050565b6000600360008381526020019081526020016000209050806003015434146103a4576040517f08c379a000000000000000000000000000000000000000000000000000000000815260040161039b90610e38565b60405180910390fd5b80600501339080600181540180825580915050600190039060005260206000200160009091909190916101000a81548173ffffffffffffffffffffffffffffffffffffffff021916908373ffffffffffffffffffffffffffffffffffffffff1602179055508060030154816006015461041d9190610e87565b81600601819055507f2a3164428cba5dad15f5ffe47e10cbefdcbbe9e269fd482753982ee8b2648c3e33826006015460405161045a929190610edd565b60405180910390a15050565b600047905090565b6104766108f0565b610480600061096e565b565b6000600360008381526020019081526020016000209050600081600501805490506002546104b09190610f35565b90508160050181815481106104c8576104c7610f66565b5b9060005260206000200160009054906101000a900473ffffffffffffffffffffffffffffffffffffffff168260080160006101000a81548173ffffffffffffffffffffffffffffffffffffffff021916908373ffffffffffffffffffffffffffffffffffffffff160217905550600060646050846006015461054a9190610f95565b6105549190610fef565b905060008360080160009054906101000a900473ffffffffffffffffffffffffffffffffffffffff1673ffffffffffffffffffffffffffffffffffffffff16826040516105a090611051565b60006040518083038185875af1925050503d80600081146105dd576040519150601f19603f3d011682016040523d82523d6000602084013e6105e2565b606091505b5050905080610626576040517f08c379a000000000000000000000000000000000000000000000000000000000815260040161061d906110b2565b60405180910390fd5b60008460040160006101000a81548160ff021916908315150217905550600084600601819055507f179062d6b4a3247a51b3797bc759449ebe8d91ba5d40c1165baf68e33d9d9a298460080160009054906101000a900473ffffffffffffffffffffffffffffffffffffffff168560040160009054906101000a900460ff16846040516106b5939291906110d2565b60405180910390a15050505050565b60008060009054906101000a900473ffffffffffffffffffffffffffffffffffffffff16905090565b6000806000806060600080600080600360008b815260200190815260200160002090508060000160009054906101000a900473ffffffffffffffffffffffffffffffffffffffff168160020160009054906101000a900473ffffffffffffffffffffffffffffffffffffffff1682600301548360040160009054906101000a900460ff168460050185600601548660080160009054906101000a900473ffffffffffffffffffffffffffffffffffffffff1687600901548380548060200260200160405190810160405280929190818152602001828054801561082557602002820191906000526020600020905b8160009054906101000a900473ffffffffffffffffffffffffffffffffffffffff1673ffffffffffffffffffffffffffffffffffffffff16815260200190600101908083116107db575b505050505093509850985098509850985098509850985050919395975091939597565b6108506108f0565b600073ffffffffffffffffffffffffffffffffffffffff168173ffffffffffffffffffffffffffffffffffffffff1614156108c0576040517f08c379a00000000000000000000000000000000000000000000000000000000081526004016108b79061117b565b60405180910390fd5b6108c98161096e565b50565b600081600001549050919050565b6001816000016000828254019250508190555050565b6108f8610a32565b73ffffffffffffffffffffffffffffffffffffffff166109166106c4565b73ffffffffffffffffffffffffffffffffffffffff161461096c576040517f08c379a0000000000000000000000000000000000000000000000000000000008152600401610963906111e7565b60405180910390fd5b565b60008060009054906101000a900473ffffffffffffffffffffffffffffffffffffffff169050816000806101000a81548173ffffffffffffffffffffffffffffffffffffffff021916908373ffffffffffffffffffffffffffffffffffffffff1602179055508173ffffffffffffffffffffffffffffffffffffffff168173ffffffffffffffffffffffffffffffffffffffff167f8be0079c531659141344cd1fd0a4f28419497f9722a3daafe3b4186f6b6457e060405160405180910390a35050565b600033905090565b600080fd5b6000819050919050565b610a5281610a3f565b8114610a5d57600080fd5b50565b600081359050610a6f81610a49565b92915050565b600073ffffffffffffffffffffffffffffffffffffffff82169050919050565b6000610aa082610a75565b9050919050565b610ab081610a95565b8114610abb57600080fd5b50565b600081359050610acd81610aa7565b92915050565b60008060008060808587031215610aed57610aec610a3a565b5b6000610afb87828801610a60565b9450506020610b0c87828801610abe565b9350506040610b1d87828801610a60565b9250506060610b2e87828801610abe565b91505092959194509250565b600060208284031215610b5057610b4f610a3a565b5b6000610b5e84828501610a60565b91505092915050565b610b7081610a3f565b82525050565b6000602082019050610b8b6000830184610b67565b92915050565b610b9a81610a95565b82525050565b6000602082019050610bb56000830184610b91565b92915050565b60008115159050919050565b610bd081610bbb565b82525050565b600081519050919050565b600082825260208201905092915050565b6000819050602082019050919050565b610c0b81610a95565b82525050565b6000610c1d8383610c02565b60208301905092915050565b6000602082019050919050565b6000610c4182610bd6565b610c4b8185610be1565b9350610c5683610bf2565b8060005b83811015610c87578151610c6e8882610c11565b9750610c7983610c29565b925050600181019050610c5a565b5085935050505092915050565b600061010082019050610caa600083018b610b91565b610cb7602083018a610b91565b610cc46040830189610b67565b610cd16060830188610bc7565b8181036080830152610ce38187610c36565b9050610cf260a0830186610b67565b610cff60c0830185610b91565b610d0c60e0830184610b67565b9998505050505050505050565b600060208284031215610d2f57610d2e610a3a565b5b6000610d3d84828501610abe565b91505092915050565b600060e082019050610d5b600083018a610b91565b610d686020830189610b67565b610d756040830188610b91565b610d826060830187610b67565b610d8f6080830186610bc7565b610d9c60a0830185610b91565b610da960c0830184610b67565b98975050505050505050565b600082825260208201905092915050565b7f546f2070617274696369706174652c20706c656173652061646420746865207260008201527f65717569726520616d6f756e742e000000000000000000000000000000000000602082015250565b6000610e22602e83610db5565b9150610e2d82610dc6565b604082019050919050565b60006020820190508181036000830152610e5181610e15565b9050919050565b7f4e487b7100000000000000000000000000000000000000000000000000000000600052601160045260246000fd5b6000610e9282610a3f565b9150610e9d83610a3f565b9250827fffffffffffffffffffffffffffffffffffffffffffffffffffffffffffffffff03821115610ed257610ed1610e58565b5b828201905092915050565b6000604082019050610ef26000830185610b91565b610eff6020830184610b67565b9392505050565b7f4e487b7100000000000000000000000000000000000000000000000000000000600052601260045260246000fd5b6000610f4082610a3f565b9150610f4b83610a3f565b925082610f5b57610f5a610f06565b5b828206905092915050565b7f4e487b7100000000000000000000000000000000000000000000000000000000600052603260045260246000fd5b6000610fa082610a3f565b9150610fab83610a3f565b9250817fffffffffffffffffffffffffffffffffffffffffffffffffffffffffffffffff0483118215151615610fe457610fe3610e58565b5b828202905092915050565b6000610ffa82610a3f565b915061100583610a3f565b92508261101557611014610f06565b5b828204905092915050565b600081905092915050565b50565b600061103b600083611020565b91506110468261102b565b600082019050919050565b600061105c8261102e565b9150819050919050565b7f6661696c65640000000000000000000000000000000000000000000000000000600082015250565b600061109c600683610db5565b91506110a782611066565b602082019050919050565b600060208201905081810360008301526110cb8161108f565b9050919050565b60006060820190506110e76000830186610b91565b6110f46020830185610bc7565b6111016040830184610b67565b949350505050565b7f4f776e61626c653a206e6577206f776e657220697320746865207a65726f206160008201527f6464726573730000000000000000000000000000000000000000000000000000602082015250565b6000611165602683610db5565b915061117082611109565b604082019050919050565b6000602082019050818103600083015261119481611158565b9050919050565b7f4f776e61626c653a2063616c6c6572206973206e6f7420746865206f776e6572600082015250565b60006111d1602083610db5565b91506111dc8261119b565b602082019050919050565b60006020820190508181036000830152611200816111c4565b905091905056fea2646970667358221220fee02f3d63036c14d24d6a72b90b9caf29fb0f272b649685c2806eec14b1388364736f6c63430008090033",
  "linkReferences": {},
  "deployedLinkReferences": {}
}