{
  "_format": "hh-sol-artifact-1",
  "contractName": "TestNFTHandler",
  "sourceName": "contracts/TestNFTHandler.sol",
  "abi": [
    {
      "inputs": [
        {
          "internalType": "uint256",
          "name": "_lotteryId",
          "type": "uint256"
        },
        {
          "internalType": "address",
          "name": "_winner",
          "type": "address"
        }
      ],
      "name": "endLottery",
      "outputs": [],
      "stateMutability": "nonpayable",
      "type": "function"
    },
    {
      "inputs": [
        {
          "internalType": "address",
          "name": "",
          "type": "address"
        },
        {
          "internalType": "address",
          "name": "",
          "type": "address"
        },
        {
          "internalType": "uint256",
          "name": "",
          "type": "uint256"
        },
        {
          "internalType": "bytes",
          "name": "",
          "type": "bytes"
        }
      ],
      "name": "onERC721Received",
      "outputs": [
        {
          "internalType": "bytes4",
          "name": "",
          "type": "bytes4"
        }
      ],
      "stateMutability": "nonpayable",
      "type": "function"
    },
    {
      "inputs": [
        {
          "internalType": "uint256",
          "name": "_tokenId",
          "type": "uint256"
        },
        {
          "internalType": "address",
          "name": "_nftContractAddress",
          "type": "address"
        }
      ],
      "name": "startLottery",
      "outputs": [
        {
          "internalType": "bytes4",
          "name": "",
          "type": "bytes4"
        }
      ],
      "stateMutability": "nonpayable",
      "type": "function"
    }
  ],
  "bytecode": "0x608060405234801561001057600080fd5b50610782806100206000396000f3fe608060405234801561001057600080fd5b50600436106100415760003560e01c8063150b7a02146100465780638a6ada4114610076578063bc3ce0d614610092575b600080fd5b610060600480360381019061005b9190610561565b6100c2565b60405161006d919061061f565b60405180910390f35b610090600480360381019061008b919061063a565b6100d6565b005b6100ac60048036038101906100a7919061063a565b610225565b6040516100b9919061061f565b60405180910390f35b600063150b7a0260e01b9050949350505050565b6100e0600161034f565b821115610122576040517f08c379a0000000000000000000000000000000000000000000000000000000008152600401610119906106d7565b60405180910390fd5b60008060008481526020019081526020016000206040518060400160405290816000820160009054906101000a900473ffffffffffffffffffffffffffffffffffffffff1673ffffffffffffffffffffffffffffffffffffffff1673ffffffffffffffffffffffffffffffffffffffff16815260200160018201548152505090506000816000015190508073ffffffffffffffffffffffffffffffffffffffff166342842e0e308585602001516040518463ffffffff1660e01b81526004016101ed93929190610715565b600060405180830381600087803b15801561020757600080fd5b505af115801561021b573d6000803e3d6000fd5b5050505050505050565b6000808290508073ffffffffffffffffffffffffffffffffffffffff166342842e0e3330876040518463ffffffff1660e01b815260040161026893929190610715565b600060405180830381600087803b15801561028257600080fd5b505af1158015610296573d6000803e3d6000fd5b5050505060405180604001604052808473ffffffffffffffffffffffffffffffffffffffff168152602001858152506000806102d2600161034f565b815260200190815260200160002060008201518160000160006101000a81548173ffffffffffffffffffffffffffffffffffffffff021916908373ffffffffffffffffffffffffffffffffffffffff1602179055506020820151816001015590505061033e600161035d565b63150b7a0260e01b91505092915050565b600081600001549050919050565b6001816000016000828254019250508190555050565b6000604051905090565b600080fd5b600080fd5b600073ffffffffffffffffffffffffffffffffffffffff82169050919050565b60006103b282610387565b9050919050565b6103c2816103a7565b81146103cd57600080fd5b50565b6000813590506103df816103b9565b92915050565b6000819050919050565b6103f8816103e5565b811461040357600080fd5b50565b600081359050610415816103ef565b92915050565b600080fd5b600080fd5b6000601f19601f8301169050919050565b7f4e487b7100000000000000000000000000000000000000000000000000000000600052604160045260246000fd5b61046e82610425565b810181811067ffffffffffffffff8211171561048d5761048c610436565b5b80604052505050565b60006104a0610373565b90506104ac8282610465565b919050565b600067ffffffffffffffff8211156104cc576104cb610436565b5b6104d582610425565b9050602081019050919050565b82818337600083830152505050565b60006105046104ff846104b1565b610496565b9050828152602081018484840111156105205761051f610420565b5b61052b8482856104e2565b509392505050565b600082601f8301126105485761054761041b565b5b81356105588482602086016104f1565b91505092915050565b6000806000806080858703121561057b5761057a61037d565b5b6000610589878288016103d0565b945050602061059a878288016103d0565b93505060406105ab87828801610406565b925050606085013567ffffffffffffffff8111156105cc576105cb610382565b5b6105d887828801610533565b91505092959194509250565b60007fffffffff0000000000000000000000000000000000000000000000000000000082169050919050565b610619816105e4565b82525050565b60006020820190506106346000830184610610565b92915050565b600080604083850312156106515761065061037d565b5b600061065f85828601610406565b9250506020610670858286016103d0565b9150509250929050565b600082825260208201905092915050565b7f4c6f7474657279206d7573742065786973740000000000000000000000000000600082015250565b60006106c160128361067a565b91506106cc8261068b565b602082019050919050565b600060208201905081810360008301526106f0816106b4565b9050919050565b610700816103a7565b82525050565b61070f816103e5565b82525050565b600060608201905061072a60008301866106f7565b61073760208301856106f7565b6107446040830184610706565b94935050505056fea26469706673582212208b7e76be679ca6c91aba90bcf12106444bd0635bfe95785bba383e6f9ac8d9a664736f6c63430008090033",
  "linkReferences": {},
  "deployedLinkReferences": {}
}